
fw-bandwidth-DDR_CM4.elf:     file format elf32-littlearm

Sections:
Idx Name          Size      VMA       LMA       File off  Algn
  0 .isr_vector   00000298  00000000  00000000  00010000  2**0
                  CONTENTS, ALLOC, LOAD, READONLY, DATA
  1 .text         0000d8cc  10000000  10000000  00020000  2**4
                  CONTENTS, ALLOC, LOAD, READONLY, CODE
  2 .startup_copro_fw.Reset_Handler 00000050  1000d8cc  1000d8cc  0002d8cc  2**2
                  CONTENTS, ALLOC, LOAD, READONLY, CODE
  3 .rodata       00000758  1000d91c  1000d91c  0002d91c  2**2
                  CONTENTS, ALLOC, LOAD, READONLY, DATA
  4 .ARM.extab    00000000  1000e074  1000e074  000301bc  2**0
                  CONTENTS
  5 .ARM          00000000  1000e074  1000e074  000301bc  2**0
                  CONTENTS
  6 .preinit_array 00000000  1000e074  1000e074  000301bc  2**0
                  CONTENTS, ALLOC, LOAD, DATA
  7 .init_array   00000004  1000e074  1000e074  0002e074  2**2
                  CONTENTS, ALLOC, LOAD, DATA
  8 .fini_array   00000004  1000e078  1000e078  0002e078  2**2
                  CONTENTS, ALLOC, LOAD, DATA
  9 .data         00000130  10020000  1000e07c  00030000  2**2
                  CONTENTS, ALLOC, LOAD, DATA
 10 .resource_table 0000008c  10020130  1000e1ac  00030130  2**2
                  CONTENTS, ALLOC, LOAD, READONLY, DATA
 11 .bss          00002824  100201bc  1000e238  000301bc  2**2
                  ALLOC
 12 ._user_heap_stack 00000600  100229e0  10010a5c  000301bc  2**0
                  ALLOC
 13 .ARM.attributes 00000030  00000000  00000000  000301bc  2**0
                  CONTENTS, READONLY
 14 .debug_info   0002e217  00000000  00000000  000301ec  2**0
                  CONTENTS, READONLY, DEBUGGING, OCTETS
 15 .debug_abbrev 0000628f  00000000  00000000  0005e403  2**0
                  CONTENTS, READONLY, DEBUGGING, OCTETS
 16 .debug_aranges 00001d88  00000000  00000000  00064698  2**3
                  CONTENTS, READONLY, DEBUGGING, OCTETS
 17 .debug_ranges 00001ad8  00000000  00000000  00066420  2**3
                  CONTENTS, READONLY, DEBUGGING, OCTETS
 18 .debug_macro  0004db8f  00000000  00000000  00067ef8  2**0
                  CONTENTS, READONLY, DEBUGGING, OCTETS
 19 .debug_line   0002939a  00000000  00000000  000b5a87  2**0
                  CONTENTS, READONLY, DEBUGGING, OCTETS
 20 .debug_str    001ddb00  00000000  00000000  000dee21  2**0
                  CONTENTS, READONLY, DEBUGGING, OCTETS
 21 .comment      00000050  00000000  00000000  002bc921  2**0
                  CONTENTS, READONLY
 22 .debug_frame  00008210  00000000  00000000  002bc974  2**2
                  CONTENTS, READONLY, DEBUGGING, OCTETS

Disassembly of section .text:

10000000 <__do_global_dtors_aux>:
10000000:	b510      	push	{r4, lr}
10000002:	4c05      	ldr	r4, [pc, #20]	; (10000018 <__do_global_dtors_aux+0x18>)
10000004:	7823      	ldrb	r3, [r4, #0]
10000006:	b933      	cbnz	r3, 10000016 <__do_global_dtors_aux+0x16>
10000008:	4b04      	ldr	r3, [pc, #16]	; (1000001c <__do_global_dtors_aux+0x1c>)
1000000a:	b113      	cbz	r3, 10000012 <__do_global_dtors_aux+0x12>
1000000c:	4804      	ldr	r0, [pc, #16]	; (10000020 <__do_global_dtors_aux+0x20>)
1000000e:	f3af 8000 	nop.w
10000012:	2301      	movs	r3, #1
10000014:	7023      	strb	r3, [r4, #0]
10000016:	bd10      	pop	{r4, pc}
10000018:	100201bc 	.word	0x100201bc
1000001c:	00000000 	.word	0x00000000
10000020:	1000d8b4 	.word	0x1000d8b4

10000024 <frame_dummy>:
10000024:	b508      	push	{r3, lr}
10000026:	4b03      	ldr	r3, [pc, #12]	; (10000034 <frame_dummy+0x10>)
10000028:	b11b      	cbz	r3, 10000032 <frame_dummy+0xe>
1000002a:	4903      	ldr	r1, [pc, #12]	; (10000038 <frame_dummy+0x14>)
1000002c:	4803      	ldr	r0, [pc, #12]	; (1000003c <frame_dummy+0x18>)
1000002e:	f3af 8000 	nop.w
10000032:	bd08      	pop	{r3, pc}
10000034:	00000000 	.word	0x00000000
10000038:	100201c0 	.word	0x100201c0
1000003c:	1000d8b4 	.word	0x1000d8b4

10000040 <strcmp>:
10000040:	f810 2b01 	ldrb.w	r2, [r0], #1
10000044:	f811 3b01 	ldrb.w	r3, [r1], #1
10000048:	2a01      	cmp	r2, #1
1000004a:	bf28      	it	cs
1000004c:	429a      	cmpcs	r2, r3
1000004e:	d0f7      	beq.n	10000040 <strcmp>
10000050:	1ad0      	subs	r0, r2, r3
10000052:	4770      	bx	lr

10000054 <strlen>:
10000054:	4603      	mov	r3, r0
10000056:	f813 2b01 	ldrb.w	r2, [r3], #1
1000005a:	2a00      	cmp	r2, #0
1000005c:	d1fb      	bne.n	10000056 <strlen+0x2>
1000005e:	1a18      	subs	r0, r3, r0
10000060:	3801      	subs	r0, #1
10000062:	4770      	bx	lr
	...

10000070 <memchr>:
10000070:	f001 01ff 	and.w	r1, r1, #255	; 0xff
10000074:	2a10      	cmp	r2, #16
10000076:	db2b      	blt.n	100000d0 <memchr+0x60>
10000078:	f010 0f07 	tst.w	r0, #7
1000007c:	d008      	beq.n	10000090 <memchr+0x20>
1000007e:	f810 3b01 	ldrb.w	r3, [r0], #1
10000082:	3a01      	subs	r2, #1
10000084:	428b      	cmp	r3, r1
10000086:	d02d      	beq.n	100000e4 <memchr+0x74>
10000088:	f010 0f07 	tst.w	r0, #7
1000008c:	b342      	cbz	r2, 100000e0 <memchr+0x70>
1000008e:	d1f6      	bne.n	1000007e <memchr+0xe>
10000090:	b4f0      	push	{r4, r5, r6, r7}
10000092:	ea41 2101 	orr.w	r1, r1, r1, lsl #8
10000096:	ea41 4101 	orr.w	r1, r1, r1, lsl #16
1000009a:	f022 0407 	bic.w	r4, r2, #7
1000009e:	f07f 0700 	mvns.w	r7, #0
100000a2:	2300      	movs	r3, #0
100000a4:	e8f0 5602 	ldrd	r5, r6, [r0], #8
100000a8:	3c08      	subs	r4, #8
100000aa:	ea85 0501 	eor.w	r5, r5, r1
100000ae:	ea86 0601 	eor.w	r6, r6, r1
100000b2:	fa85 f547 	uadd8	r5, r5, r7
100000b6:	faa3 f587 	sel	r5, r3, r7
100000ba:	fa86 f647 	uadd8	r6, r6, r7
100000be:	faa5 f687 	sel	r6, r5, r7
100000c2:	b98e      	cbnz	r6, 100000e8 <memchr+0x78>
100000c4:	d1ee      	bne.n	100000a4 <memchr+0x34>
100000c6:	bcf0      	pop	{r4, r5, r6, r7}
100000c8:	f001 01ff 	and.w	r1, r1, #255	; 0xff
100000cc:	f002 0207 	and.w	r2, r2, #7
100000d0:	b132      	cbz	r2, 100000e0 <memchr+0x70>
100000d2:	f810 3b01 	ldrb.w	r3, [r0], #1
100000d6:	3a01      	subs	r2, #1
100000d8:	ea83 0301 	eor.w	r3, r3, r1
100000dc:	b113      	cbz	r3, 100000e4 <memchr+0x74>
100000de:	d1f8      	bne.n	100000d2 <memchr+0x62>
100000e0:	2000      	movs	r0, #0
100000e2:	4770      	bx	lr
100000e4:	3801      	subs	r0, #1
100000e6:	4770      	bx	lr
100000e8:	2d00      	cmp	r5, #0
100000ea:	bf06      	itte	eq
100000ec:	4635      	moveq	r5, r6
100000ee:	3803      	subeq	r0, #3
100000f0:	3807      	subne	r0, #7
100000f2:	f015 0f01 	tst.w	r5, #1
100000f6:	d107      	bne.n	10000108 <memchr+0x98>
100000f8:	3001      	adds	r0, #1
100000fa:	f415 7f80 	tst.w	r5, #256	; 0x100
100000fe:	bf02      	ittt	eq
10000100:	3001      	addeq	r0, #1
10000102:	f415 3fc0 	tsteq.w	r5, #98304	; 0x18000
10000106:	3001      	addeq	r0, #1
10000108:	bcf0      	pop	{r4, r5, r6, r7}
1000010a:	3801      	subs	r0, #1
1000010c:	4770      	bx	lr
1000010e:	bf00      	nop

10000110 <SystemInit>:
  *         configuration.
  * @param  None
  * @retval None
  */
void SystemInit (void)
{
10000110:	b480      	push	{r7}
10000112:	af00      	add	r7, sp, #0
  /* FPU settings ------------------------------------------------------------*/
#if defined (CORE_CM4)
  #if (__FPU_PRESENT == 1) && (__FPU_USED == 1)
   SCB->CPACR |= ((3UL << 10*2)|(3UL << 11*2));  /* set CP10 and CP11 Full Access */
10000114:	4b0f      	ldr	r3, [pc, #60]	; (10000154 <SystemInit+0x44>)
10000116:	f8d3 3088 	ldr.w	r3, [r3, #136]	; 0x88
1000011a:	4a0e      	ldr	r2, [pc, #56]	; (10000154 <SystemInit+0x44>)
1000011c:	f443 0370 	orr.w	r3, r3, #15728640	; 0xf00000
10000120:	f8c2 3088 	str.w	r3, [r2, #136]	; 0x88
  /* Configure the Vector Table location add offset address ------------------*/
#if defined (VECT_TAB_SRAM)
  SCB->VTOR = MCU_AHB_SRAM | VECT_TAB_OFFSET; /* Vector Table Relocation in Internal SRAM */
#endif
  /* Disable all interrupts and events */
  CLEAR_REG(EXTI_C2->IMR1);
10000124:	4b0c      	ldr	r3, [pc, #48]	; (10000158 <SystemInit+0x48>)
10000126:	2200      	movs	r2, #0
10000128:	601a      	str	r2, [r3, #0]
  CLEAR_REG(EXTI_C2->IMR2);
1000012a:	4b0b      	ldr	r3, [pc, #44]	; (10000158 <SystemInit+0x48>)
1000012c:	2200      	movs	r2, #0
1000012e:	611a      	str	r2, [r3, #16]
  CLEAR_REG(EXTI_C2->IMR3);
10000130:	4b09      	ldr	r3, [pc, #36]	; (10000158 <SystemInit+0x48>)
10000132:	2200      	movs	r2, #0
10000134:	621a      	str	r2, [r3, #32]
  CLEAR_REG(EXTI_C2->EMR1);
10000136:	4b08      	ldr	r3, [pc, #32]	; (10000158 <SystemInit+0x48>)
10000138:	2200      	movs	r2, #0
1000013a:	605a      	str	r2, [r3, #4]
  CLEAR_REG(EXTI_C2->EMR2);
1000013c:	4b06      	ldr	r3, [pc, #24]	; (10000158 <SystemInit+0x48>)
1000013e:	2200      	movs	r2, #0
10000140:	615a      	str	r2, [r3, #20]
  CLEAR_REG(EXTI_C2->EMR3);
10000142:	4b05      	ldr	r3, [pc, #20]	; (10000158 <SystemInit+0x48>)
10000144:	2200      	movs	r2, #0
10000146:	625a      	str	r2, [r3, #36]	; 0x24
#else
#error Please #define CORE_CM4
#endif	                         
}
10000148:	bf00      	nop
1000014a:	46bd      	mov	sp, r7
1000014c:	f85d 7b04 	ldr.w	r7, [sp], #4
10000150:	4770      	bx	lr
10000152:	bf00      	nop
10000154:	e000ed00 	.word	0xe000ed00
10000158:	5000d0c0 	.word	0x5000d0c0

1000015c <main>:
/**
 * @brief  The application entry point.
 * @retval int
 */
int main(void)
{
1000015c:	b580      	push	{r7, lr}
1000015e:	af00      	add	r7, sp, #0
	/* USER CODE END 1 */

	/* MCU Configuration--------------------------------------------------------*/

	/* Reset of all peripherals, Initializes the Flash interface and the Systick. */
	HAL_Init();
10000160:	f001 f8b0 	bl	100012c4 <HAL_Init>

	/* USER CODE BEGIN Init */

	/* USER CODE END Init */

	if(IS_ENGINEERING_BOOT_MODE())
10000164:	4b19      	ldr	r3, [pc, #100]	; (100001cc <main+0x70>)
10000166:	681b      	ldr	r3, [r3, #0]
10000168:	f003 0307 	and.w	r3, r3, #7
1000016c:	2b04      	cmp	r3, #4
1000016e:	d101      	bne.n	10000174 <main+0x18>
	{
		/* Configure the system clock */
		SystemClock_Config();
10000170:	f000 f840 	bl	100001f4 <SystemClock_Config>
	}

	if(IS_ENGINEERING_BOOT_MODE())
10000174:	4b15      	ldr	r3, [pc, #84]	; (100001cc <main+0x70>)
10000176:	681b      	ldr	r3, [r3, #0]
10000178:	f003 0307 	and.w	r3, r3, #7
1000017c:	2b04      	cmp	r3, #4
1000017e:	d102      	bne.n	10000186 <main+0x2a>
	{
		/* Configure the peripherals common clocks */
		PeriphCommonClock_Config();
10000180:	f000 f9b4 	bl	100004ec <PeriphCommonClock_Config>
10000184:	e001      	b.n	1000018a <main+0x2e>
	}
	else
	{
		/* IPCC initialisation */
		MX_IPCC_Init();
10000186:	f000 f9df 	bl	10000548 <MX_IPCC_Init>
	/* USER CODE BEGIN SysInit */

	/* USER CODE END SysInit */

	/* Initialize all configured peripherals */
	MX_GPIO_Init();
1000018a:	f000 fa41 	bl	10000610 <MX_GPIO_Init>
	MX_DMA_Init();
1000018e:	f000 f9ef 	bl	10000570 <MX_DMA_Init>
	/* USER CODE BEGIN 2 */

	/* USER CODE END 2 */

	/* Init scheduler */
	osKernelInitialize();
10000192:	f006 f937 	bl	10006404 <osKernelInitialize>
	/* add queues, ... */
	/* USER CODE END RTOS_QUEUES */

	/* Create the thread(s) */
	/* creation of TaskOpenamp */
	TaskOpenampHandle = osThreadNew(StartTaskOpenamp, NULL, &TaskOpenamp_attributes);
10000196:	4a0e      	ldr	r2, [pc, #56]	; (100001d0 <main+0x74>)
10000198:	2100      	movs	r1, #0
1000019a:	480e      	ldr	r0, [pc, #56]	; (100001d4 <main+0x78>)
1000019c:	f006 f99c 	bl	100064d8 <osThreadNew>
100001a0:	4603      	mov	r3, r0
100001a2:	4a0d      	ldr	r2, [pc, #52]	; (100001d8 <main+0x7c>)
100001a4:	6013      	str	r3, [r2, #0]

	/* creation of TaskHeartBeats */
	TaskHeartBeatsHandle = osThreadNew(StartTaskHeartBeats, NULL, &TaskHeartBeats_attributes);
100001a6:	4a0d      	ldr	r2, [pc, #52]	; (100001dc <main+0x80>)
100001a8:	2100      	movs	r1, #0
100001aa:	480d      	ldr	r0, [pc, #52]	; (100001e0 <main+0x84>)
100001ac:	f006 f994 	bl	100064d8 <osThreadNew>
100001b0:	4603      	mov	r3, r0
100001b2:	4a0c      	ldr	r2, [pc, #48]	; (100001e4 <main+0x88>)
100001b4:	6013      	str	r3, [r2, #0]

	/* creation of TaskDDR */
	TaskDDRHandle = osThreadNew(StartTaskDDR, NULL, &TaskDDR_attributes);
100001b6:	4a0c      	ldr	r2, [pc, #48]	; (100001e8 <main+0x8c>)
100001b8:	2100      	movs	r1, #0
100001ba:	480c      	ldr	r0, [pc, #48]	; (100001ec <main+0x90>)
100001bc:	f006 f98c 	bl	100064d8 <osThreadNew>
100001c0:	4603      	mov	r3, r0
100001c2:	4a0b      	ldr	r2, [pc, #44]	; (100001f0 <main+0x94>)
100001c4:	6013      	str	r3, [r2, #0]
	/* USER CODE BEGIN RTOS_EVENTS */
	/* add events, ... */
	/* USER CODE END RTOS_EVENTS */

	/* Start scheduler */
	osKernelStart();
100001c6:	f006 f951 	bl	1000646c <osKernelStart>

	/* We should never get here as control is now taken by the scheduler */
	/* Infinite loop */
	/* USER CODE BEGIN WHILE */
	while (1)
100001ca:	e7fe      	b.n	100001ca <main+0x6e>
100001cc:	50020000 	.word	0x50020000
100001d0:	1000de00 	.word	0x1000de00
100001d4:	100006b9 	.word	0x100006b9
100001d8:	1002028c 	.word	0x1002028c
100001dc:	1000de24 	.word	0x1000de24
100001e0:	10000745 	.word	0x10000745
100001e4:	10020290 	.word	0x10020290
100001e8:	1000de48 	.word	0x1000de48
100001ec:	10000799 	.word	0x10000799
100001f0:	10020294 	.word	0x10020294

100001f4 <SystemClock_Config>:
/**
 * @brief System Clock Configuration
 * @retval None
 */
void SystemClock_Config(void)
{
100001f4:	b580      	push	{r7, lr}
100001f6:	b0d2      	sub	sp, #328	; 0x148
100001f8:	af00      	add	r7, sp, #0
	RCC_OscInitTypeDef RCC_OscInitStruct = {0};
100001fa:	f507 73a4 	add.w	r3, r7, #328	; 0x148
100001fe:	f5a3 738a 	sub.w	r3, r3, #276	; 0x114
10000202:	4618      	mov	r0, r3
10000204:	f44f 738a 	mov.w	r3, #276	; 0x114
10000208:	461a      	mov	r2, r3
1000020a:	2100      	movs	r1, #0
1000020c:	f00c f994 	bl	1000c538 <memset>
	RCC_ClkInitTypeDef RCC_ClkInitStruct = {0};
10000210:	f507 73a4 	add.w	r3, r7, #328	; 0x148
10000214:	f5a3 73a2 	sub.w	r3, r3, #324	; 0x144
10000218:	4618      	mov	r0, r3
1000021a:	2330      	movs	r3, #48	; 0x30
1000021c:	461a      	mov	r2, r3
1000021e:	2100      	movs	r1, #0
10000220:	f00c f98a 	bl	1000c538 <memset>

	/** Configure LSE Drive Capability
	 */
	HAL_PWR_EnableBkUpAccess();
10000224:	f002 f94c 	bl	100024c0 <HAL_PWR_EnableBkUpAccess>
	__HAL_RCC_LSEDRIVE_CONFIG(RCC_LSEDRIVE_MEDIUMHIGH);
10000228:	f04f 43a0 	mov.w	r3, #1342177280	; 0x50000000
1000022c:	f8d3 3140 	ldr.w	r3, [r3, #320]	; 0x140
10000230:	f023 0330 	bic.w	r3, r3, #48	; 0x30
10000234:	f04f 42a0 	mov.w	r2, #1342177280	; 0x50000000
10000238:	f043 0320 	orr.w	r3, r3, #32
1000023c:	f8c2 3140 	str.w	r3, [r2, #320]	; 0x140

	/** Initializes the RCC Oscillators according to the specified parameters
	 * in the RCC_OscInitTypeDef structure.
	 */
	RCC_OscInitStruct.OscillatorType = RCC_OSCILLATORTYPE_HSI|RCC_OSCILLATORTYPE_LSI
10000240:	f507 73a4 	add.w	r3, r7, #328	; 0x148
10000244:	f5a3 738a 	sub.w	r3, r3, #276	; 0x114
10000248:	220f      	movs	r2, #15
1000024a:	601a      	str	r2, [r3, #0]
			|RCC_OSCILLATORTYPE_HSE|RCC_OSCILLATORTYPE_LSE;
	RCC_OscInitStruct.HSEState = RCC_HSE_BYPASS_DIG;
1000024c:	f507 73a4 	add.w	r3, r7, #328	; 0x148
10000250:	f5a3 738a 	sub.w	r3, r3, #276	; 0x114
10000254:	f44f 62b0 	mov.w	r2, #1408	; 0x580
10000258:	605a      	str	r2, [r3, #4]
	RCC_OscInitStruct.LSEState = RCC_LSE_ON;
1000025a:	f507 73a4 	add.w	r3, r7, #328	; 0x148
1000025e:	f5a3 738a 	sub.w	r3, r3, #276	; 0x114
10000262:	2201      	movs	r2, #1
10000264:	609a      	str	r2, [r3, #8]
	RCC_OscInitStruct.HSIState = RCC_HSI_ON;
10000266:	f507 73a4 	add.w	r3, r7, #328	; 0x148
1000026a:	f5a3 738a 	sub.w	r3, r3, #276	; 0x114
1000026e:	2201      	movs	r2, #1
10000270:	60da      	str	r2, [r3, #12]
	RCC_OscInitStruct.HSICalibrationValue = 16;
10000272:	f507 73a4 	add.w	r3, r7, #328	; 0x148
10000276:	f5a3 738a 	sub.w	r3, r3, #276	; 0x114
1000027a:	2210      	movs	r2, #16
1000027c:	611a      	str	r2, [r3, #16]
	RCC_OscInitStruct.HSIDivValue = RCC_HSI_DIV1;
1000027e:	f507 73a4 	add.w	r3, r7, #328	; 0x148
10000282:	f5a3 738a 	sub.w	r3, r3, #276	; 0x114
10000286:	2200      	movs	r2, #0
10000288:	615a      	str	r2, [r3, #20]
	RCC_OscInitStruct.LSIState = RCC_LSI_ON;
1000028a:	f507 73a4 	add.w	r3, r7, #328	; 0x148
1000028e:	f5a3 738a 	sub.w	r3, r3, #276	; 0x114
10000292:	2201      	movs	r2, #1
10000294:	619a      	str	r2, [r3, #24]
	RCC_OscInitStruct.PLL.PLLState = RCC_PLL_NONE;
10000296:	f507 73a4 	add.w	r3, r7, #328	; 0x148
1000029a:	f5a3 738a 	sub.w	r3, r3, #276	; 0x114
1000029e:	2200      	movs	r2, #0
100002a0:	625a      	str	r2, [r3, #36]	; 0x24
	RCC_OscInitStruct.PLL2.PLLState = RCC_PLL_ON;
100002a2:	f507 73a4 	add.w	r3, r7, #328	; 0x148
100002a6:	f5a3 738a 	sub.w	r3, r3, #276	; 0x114
100002aa:	2202      	movs	r2, #2
100002ac:	661a      	str	r2, [r3, #96]	; 0x60
	RCC_OscInitStruct.PLL2.PLLSource = RCC_PLL12SOURCE_HSE;
100002ae:	f507 73a4 	add.w	r3, r7, #328	; 0x148
100002b2:	f5a3 738a 	sub.w	r3, r3, #276	; 0x114
100002b6:	2201      	movs	r2, #1
100002b8:	665a      	str	r2, [r3, #100]	; 0x64
	RCC_OscInitStruct.PLL2.PLLM = 3;
100002ba:	f507 73a4 	add.w	r3, r7, #328	; 0x148
100002be:	f5a3 738a 	sub.w	r3, r3, #276	; 0x114
100002c2:	2203      	movs	r2, #3
100002c4:	669a      	str	r2, [r3, #104]	; 0x68
	RCC_OscInitStruct.PLL2.PLLN = 66;
100002c6:	f507 73a4 	add.w	r3, r7, #328	; 0x148
100002ca:	f5a3 738a 	sub.w	r3, r3, #276	; 0x114
100002ce:	2242      	movs	r2, #66	; 0x42
100002d0:	66da      	str	r2, [r3, #108]	; 0x6c
	RCC_OscInitStruct.PLL2.PLLP = 2;
100002d2:	f507 73a4 	add.w	r3, r7, #328	; 0x148
100002d6:	f5a3 738a 	sub.w	r3, r3, #276	; 0x114
100002da:	2202      	movs	r2, #2
100002dc:	671a      	str	r2, [r3, #112]	; 0x70
	RCC_OscInitStruct.PLL2.PLLQ = 1;
100002de:	f507 73a4 	add.w	r3, r7, #328	; 0x148
100002e2:	f5a3 738a 	sub.w	r3, r3, #276	; 0x114
100002e6:	2201      	movs	r2, #1
100002e8:	675a      	str	r2, [r3, #116]	; 0x74
	RCC_OscInitStruct.PLL2.PLLR = 1;
100002ea:	f507 73a4 	add.w	r3, r7, #328	; 0x148
100002ee:	f5a3 738a 	sub.w	r3, r3, #276	; 0x114
100002f2:	2201      	movs	r2, #1
100002f4:	679a      	str	r2, [r3, #120]	; 0x78
	RCC_OscInitStruct.PLL2.PLLFRACV = 0x1400;
100002f6:	f507 73a4 	add.w	r3, r7, #328	; 0x148
100002fa:	f5a3 738a 	sub.w	r3, r3, #276	; 0x114
100002fe:	f44f 52a0 	mov.w	r2, #5120	; 0x1400
10000302:	f8c3 2080 	str.w	r2, [r3, #128]	; 0x80
	RCC_OscInitStruct.PLL2.PLLMODE = RCC_PLL_FRACTIONAL;
10000306:	f507 73a4 	add.w	r3, r7, #328	; 0x148
1000030a:	f5a3 738a 	sub.w	r3, r3, #276	; 0x114
1000030e:	2201      	movs	r2, #1
10000310:	f8c3 2084 	str.w	r2, [r3, #132]	; 0x84
	RCC_OscInitStruct.PLL3.PLLState = RCC_PLL_ON;
10000314:	f507 73a4 	add.w	r3, r7, #328	; 0x148
10000318:	f5a3 738a 	sub.w	r3, r3, #276	; 0x114
1000031c:	2202      	movs	r2, #2
1000031e:	f8c3 209c 	str.w	r2, [r3, #156]	; 0x9c
	RCC_OscInitStruct.PLL3.PLLSource = RCC_PLL3SOURCE_HSE;
10000322:	f507 73a4 	add.w	r3, r7, #328	; 0x148
10000326:	f5a3 738a 	sub.w	r3, r3, #276	; 0x114
1000032a:	2201      	movs	r2, #1
1000032c:	f8c3 20a0 	str.w	r2, [r3, #160]	; 0xa0
	RCC_OscInitStruct.PLL3.PLLM = 2;
10000330:	f507 73a4 	add.w	r3, r7, #328	; 0x148
10000334:	f5a3 738a 	sub.w	r3, r3, #276	; 0x114
10000338:	2202      	movs	r2, #2
1000033a:	f8c3 20a4 	str.w	r2, [r3, #164]	; 0xa4
	RCC_OscInitStruct.PLL3.PLLN = 34;
1000033e:	f507 73a4 	add.w	r3, r7, #328	; 0x148
10000342:	f5a3 738a 	sub.w	r3, r3, #276	; 0x114
10000346:	2222      	movs	r2, #34	; 0x22
10000348:	f8c3 20a8 	str.w	r2, [r3, #168]	; 0xa8
	RCC_OscInitStruct.PLL3.PLLP = 2;
1000034c:	f507 73a4 	add.w	r3, r7, #328	; 0x148
10000350:	f5a3 738a 	sub.w	r3, r3, #276	; 0x114
10000354:	2202      	movs	r2, #2
10000356:	f8c3 20ac 	str.w	r2, [r3, #172]	; 0xac
	RCC_OscInitStruct.PLL3.PLLQ = 17;
1000035a:	f507 73a4 	add.w	r3, r7, #328	; 0x148
1000035e:	f5a3 738a 	sub.w	r3, r3, #276	; 0x114
10000362:	2211      	movs	r2, #17
10000364:	f8c3 20b0 	str.w	r2, [r3, #176]	; 0xb0
	RCC_OscInitStruct.PLL3.PLLR = 37;
10000368:	f507 73a4 	add.w	r3, r7, #328	; 0x148
1000036c:	f5a3 738a 	sub.w	r3, r3, #276	; 0x114
10000370:	2225      	movs	r2, #37	; 0x25
10000372:	f8c3 20b4 	str.w	r2, [r3, #180]	; 0xb4
	RCC_OscInitStruct.PLL3.PLLRGE = RCC_PLL3IFRANGE_1;
10000376:	f507 73a4 	add.w	r3, r7, #328	; 0x148
1000037a:	f5a3 738a 	sub.w	r3, r3, #276	; 0x114
1000037e:	f04f 7280 	mov.w	r2, #16777216	; 0x1000000
10000382:	f8c3 20b8 	str.w	r2, [r3, #184]	; 0xb8
	RCC_OscInitStruct.PLL3.PLLFRACV = 6660;
10000386:	f507 73a4 	add.w	r3, r7, #328	; 0x148
1000038a:	f5a3 738a 	sub.w	r3, r3, #276	; 0x114
1000038e:	f641 2204 	movw	r2, #6660	; 0x1a04
10000392:	f8c3 20bc 	str.w	r2, [r3, #188]	; 0xbc
	RCC_OscInitStruct.PLL3.PLLMODE = RCC_PLL_FRACTIONAL;
10000396:	f507 73a4 	add.w	r3, r7, #328	; 0x148
1000039a:	f5a3 738a 	sub.w	r3, r3, #276	; 0x114
1000039e:	2201      	movs	r2, #1
100003a0:	f8c3 20c0 	str.w	r2, [r3, #192]	; 0xc0
	RCC_OscInitStruct.PLL4.PLLState = RCC_PLL_ON;
100003a4:	f507 73a4 	add.w	r3, r7, #328	; 0x148
100003a8:	f5a3 738a 	sub.w	r3, r3, #276	; 0x114
100003ac:	2202      	movs	r2, #2
100003ae:	f8c3 20d8 	str.w	r2, [r3, #216]	; 0xd8
	RCC_OscInitStruct.PLL4.PLLSource = RCC_PLL4SOURCE_HSE;
100003b2:	f507 73a4 	add.w	r3, r7, #328	; 0x148
100003b6:	f5a3 738a 	sub.w	r3, r3, #276	; 0x114
100003ba:	2201      	movs	r2, #1
100003bc:	f8c3 20dc 	str.w	r2, [r3, #220]	; 0xdc
	RCC_OscInitStruct.PLL4.PLLM = 4;
100003c0:	f507 73a4 	add.w	r3, r7, #328	; 0x148
100003c4:	f5a3 738a 	sub.w	r3, r3, #276	; 0x114
100003c8:	2204      	movs	r2, #4
100003ca:	f8c3 20e0 	str.w	r2, [r3, #224]	; 0xe0
	RCC_OscInitStruct.PLL4.PLLN = 99;
100003ce:	f507 73a4 	add.w	r3, r7, #328	; 0x148
100003d2:	f5a3 738a 	sub.w	r3, r3, #276	; 0x114
100003d6:	2263      	movs	r2, #99	; 0x63
100003d8:	f8c3 20e4 	str.w	r2, [r3, #228]	; 0xe4
	RCC_OscInitStruct.PLL4.PLLP = 6;
100003dc:	f507 73a4 	add.w	r3, r7, #328	; 0x148
100003e0:	f5a3 738a 	sub.w	r3, r3, #276	; 0x114
100003e4:	2206      	movs	r2, #6
100003e6:	f8c3 20e8 	str.w	r2, [r3, #232]	; 0xe8
	RCC_OscInitStruct.PLL4.PLLQ = 8;
100003ea:	f507 73a4 	add.w	r3, r7, #328	; 0x148
100003ee:	f5a3 738a 	sub.w	r3, r3, #276	; 0x114
100003f2:	2208      	movs	r2, #8
100003f4:	f8c3 20ec 	str.w	r2, [r3, #236]	; 0xec
	RCC_OscInitStruct.PLL4.PLLR = 8;
100003f8:	f507 73a4 	add.w	r3, r7, #328	; 0x148
100003fc:	f5a3 738a 	sub.w	r3, r3, #276	; 0x114
10000400:	2208      	movs	r2, #8
10000402:	f8c3 20f0 	str.w	r2, [r3, #240]	; 0xf0
	RCC_OscInitStruct.PLL4.PLLRGE = RCC_PLL4IFRANGE_0;
10000406:	f507 73a4 	add.w	r3, r7, #328	; 0x148
1000040a:	f5a3 738a 	sub.w	r3, r3, #276	; 0x114
1000040e:	2200      	movs	r2, #0
10000410:	f8c3 20f4 	str.w	r2, [r3, #244]	; 0xf4
	RCC_OscInitStruct.PLL4.PLLFRACV = 0;
10000414:	f507 73a4 	add.w	r3, r7, #328	; 0x148
10000418:	f5a3 738a 	sub.w	r3, r3, #276	; 0x114
1000041c:	2200      	movs	r2, #0
1000041e:	f8c3 20f8 	str.w	r2, [r3, #248]	; 0xf8
	RCC_OscInitStruct.PLL4.PLLMODE = RCC_PLL_INTEGER;
10000422:	f507 73a4 	add.w	r3, r7, #328	; 0x148
10000426:	f5a3 738a 	sub.w	r3, r3, #276	; 0x114
1000042a:	2200      	movs	r2, #0
1000042c:	f8c3 20fc 	str.w	r2, [r3, #252]	; 0xfc
	if (HAL_RCC_OscConfig(&RCC_OscInitStruct) != HAL_OK)
10000430:	f107 0334 	add.w	r3, r7, #52	; 0x34
10000434:	4618      	mov	r0, r3
10000436:	f002 f853 	bl	100024e0 <HAL_RCC_OscConfig>
1000043a:	4603      	mov	r3, r0
1000043c:	2b00      	cmp	r3, #0
1000043e:	d001      	beq.n	10000444 <SystemClock_Config+0x250>
	{
		Error_Handler();
10000440:	f000 f9df 	bl	10000802 <Error_Handler>
	}

	/** RCC Clock Config
	 */
	RCC_ClkInitStruct.ClockType = RCC_CLOCKTYPE_HCLK|RCC_CLOCKTYPE_ACLK
10000444:	f507 73a4 	add.w	r3, r7, #328	; 0x148
10000448:	f5a3 73a2 	sub.w	r3, r3, #324	; 0x144
1000044c:	22fe      	movs	r2, #254	; 0xfe
1000044e:	601a      	str	r2, [r3, #0]
			|RCC_CLOCKTYPE_PCLK1|RCC_CLOCKTYPE_PCLK2
			|RCC_CLOCKTYPE_PCLK3|RCC_CLOCKTYPE_PCLK4
			|RCC_CLOCKTYPE_PCLK5;
	RCC_ClkInitStruct.AXISSInit.AXI_Clock = RCC_AXISSOURCE_PLL2;
10000450:	f507 73a4 	add.w	r3, r7, #328	; 0x148
10000454:	f5a3 73a2 	sub.w	r3, r3, #324	; 0x144
10000458:	2202      	movs	r2, #2
1000045a:	60da      	str	r2, [r3, #12]
	RCC_ClkInitStruct.AXISSInit.AXI_Div = RCC_AXI_DIV1;
1000045c:	f507 73a4 	add.w	r3, r7, #328	; 0x148
10000460:	f5a3 73a2 	sub.w	r3, r3, #324	; 0x144
10000464:	2200      	movs	r2, #0
10000466:	611a      	str	r2, [r3, #16]
	RCC_ClkInitStruct.MCUInit.MCU_Clock = RCC_MCUSSOURCE_PLL3;
10000468:	f507 73a4 	add.w	r3, r7, #328	; 0x148
1000046c:	f5a3 73a2 	sub.w	r3, r3, #324	; 0x144
10000470:	2203      	movs	r2, #3
10000472:	615a      	str	r2, [r3, #20]
	RCC_ClkInitStruct.MCUInit.MCU_Div = RCC_MCU_DIV1;
10000474:	f507 73a4 	add.w	r3, r7, #328	; 0x148
10000478:	f5a3 73a2 	sub.w	r3, r3, #324	; 0x144
1000047c:	2200      	movs	r2, #0
1000047e:	619a      	str	r2, [r3, #24]
	RCC_ClkInitStruct.APB4_Div = RCC_APB4_DIV2;
10000480:	f507 73a4 	add.w	r3, r7, #328	; 0x148
10000484:	f5a3 73a2 	sub.w	r3, r3, #324	; 0x144
10000488:	2201      	movs	r2, #1
1000048a:	61da      	str	r2, [r3, #28]
	RCC_ClkInitStruct.APB5_Div = RCC_APB5_DIV4;
1000048c:	f507 73a4 	add.w	r3, r7, #328	; 0x148
10000490:	f5a3 73a2 	sub.w	r3, r3, #324	; 0x144
10000494:	2202      	movs	r2, #2
10000496:	621a      	str	r2, [r3, #32]
	RCC_ClkInitStruct.APB1_Div = RCC_APB1_DIV2;
10000498:	f507 73a4 	add.w	r3, r7, #328	; 0x148
1000049c:	f5a3 73a2 	sub.w	r3, r3, #324	; 0x144
100004a0:	2201      	movs	r2, #1
100004a2:	625a      	str	r2, [r3, #36]	; 0x24
	RCC_ClkInitStruct.APB2_Div = RCC_APB2_DIV2;
100004a4:	f507 73a4 	add.w	r3, r7, #328	; 0x148
100004a8:	f5a3 73a2 	sub.w	r3, r3, #324	; 0x144
100004ac:	2201      	movs	r2, #1
100004ae:	629a      	str	r2, [r3, #40]	; 0x28
	RCC_ClkInitStruct.APB3_Div = RCC_APB3_DIV2;
100004b0:	f507 73a4 	add.w	r3, r7, #328	; 0x148
100004b4:	f5a3 73a2 	sub.w	r3, r3, #324	; 0x144
100004b8:	2201      	movs	r2, #1
100004ba:	62da      	str	r2, [r3, #44]	; 0x2c

	if (HAL_RCC_ClockConfig(&RCC_ClkInitStruct) != HAL_OK)
100004bc:	1d3b      	adds	r3, r7, #4
100004be:	4618      	mov	r0, r3
100004c0:	f002 fdac 	bl	1000301c <HAL_RCC_ClockConfig>
100004c4:	4603      	mov	r3, r0
100004c6:	2b00      	cmp	r3, #0
100004c8:	d001      	beq.n	100004ce <SystemClock_Config+0x2da>
	{
		Error_Handler();
100004ca:	f000 f99a 	bl	10000802 <Error_Handler>
	}

	/** Set the HSE division factor for RTC clock
	 */
	__HAL_RCC_RTC_HSEDIV(24);
100004ce:	f04f 43a0 	mov.w	r3, #1342177280	; 0x50000000
100004d2:	6c5b      	ldr	r3, [r3, #68]	; 0x44
100004d4:	f023 033f 	bic.w	r3, r3, #63	; 0x3f
100004d8:	f04f 42a0 	mov.w	r2, #1342177280	; 0x50000000
100004dc:	f043 0317 	orr.w	r3, r3, #23
100004e0:	6453      	str	r3, [r2, #68]	; 0x44
}
100004e2:	bf00      	nop
100004e4:	f507 77a4 	add.w	r7, r7, #328	; 0x148
100004e8:	46bd      	mov	sp, r7
100004ea:	bd80      	pop	{r7, pc}

100004ec <PeriphCommonClock_Config>:
/**
 * @brief Peripherals Common Clock Configuration
 * @retval None
 */
void PeriphCommonClock_Config(void)
{
100004ec:	b580      	push	{r7, lr}
100004ee:	b0d6      	sub	sp, #344	; 0x158
100004f0:	af00      	add	r7, sp, #0
	RCC_PeriphCLKInitTypeDef PeriphClkInit = {0};
100004f2:	f507 73ac 	add.w	r3, r7, #344	; 0x158
100004f6:	f5a3 73ac 	sub.w	r3, r3, #344	; 0x158
100004fa:	4618      	mov	r0, r3
100004fc:	f44f 73ac 	mov.w	r3, #344	; 0x158
10000500:	461a      	mov	r2, r3
10000502:	2100      	movs	r1, #0
10000504:	f00c f818 	bl	1000c538 <memset>

	/** Initializes the common periph clock
	 */
	PeriphClkInit.PeriphClockSelection = RCC_PERIPHCLK_CKPER;
10000508:	f507 73ac 	add.w	r3, r7, #344	; 0x158
1000050c:	f5a3 71ac 	sub.w	r1, r3, #344	; 0x158
10000510:	f44f 0200 	mov.w	r2, #8388608	; 0x800000
10000514:	f04f 0300 	mov.w	r3, #0
10000518:	e9c1 2300 	strd	r2, r3, [r1]
	PeriphClkInit.CkperClockSelection = RCC_CKPERCLKSOURCE_HSE;
1000051c:	f507 73ac 	add.w	r3, r7, #344	; 0x158
10000520:	f5a3 73ac 	sub.w	r3, r3, #344	; 0x158
10000524:	2202      	movs	r2, #2
10000526:	f8c3 2114 	str.w	r2, [r3, #276]	; 0x114
	if (HAL_RCCEx_PeriphCLKConfig(&PeriphClkInit) != HAL_OK)
1000052a:	463b      	mov	r3, r7
1000052c:	4618      	mov	r0, r3
1000052e:	f003 fe6f 	bl	10004210 <HAL_RCCEx_PeriphCLKConfig>
10000532:	4603      	mov	r3, r0
10000534:	2b00      	cmp	r3, #0
10000536:	d001      	beq.n	1000053c <PeriphCommonClock_Config+0x50>
	{
		Error_Handler();
10000538:	f000 f963 	bl	10000802 <Error_Handler>
	}
}
1000053c:	bf00      	nop
1000053e:	f507 77ac 	add.w	r7, r7, #344	; 0x158
10000542:	46bd      	mov	sp, r7
10000544:	bd80      	pop	{r7, pc}
	...

10000548 <MX_IPCC_Init>:
 * @brief IPCC Initialization Function
 * @param None
 * @retval None
 */
static void MX_IPCC_Init(void)
{
10000548:	b580      	push	{r7, lr}
1000054a:	af00      	add	r7, sp, #0
	/* USER CODE END IPCC_Init 0 */

	/* USER CODE BEGIN IPCC_Init 1 */

	/* USER CODE END IPCC_Init 1 */
	hipcc.Instance = IPCC;
1000054c:	4b06      	ldr	r3, [pc, #24]	; (10000568 <MX_IPCC_Init+0x20>)
1000054e:	4a07      	ldr	r2, [pc, #28]	; (1000056c <MX_IPCC_Init+0x24>)
10000550:	601a      	str	r2, [r3, #0]
	if (HAL_IPCC_Init(&hipcc) != HAL_OK)
10000552:	4805      	ldr	r0, [pc, #20]	; (10000568 <MX_IPCC_Init+0x20>)
10000554:	f001 fd9e 	bl	10002094 <HAL_IPCC_Init>
10000558:	4603      	mov	r3, r0
1000055a:	2b00      	cmp	r3, #0
1000055c:	d001      	beq.n	10000562 <MX_IPCC_Init+0x1a>
	{
		Error_Handler();
1000055e:	f000 f950 	bl	10000802 <Error_Handler>
	}
	/* USER CODE BEGIN IPCC_Init 2 */

	/* USER CODE END IPCC_Init 2 */

}
10000562:	bf00      	nop
10000564:	bd80      	pop	{r7, pc}
10000566:	bf00      	nop
10000568:	100201d8 	.word	0x100201d8
1000056c:	4c001000 	.word	0x4c001000

10000570 <MX_DMA_Init>:
 * Enable DMA controller clock
 * Configure DMA for memory to memory transfers
 *   hdma_memtomem_dma2_stream1
 */
static void MX_DMA_Init(void)
{
10000570:	b580      	push	{r7, lr}
10000572:	af00      	add	r7, sp, #0

	/* DMA controller clock enable */
	__HAL_RCC_DMAMUX_CLK_ENABLE();
10000574:	f04f 43a0 	mov.w	r3, #1342177280	; 0x50000000
10000578:	2204      	movs	r2, #4
1000057a:	f8c3 2a98 	str.w	r2, [r3, #2712]	; 0xa98
	__HAL_RCC_DMA2_CLK_ENABLE();
1000057e:	f04f 43a0 	mov.w	r3, #1342177280	; 0x50000000
10000582:	2202      	movs	r2, #2
10000584:	f8c3 2a98 	str.w	r2, [r3, #2712]	; 0xa98

	/* Configure DMA request hdma_memtomem_dma2_stream1 on DMA2_Stream1 */
	hdma_memtomem_dma2_stream1.Instance = DMA2_Stream1;
10000588:	4b1f      	ldr	r3, [pc, #124]	; (10000608 <MX_DMA_Init+0x98>)
1000058a:	4a20      	ldr	r2, [pc, #128]	; (1000060c <MX_DMA_Init+0x9c>)
1000058c:	601a      	str	r2, [r3, #0]
	hdma_memtomem_dma2_stream1.Init.Request = DMA_REQUEST_MEM2MEM;
1000058e:	4b1e      	ldr	r3, [pc, #120]	; (10000608 <MX_DMA_Init+0x98>)
10000590:	2200      	movs	r2, #0
10000592:	605a      	str	r2, [r3, #4]
	hdma_memtomem_dma2_stream1.Init.Direction = DMA_MEMORY_TO_MEMORY;
10000594:	4b1c      	ldr	r3, [pc, #112]	; (10000608 <MX_DMA_Init+0x98>)
10000596:	2280      	movs	r2, #128	; 0x80
10000598:	609a      	str	r2, [r3, #8]
	hdma_memtomem_dma2_stream1.Init.PeriphInc = DMA_PINC_ENABLE;
1000059a:	4b1b      	ldr	r3, [pc, #108]	; (10000608 <MX_DMA_Init+0x98>)
1000059c:	f44f 7200 	mov.w	r2, #512	; 0x200
100005a0:	60da      	str	r2, [r3, #12]
	hdma_memtomem_dma2_stream1.Init.MemInc = DMA_MINC_ENABLE;
100005a2:	4b19      	ldr	r3, [pc, #100]	; (10000608 <MX_DMA_Init+0x98>)
100005a4:	f44f 6280 	mov.w	r2, #1024	; 0x400
100005a8:	611a      	str	r2, [r3, #16]
	hdma_memtomem_dma2_stream1.Init.PeriphDataAlignment = DMA_PDATAALIGN_WORD;
100005aa:	4b17      	ldr	r3, [pc, #92]	; (10000608 <MX_DMA_Init+0x98>)
100005ac:	f44f 5280 	mov.w	r2, #4096	; 0x1000
100005b0:	615a      	str	r2, [r3, #20]
	hdma_memtomem_dma2_stream1.Init.MemDataAlignment = DMA_MDATAALIGN_WORD;
100005b2:	4b15      	ldr	r3, [pc, #84]	; (10000608 <MX_DMA_Init+0x98>)
100005b4:	f44f 4280 	mov.w	r2, #16384	; 0x4000
100005b8:	619a      	str	r2, [r3, #24]
	hdma_memtomem_dma2_stream1.Init.Mode = DMA_NORMAL;
100005ba:	4b13      	ldr	r3, [pc, #76]	; (10000608 <MX_DMA_Init+0x98>)
100005bc:	2200      	movs	r2, #0
100005be:	61da      	str	r2, [r3, #28]
	hdma_memtomem_dma2_stream1.Init.Priority = DMA_PRIORITY_LOW;
100005c0:	4b11      	ldr	r3, [pc, #68]	; (10000608 <MX_DMA_Init+0x98>)
100005c2:	2200      	movs	r2, #0
100005c4:	621a      	str	r2, [r3, #32]
	hdma_memtomem_dma2_stream1.Init.FIFOMode = DMA_FIFOMODE_ENABLE;
100005c6:	4b10      	ldr	r3, [pc, #64]	; (10000608 <MX_DMA_Init+0x98>)
100005c8:	2204      	movs	r2, #4
100005ca:	625a      	str	r2, [r3, #36]	; 0x24
	hdma_memtomem_dma2_stream1.Init.FIFOThreshold = DMA_FIFO_THRESHOLD_FULL;
100005cc:	4b0e      	ldr	r3, [pc, #56]	; (10000608 <MX_DMA_Init+0x98>)
100005ce:	2203      	movs	r2, #3
100005d0:	629a      	str	r2, [r3, #40]	; 0x28
	hdma_memtomem_dma2_stream1.Init.MemBurst = DMA_MBURST_INC4;
100005d2:	4b0d      	ldr	r3, [pc, #52]	; (10000608 <MX_DMA_Init+0x98>)
100005d4:	f44f 0200 	mov.w	r2, #8388608	; 0x800000
100005d8:	62da      	str	r2, [r3, #44]	; 0x2c
	hdma_memtomem_dma2_stream1.Init.PeriphBurst = DMA_PBURST_INC4;
100005da:	4b0b      	ldr	r3, [pc, #44]	; (10000608 <MX_DMA_Init+0x98>)
100005dc:	f44f 1200 	mov.w	r2, #2097152	; 0x200000
100005e0:	631a      	str	r2, [r3, #48]	; 0x30
	if (HAL_DMA_Init(&hdma_memtomem_dma2_stream1) != HAL_OK)
100005e2:	4809      	ldr	r0, [pc, #36]	; (10000608 <MX_DMA_Init+0x98>)
100005e4:	f000 ffbc 	bl	10001560 <HAL_DMA_Init>
100005e8:	4603      	mov	r3, r0
100005ea:	2b00      	cmp	r3, #0
100005ec:	d001      	beq.n	100005f2 <MX_DMA_Init+0x82>
	{
		Error_Handler( );
100005ee:	f000 f908 	bl	10000802 <Error_Handler>
	}

	/* DMA interrupt init */
	/* DMA2_Stream1_IRQn interrupt configuration */
	HAL_NVIC_SetPriority(DMA2_Stream1_IRQn, 5, 0);
100005f2:	2200      	movs	r2, #0
100005f4:	2105      	movs	r1, #5
100005f6:	2039      	movs	r0, #57	; 0x39
100005f8:	f000 ff7a 	bl	100014f0 <HAL_NVIC_SetPriority>
	HAL_NVIC_EnableIRQ(DMA2_Stream1_IRQn);
100005fc:	2039      	movs	r0, #57	; 0x39
100005fe:	f000 ff93 	bl	10001528 <HAL_NVIC_EnableIRQ>

}
10000602:	bf00      	nop
10000604:	bd80      	pop	{r7, pc}
10000606:	bf00      	nop
10000608:	10020214 	.word	0x10020214
1000060c:	48001028 	.word	0x48001028

10000610 <MX_GPIO_Init>:
 * @brief GPIO Initialization Function
 * @param None
 * @retval None
 */
static void MX_GPIO_Init(void)
{
10000610:	b580      	push	{r7, lr}
10000612:	b086      	sub	sp, #24
10000614:	af00      	add	r7, sp, #0
	GPIO_InitTypeDef GPIO_InitStruct = {0};
10000616:	1d3b      	adds	r3, r7, #4
10000618:	2200      	movs	r2, #0
1000061a:	601a      	str	r2, [r3, #0]
1000061c:	605a      	str	r2, [r3, #4]
1000061e:	609a      	str	r2, [r3, #8]
10000620:	60da      	str	r2, [r3, #12]
10000622:	611a      	str	r2, [r3, #16]

	/* GPIO Ports Clock Enable */
	__HAL_RCC_GPIOC_CLK_ENABLE();
10000624:	f04f 43a0 	mov.w	r3, #1342177280	; 0x50000000
10000628:	2204      	movs	r2, #4
1000062a:	f8c3 2aa8 	str.w	r2, [r3, #2728]	; 0xaa8
	__HAL_RCC_GPIOA_CLK_ENABLE();
1000062e:	f04f 43a0 	mov.w	r3, #1342177280	; 0x50000000
10000632:	2201      	movs	r2, #1
10000634:	f8c3 2aa8 	str.w	r2, [r3, #2728]	; 0xaa8
	__HAL_RCC_GPIOH_CLK_ENABLE();
10000638:	f04f 43a0 	mov.w	r3, #1342177280	; 0x50000000
1000063c:	2280      	movs	r2, #128	; 0x80
1000063e:	f8c3 2aa8 	str.w	r2, [r3, #2728]	; 0xaa8

	/*Configure GPIO pin Output Level */
	HAL_GPIO_WritePin(PA13_GPIO_Port, PA13_Pin, GPIO_PIN_RESET);
10000642:	2200      	movs	r2, #0
10000644:	f44f 5100 	mov.w	r1, #8192	; 0x2000
10000648:	4819      	ldr	r0, [pc, #100]	; (100006b0 <MX_GPIO_Init+0xa0>)
1000064a:	f001 fcf1 	bl	10002030 <HAL_GPIO_WritePin>

	/*Configure GPIO pin Output Level */
	HAL_GPIO_WritePin(PH7_GPIO_Port, PH7_Pin, GPIO_PIN_RESET);
1000064e:	2200      	movs	r2, #0
10000650:	2180      	movs	r1, #128	; 0x80
10000652:	4818      	ldr	r0, [pc, #96]	; (100006b4 <MX_GPIO_Init+0xa4>)
10000654:	f001 fcec 	bl	10002030 <HAL_GPIO_WritePin>

	/*Configure GPIO pin : PA13_Pin */
	GPIO_InitStruct.Pin = PA13_Pin;
10000658:	f44f 5300 	mov.w	r3, #8192	; 0x2000
1000065c:	607b      	str	r3, [r7, #4]
	GPIO_InitStruct.Mode = GPIO_MODE_OUTPUT_PP;
1000065e:	2301      	movs	r3, #1
10000660:	60bb      	str	r3, [r7, #8]
	GPIO_InitStruct.Pull = GPIO_NOPULL;
10000662:	2300      	movs	r3, #0
10000664:	60fb      	str	r3, [r7, #12]
	GPIO_InitStruct.Speed = GPIO_SPEED_FREQ_LOW;
10000666:	2300      	movs	r3, #0
10000668:	613b      	str	r3, [r7, #16]
	HAL_GPIO_Init(PA13_GPIO_Port, &GPIO_InitStruct);
1000066a:	1d3b      	adds	r3, r7, #4
1000066c:	4619      	mov	r1, r3
1000066e:	4810      	ldr	r0, [pc, #64]	; (100006b0 <MX_GPIO_Init+0xa0>)
10000670:	f001 fb34 	bl	10001cdc <HAL_GPIO_Init>

	/*Configure GPIO pin : PA14_Pin */
	GPIO_InitStruct.Pin = PA14_Pin;
10000674:	f44f 4380 	mov.w	r3, #16384	; 0x4000
10000678:	607b      	str	r3, [r7, #4]
	GPIO_InitStruct.Mode = GPIO_MODE_INPUT;
1000067a:	2300      	movs	r3, #0
1000067c:	60bb      	str	r3, [r7, #8]
	GPIO_InitStruct.Pull = GPIO_NOPULL;
1000067e:	2300      	movs	r3, #0
10000680:	60fb      	str	r3, [r7, #12]
	HAL_GPIO_Init(PA14_GPIO_Port, &GPIO_InitStruct);
10000682:	1d3b      	adds	r3, r7, #4
10000684:	4619      	mov	r1, r3
10000686:	480a      	ldr	r0, [pc, #40]	; (100006b0 <MX_GPIO_Init+0xa0>)
10000688:	f001 fb28 	bl	10001cdc <HAL_GPIO_Init>

	/*Configure GPIO pin : PH7_Pin */
	GPIO_InitStruct.Pin = PH7_Pin;
1000068c:	2380      	movs	r3, #128	; 0x80
1000068e:	607b      	str	r3, [r7, #4]
	GPIO_InitStruct.Mode = GPIO_MODE_OUTPUT_PP;
10000690:	2301      	movs	r3, #1
10000692:	60bb      	str	r3, [r7, #8]
	GPIO_InitStruct.Pull = GPIO_NOPULL;
10000694:	2300      	movs	r3, #0
10000696:	60fb      	str	r3, [r7, #12]
	GPIO_InitStruct.Speed = GPIO_SPEED_FREQ_LOW;
10000698:	2300      	movs	r3, #0
1000069a:	613b      	str	r3, [r7, #16]
	HAL_GPIO_Init(PH7_GPIO_Port, &GPIO_InitStruct);
1000069c:	1d3b      	adds	r3, r7, #4
1000069e:	4619      	mov	r1, r3
100006a0:	4804      	ldr	r0, [pc, #16]	; (100006b4 <MX_GPIO_Init+0xa4>)
100006a2:	f001 fb1b 	bl	10001cdc <HAL_GPIO_Init>

}
100006a6:	bf00      	nop
100006a8:	3718      	adds	r7, #24
100006aa:	46bd      	mov	sp, r7
100006ac:	bd80      	pop	{r7, pc}
100006ae:	bf00      	nop
100006b0:	50002000 	.word	0x50002000
100006b4:	50009000 	.word	0x50009000

100006b8 <StartTaskOpenamp>:
 * @param  argument: Not used
 * @retval None
 */
/* USER CODE END Header_StartTaskOpenamp */
void StartTaskOpenamp(void *argument)
{
100006b8:	b580      	push	{r7, lr}
100006ba:	b082      	sub	sp, #8
100006bc:	af00      	add	r7, sp, #0
100006be:	6078      	str	r0, [r7, #4]
	/* USER CODE BEGIN 5 */
	/* Infinite loop */
	HAL_GPIO_WritePin(GPIOA, GPIO_PIN_13, 0);
100006c0:	2200      	movs	r2, #0
100006c2:	f44f 5100 	mov.w	r1, #8192	; 0x2000
100006c6:	4819      	ldr	r0, [pc, #100]	; (1000072c <StartTaskOpenamp+0x74>)
100006c8:	f001 fcb2 	bl	10002030 <HAL_GPIO_WritePin>
	MX_OPENAMP_Init(RPMSG_REMOTE, NULL);
100006cc:	2100      	movs	r1, #0
100006ce:	2001      	movs	r0, #1
100006d0:	f00b fdf8 	bl	1000c2c4 <MX_OPENAMP_Init>
	User_VIRT_UART_Init();
100006d4:	f000 fb38 	bl	10000d48 <User_VIRT_UART_Init>
	osThreadFlagsSet(TaskDDRHandle, 0x0001U);
100006d8:	4b15      	ldr	r3, [pc, #84]	; (10000730 <StartTaskOpenamp+0x78>)
100006da:	681b      	ldr	r3, [r3, #0]
100006dc:	2101      	movs	r1, #1
100006de:	4618      	mov	r0, r3
100006e0:	f005 ffa0 	bl	10006624 <osThreadFlagsSet>
	//User_HDR_Init();
	OpenAmpIsInit = true;
100006e4:	4b13      	ldr	r3, [pc, #76]	; (10000734 <StartTaskOpenamp+0x7c>)
100006e6:	2201      	movs	r2, #1
100006e8:	701a      	strb	r2, [r3, #0]
	HAL_GPIO_WritePin(GPIOA, GPIO_PIN_13, 1);
100006ea:	2201      	movs	r2, #1
100006ec:	f44f 5100 	mov.w	r1, #8192	; 0x2000
100006f0:	480e      	ldr	r0, [pc, #56]	; (1000072c <StartTaskOpenamp+0x74>)
100006f2:	f001 fc9d 	bl	10002030 <HAL_GPIO_WritePin>
	/* Infinite loop */
	for(;;)
	{
		if(OpenAmpIsInit){
100006f6:	4b0f      	ldr	r3, [pc, #60]	; (10000734 <StartTaskOpenamp+0x7c>)
100006f8:	781b      	ldrb	r3, [r3, #0]
100006fa:	2b00      	cmp	r3, #0
100006fc:	d0fb      	beq.n	100006f6 <StartTaskOpenamp+0x3e>
			OpenampCycle++;
100006fe:	4b0e      	ldr	r3, [pc, #56]	; (10000738 <StartTaskOpenamp+0x80>)
10000700:	681b      	ldr	r3, [r3, #0]
10000702:	3301      	adds	r3, #1
10000704:	4a0c      	ldr	r2, [pc, #48]	; (10000738 <StartTaskOpenamp+0x80>)
10000706:	6013      	str	r3, [r2, #0]
			OPENAMP_check_for_message();
10000708:	f00b fe8e 	bl	1000c428 <OPENAMP_check_for_message>

			if (VirtUart0RxMsg) {
1000070c:	4b0b      	ldr	r3, [pc, #44]	; (1000073c <StartTaskOpenamp+0x84>)
1000070e:	781b      	ldrb	r3, [r3, #0]
10000710:	b2db      	uxtb	r3, r3
10000712:	2b00      	cmp	r3, #0
10000714:	d001      	beq.n	1000071a <StartTaskOpenamp+0x62>
				User_VIRT_UART0_Treatment();
10000716:	f000 fb33 	bl	10000d80 <User_VIRT_UART0_Treatment>
			}

			if (VirtUart1RxMsg) {
1000071a:	4b09      	ldr	r3, [pc, #36]	; (10000740 <StartTaskOpenamp+0x88>)
1000071c:	781b      	ldrb	r3, [r3, #0]
1000071e:	b2db      	uxtb	r3, r3
10000720:	2b00      	cmp	r3, #0
10000722:	d0e8      	beq.n	100006f6 <StartTaskOpenamp+0x3e>
				User_VIRT_UART1_Treatment();
10000724:	f000 fb42 	bl	10000dac <User_VIRT_UART1_Treatment>
		if(OpenAmpIsInit){
10000728:	e7e5      	b.n	100006f6 <StartTaskOpenamp+0x3e>
1000072a:	bf00      	nop
1000072c:	50002000 	.word	0x50002000
10000730:	10020294 	.word	0x10020294
10000734:	10020370 	.word	0x10020370
10000738:	1002029c 	.word	0x1002029c
1000073c:	10020414 	.word	0x10020414
10000740:	1002061a 	.word	0x1002061a

10000744 <StartTaskHeartBeats>:
 * @param argument: Not used
 * @retval None
 */
/* USER CODE END Header_StartTaskHeartBeats */
void StartTaskHeartBeats(void *argument)
{
10000744:	b580      	push	{r7, lr}
10000746:	b082      	sub	sp, #8
10000748:	af00      	add	r7, sp, #0
1000074a:	6078      	str	r0, [r7, #4]
	/* USER CODE BEGIN StartTaskHeartBeats */
	static int toggleTimer=0;
	HAL_GPIO_WritePin(GPIOH, GPIO_PIN_7,1);
1000074c:	2201      	movs	r2, #1
1000074e:	2180      	movs	r1, #128	; 0x80
10000750:	480e      	ldr	r0, [pc, #56]	; (1000078c <StartTaskHeartBeats+0x48>)
10000752:	f001 fc6d 	bl	10002030 <HAL_GPIO_WritePin>
	/* Infinite loop */
	for(;;)
	{
		osDelay(10);
10000756:	200a      	movs	r0, #10
10000758:	f006 f858 	bl	1000680c <osDelay>
		msTime = xTaskGetTickCount(); //HAL_GetTick();
1000075c:	f007 fefa 	bl	10008554 <xTaskGetTickCount>
10000760:	4603      	mov	r3, r0
10000762:	4a0b      	ldr	r2, [pc, #44]	; (10000790 <StartTaskHeartBeats+0x4c>)
10000764:	6013      	str	r3, [r2, #0]
		toggleTimer+=10;
10000766:	4b0b      	ldr	r3, [pc, #44]	; (10000794 <StartTaskHeartBeats+0x50>)
10000768:	681b      	ldr	r3, [r3, #0]
1000076a:	330a      	adds	r3, #10
1000076c:	4a09      	ldr	r2, [pc, #36]	; (10000794 <StartTaskHeartBeats+0x50>)
1000076e:	6013      	str	r3, [r2, #0]
		if(toggleTimer>=500){
10000770:	4b08      	ldr	r3, [pc, #32]	; (10000794 <StartTaskHeartBeats+0x50>)
10000772:	681b      	ldr	r3, [r3, #0]
10000774:	f5b3 7ffa 	cmp.w	r3, #500	; 0x1f4
10000778:	dbed      	blt.n	10000756 <StartTaskHeartBeats+0x12>
			HAL_GPIO_TogglePin(GPIOH, GPIO_PIN_7);
1000077a:	2180      	movs	r1, #128	; 0x80
1000077c:	4803      	ldr	r0, [pc, #12]	; (1000078c <StartTaskHeartBeats+0x48>)
1000077e:	f001 fc70 	bl	10002062 <HAL_GPIO_TogglePin>
			toggleTimer=0;
10000782:	4b04      	ldr	r3, [pc, #16]	; (10000794 <StartTaskHeartBeats+0x50>)
10000784:	2200      	movs	r2, #0
10000786:	601a      	str	r2, [r3, #0]
		osDelay(10);
10000788:	e7e5      	b.n	10000756 <StartTaskHeartBeats+0x12>
1000078a:	bf00      	nop
1000078c:	50009000 	.word	0x50009000
10000790:	10020298 	.word	0x10020298
10000794:	100202a4 	.word	0x100202a4

10000798 <StartTaskDDR>:
 * @param argument: Not used
 * @retval None
 */
/* USER CODE END Header_StartTaskDDR */
void StartTaskDDR(void *argument)
{
10000798:	b580      	push	{r7, lr}
1000079a:	b082      	sub	sp, #8
1000079c:	af00      	add	r7, sp, #0
1000079e:	6078      	str	r0, [r7, #4]
	/* USER CODE BEGIN StartTaskDDR */
	osThreadFlagsWait(0x0001U, osFlagsWaitAny, osWaitForever);
100007a0:	f04f 32ff 	mov.w	r2, #4294967295
100007a4:	2100      	movs	r1, #0
100007a6:	2001      	movs	r0, #1
100007a8:	f005 ff9c 	bl	100066e4 <osThreadFlagsWait>
	User_HDR_Init();
100007ac:	f000 fc04 	bl	10000fb8 <User_HDR_Init>
	//static int bufferid = 1;
	/* Infinite loop */
	for(;;)
	{
		//    osDelay(1000);
		ddrCycle++;
100007b0:	4b0a      	ldr	r3, [pc, #40]	; (100007dc <StartTaskDDR+0x44>)
100007b2:	681b      	ldr	r3, [r3, #0]
100007b4:	3301      	adds	r3, #1
100007b6:	4a09      	ldr	r2, [pc, #36]	; (100007dc <StartTaskDDR+0x44>)
100007b8:	6013      	str	r3, [r2, #0]

	   if( get_DDR_isInit() && (SDB0RxMsg == SET) ){
100007ba:	f000 fd55 	bl	10001268 <get_DDR_isInit>
100007be:	4603      	mov	r3, r0
100007c0:	2b00      	cmp	r3, #0
100007c2:	d0f5      	beq.n	100007b0 <StartTaskDDR+0x18>
100007c4:	4b06      	ldr	r3, [pc, #24]	; (100007e0 <StartTaskDDR+0x48>)
100007c6:	781b      	ldrb	r3, [r3, #0]
100007c8:	b2db      	uxtb	r3, r3
100007ca:	2b01      	cmp	r3, #1
100007cc:	d1f0      	bne.n	100007b0 <StartTaskDDR+0x18>
		   User_SDB0_echo();
100007ce:	f000 fccb 	bl	10001168 <User_SDB0_echo>
		   //User_SDB0_bandwidth();
	       SDB0RxMsg = RESET;
100007d2:	4b03      	ldr	r3, [pc, #12]	; (100007e0 <StartTaskDDR+0x48>)
100007d4:	2200      	movs	r2, #0
100007d6:	701a      	strb	r2, [r3, #0]
		ddrCycle++;
100007d8:	e7ea      	b.n	100007b0 <StartTaskDDR+0x18>
100007da:	bf00      	nop
100007dc:	100202a0 	.word	0x100202a0
100007e0:	10020afc 	.word	0x10020afc

100007e4 <HAL_TIM_PeriodElapsedCallback>:
 * a global variable "uwTick" used as application time base.
 * @param  htim : TIM handle
 * @retval None
 */
void HAL_TIM_PeriodElapsedCallback(TIM_HandleTypeDef *htim)
{
100007e4:	b580      	push	{r7, lr}
100007e6:	b082      	sub	sp, #8
100007e8:	af00      	add	r7, sp, #0
100007ea:	6078      	str	r0, [r7, #4]
	/* USER CODE BEGIN Callback 0 */

	/* USER CODE END Callback 0 */
	if (htim->Instance == TIM6) {
100007ec:	687b      	ldr	r3, [r7, #4]
100007ee:	681b      	ldr	r3, [r3, #0]
100007f0:	f1b3 2f40 	cmp.w	r3, #1073758208	; 0x40004000
100007f4:	d101      	bne.n	100007fa <HAL_TIM_PeriodElapsedCallback+0x16>
		HAL_IncTick();
100007f6:	f000 fd7f 	bl	100012f8 <HAL_IncTick>
	}
	/* USER CODE BEGIN Callback 1 */

	/* USER CODE END Callback 1 */
}
100007fa:	bf00      	nop
100007fc:	3708      	adds	r7, #8
100007fe:	46bd      	mov	sp, r7
10000800:	bd80      	pop	{r7, pc}

10000802 <Error_Handler>:
/**
 * @brief  This function is executed in case of error occurrence.
 * @retval None
 */
void Error_Handler(void)
{
10000802:	b480      	push	{r7}
10000804:	af00      	add	r7, sp, #0
  \details Disables IRQ interrupts by setting the I-bit in the CPSR.
           Can only be executed in Privileged modes.
 */
__STATIC_FORCEINLINE void __disable_irq(void)
{
  __ASM volatile ("cpsid i" : : : "memory");
10000806:	b672      	cpsid	i
}
10000808:	bf00      	nop
	/* USER CODE BEGIN Error_Handler_Debug */
	/* User can add his own implementation to report the HAL error return state */
	__disable_irq();
	while (1)
1000080a:	e7fe      	b.n	1000080a <Error_Handler+0x8>

1000080c <rpmsg_send>:
 *
 * Returns number of bytes it has sent or negative error value on failure.
 */
static inline int rpmsg_send(struct rpmsg_endpoint *ept, const void *data,
			     int len)
{
1000080c:	b580      	push	{r7, lr}
1000080e:	b086      	sub	sp, #24
10000810:	af02      	add	r7, sp, #8
10000812:	60f8      	str	r0, [r7, #12]
10000814:	60b9      	str	r1, [r7, #8]
10000816:	607a      	str	r2, [r7, #4]
	return rpmsg_send_offchannel_raw(ept, ept->addr, ept->dest_addr, data,
10000818:	68fb      	ldr	r3, [r7, #12]
1000081a:	6a59      	ldr	r1, [r3, #36]	; 0x24
1000081c:	68fb      	ldr	r3, [r7, #12]
1000081e:	6a9a      	ldr	r2, [r3, #40]	; 0x28
10000820:	2301      	movs	r3, #1
10000822:	9301      	str	r3, [sp, #4]
10000824:	687b      	ldr	r3, [r7, #4]
10000826:	9300      	str	r3, [sp, #0]
10000828:	68bb      	ldr	r3, [r7, #8]
1000082a:	68f8      	ldr	r0, [r7, #12]
1000082c:	f00a f992 	bl	1000ab54 <rpmsg_send_offchannel_raw>
10000830:	4603      	mov	r3, r0
					 len, true);
}
10000832:	4618      	mov	r0, r3
10000834:	3710      	adds	r7, #16
10000836:	46bd      	mov	sp, r7
10000838:	bd80      	pop	{r7, pc}

1000083a <RPMSG_HDR_read_cb>:
static RPMSG_HDR_DdrBuffTypeDef mArrayDdrBuff[MAX_DDR_BUFF];  // static array to save DdrBuff @ and size
static uint8_t mArrayDdrBuffCount;

static int RPMSG_HDR_read_cb(struct rpmsg_endpoint *ept, void *data,
			    size_t len, uint32_t src, void *priv)
{
1000083a:	b580      	push	{r7, lr}
1000083c:	b086      	sub	sp, #24
1000083e:	af00      	add	r7, sp, #0
10000840:	60f8      	str	r0, [r7, #12]
10000842:	60b9      	str	r1, [r7, #8]
10000844:	607a      	str	r2, [r7, #4]
10000846:	603b      	str	r3, [r7, #0]
  RPMSG_HDR_HandleTypeDef *hdr = metal_container_of(ept, RPMSG_HDR_HandleTypeDef, ept);
10000848:	68fb      	ldr	r3, [r7, #12]
1000084a:	617b      	str	r3, [r7, #20]
  (void)src;

  hdr->pRxBuffPtr = data;
1000084c:	697b      	ldr	r3, [r7, #20]
1000084e:	68ba      	ldr	r2, [r7, #8]
10000850:	645a      	str	r2, [r3, #68]	; 0x44
  hdr->RxXferSize = len;
10000852:	687b      	ldr	r3, [r7, #4]
10000854:	b29a      	uxth	r2, r3
10000856:	697b      	ldr	r3, [r7, #20]
10000858:	f8a3 2048 	strh.w	r2, [r3, #72]	; 0x48
  if (hdr->RxCpltCallback != NULL) {
1000085c:	697b      	ldr	r3, [r7, #20]
1000085e:	6cdb      	ldr	r3, [r3, #76]	; 0x4c
10000860:	2b00      	cmp	r3, #0
10000862:	d003      	beq.n	1000086c <RPMSG_HDR_read_cb+0x32>
      hdr->RxCpltCallback(hdr);
10000864:	697b      	ldr	r3, [r7, #20]
10000866:	6cdb      	ldr	r3, [r3, #76]	; 0x4c
10000868:	6978      	ldr	r0, [r7, #20]
1000086a:	4798      	blx	r3
  }

  return 0;
1000086c:	2300      	movs	r3, #0
}
1000086e:	4618      	mov	r0, r3
10000870:	3718      	adds	r7, #24
10000872:	46bd      	mov	sp, r7
10000874:	bd80      	pop	{r7, pc}
	...

10000878 <RPMSG_HDR_Init>:

RPMSG_HDR_StatusTypeDef RPMSG_HDR_Init(RPMSG_HDR_HandleTypeDef *hdr)
{
10000878:	b580      	push	{r7, lr}
1000087a:	b086      	sub	sp, #24
1000087c:	af02      	add	r7, sp, #8
1000087e:	6078      	str	r0, [r7, #4]

  int status;

  /* Create a endpoint for rmpsg communication */

  status = OPENAMP_create_endpoint(&hdr->ept, RPMSG_SERVICE_NAME, RPMSG_ADDR_ANY,
10000880:	6878      	ldr	r0, [r7, #4]
10000882:	2300      	movs	r3, #0
10000884:	9300      	str	r3, [sp, #0]
10000886:	4b0c      	ldr	r3, [pc, #48]	; (100008b8 <RPMSG_HDR_Init+0x40>)
10000888:	f04f 32ff 	mov.w	r2, #4294967295
1000088c:	490b      	ldr	r1, [pc, #44]	; (100008bc <RPMSG_HDR_Init+0x44>)
1000088e:	f00b fdad 	bl	1000c3ec <OPENAMP_create_endpoint>
10000892:	60f8      	str	r0, [r7, #12]
          RPMSG_HDR_read_cb, NULL);

  if(status < 0) {
10000894:	68fb      	ldr	r3, [r7, #12]
10000896:	2b00      	cmp	r3, #0
10000898:	da01      	bge.n	1000089e <RPMSG_HDR_Init+0x26>
    return RPMSG_HDR_ERROR;
1000089a:	2301      	movs	r3, #1
1000089c:	e008      	b.n	100008b0 <RPMSG_HDR_Init+0x38>
  }
  mArrayDdrBuffCount  = 0;
1000089e:	4b08      	ldr	r3, [pc, #32]	; (100008c0 <RPMSG_HDR_Init+0x48>)
100008a0:	2200      	movs	r2, #0
100008a2:	701a      	strb	r2, [r3, #0]
  memset(mArrayDdrBuff, 0, sizeof(RPMSG_HDR_DdrBuffTypeDef) * MAX_DDR_BUFF);
100008a4:	2280      	movs	r2, #128	; 0x80
100008a6:	2100      	movs	r1, #0
100008a8:	4806      	ldr	r0, [pc, #24]	; (100008c4 <RPMSG_HDR_Init+0x4c>)
100008aa:	f00b fe45 	bl	1000c538 <memset>
  return RPMSG_HDR_OK;
100008ae:	2300      	movs	r3, #0
}
100008b0:	4618      	mov	r0, r3
100008b2:	3710      	adds	r7, #16
100008b4:	46bd      	mov	sp, r7
100008b6:	bd80      	pop	{r7, pc}
100008b8:	1000083b 	.word	0x1000083b
100008bc:	1000d940 	.word	0x1000d940
100008c0:	10020328 	.word	0x10020328
100008c4:	100202a8 	.word	0x100202a8

100008c8 <RPMSG_HDR_RegisterCallback>:
}

RPMSG_HDR_StatusTypeDef RPMSG_HDR_RegisterCallback(RPMSG_HDR_HandleTypeDef *hdr,
        RPMSG_HDR_CallbackIDTypeDef CallbackID,
        void (* pCallback)(RPMSG_HDR_HandleTypeDef *_hdr))
{
100008c8:	b480      	push	{r7}
100008ca:	b085      	sub	sp, #20
100008cc:	af00      	add	r7, sp, #0
100008ce:	60f8      	str	r0, [r7, #12]
100008d0:	460b      	mov	r3, r1
100008d2:	607a      	str	r2, [r7, #4]
100008d4:	72fb      	strb	r3, [r7, #11]

  switch (CallbackID)
100008d6:	7afb      	ldrb	r3, [r7, #11]
100008d8:	2b00      	cmp	r3, #0
100008da:	d104      	bne.n	100008e6 <RPMSG_HDR_RegisterCallback+0x1e>
  {
  case RPMSG_HDR_RXCPLT_CB_ID :
    hdr->RxCpltCallback = pCallback;
100008dc:	68fb      	ldr	r3, [r7, #12]
100008de:	687a      	ldr	r2, [r7, #4]
100008e0:	64da      	str	r2, [r3, #76]	; 0x4c
    return RPMSG_HDR_OK;
100008e2:	2300      	movs	r3, #0
100008e4:	e000      	b.n	100008e8 <RPMSG_HDR_RegisterCallback+0x20>
    break;

  default :
   /* Return error status */
	return  RPMSG_HDR_ERROR;
100008e6:	2301      	movs	r3, #1
    break;
  }

  return RPMSG_HDR_OK;
}
100008e8:	4618      	mov	r0, r3
100008ea:	3714      	adds	r7, #20
100008ec:	46bd      	mov	sp, r7
100008ee:	f85d 7b04 	ldr.w	r7, [sp], #4
100008f2:	4770      	bx	lr

100008f4 <RPMSG_HDR_Transmit>:

RPMSG_HDR_StatusTypeDef RPMSG_HDR_Transmit(RPMSG_HDR_HandleTypeDef *hdr, uint8_t *pData, uint16_t Size)
{
100008f4:	b580      	push	{r7, lr}
100008f6:	b086      	sub	sp, #24
100008f8:	af00      	add	r7, sp, #0
100008fa:	60f8      	str	r0, [r7, #12]
100008fc:	60b9      	str	r1, [r7, #8]
100008fe:	4613      	mov	r3, r2
10000900:	80fb      	strh	r3, [r7, #6]
	int res;

	if (Size > (RPMSG_BUFFER_SIZE-16))
10000902:	88fb      	ldrh	r3, [r7, #6]
10000904:	f5b3 7ff8 	cmp.w	r3, #496	; 0x1f0
10000908:	d901      	bls.n	1000090e <RPMSG_HDR_Transmit+0x1a>
	  return RPMSG_HDR_ERROR;
1000090a:	2301      	movs	r3, #1
1000090c:	e00c      	b.n	10000928 <RPMSG_HDR_Transmit+0x34>

	res = OPENAMP_send(&hdr->ept, pData, Size);
1000090e:	68fb      	ldr	r3, [r7, #12]
10000910:	88fa      	ldrh	r2, [r7, #6]
10000912:	68b9      	ldr	r1, [r7, #8]
10000914:	4618      	mov	r0, r3
10000916:	f7ff ff79 	bl	1000080c <rpmsg_send>
1000091a:	6178      	str	r0, [r7, #20]
	if (res <0) {
1000091c:	697b      	ldr	r3, [r7, #20]
1000091e:	2b00      	cmp	r3, #0
10000920:	da01      	bge.n	10000926 <RPMSG_HDR_Transmit+0x32>
		return RPMSG_HDR_ERROR;
10000922:	2301      	movs	r3, #1
10000924:	e000      	b.n	10000928 <RPMSG_HDR_Transmit+0x34>
	}

	return RPMSG_HDR_OK;
10000926:	2300      	movs	r3, #0
}
10000928:	4618      	mov	r0, r3
1000092a:	3718      	adds	r7, #24
1000092c:	46bd      	mov	sp, r7
1000092e:	bd80      	pop	{r7, pc}

10000930 <HAL_MspInit>:
/* USER CODE END 0 */
/**
  * Initializes the Global MSP.
  */
void HAL_MspInit(void)
{
10000930:	b580      	push	{r7, lr}
10000932:	af00      	add	r7, sp, #0
  /* USER CODE BEGIN MspInit 0 */

  /* USER CODE END MspInit 0 */

  __HAL_RCC_HSEM_CLK_ENABLE();
10000934:	f04f 43a0 	mov.w	r3, #1342177280	; 0x50000000
10000938:	f44f 6200 	mov.w	r2, #2048	; 0x800
1000093c:	f8c3 2aa0 	str.w	r2, [r3, #2720]	; 0xaa0

  /* System interrupt init*/
  /* MemoryManagement_IRQn interrupt configuration */
  HAL_NVIC_SetPriority(MemoryManagement_IRQn, 1, 0);
10000940:	2200      	movs	r2, #0
10000942:	2101      	movs	r1, #1
10000944:	f06f 000b 	mvn.w	r0, #11
10000948:	f000 fdd2 	bl	100014f0 <HAL_NVIC_SetPriority>
  /* BusFault_IRQn interrupt configuration */
  HAL_NVIC_SetPriority(BusFault_IRQn, 1, 0);
1000094c:	2200      	movs	r2, #0
1000094e:	2101      	movs	r1, #1
10000950:	f06f 000a 	mvn.w	r0, #10
10000954:	f000 fdcc 	bl	100014f0 <HAL_NVIC_SetPriority>
  /* UsageFault_IRQn interrupt configuration */
  HAL_NVIC_SetPriority(UsageFault_IRQn, 1, 0);
10000958:	2200      	movs	r2, #0
1000095a:	2101      	movs	r1, #1
1000095c:	f06f 0009 	mvn.w	r0, #9
10000960:	f000 fdc6 	bl	100014f0 <HAL_NVIC_SetPriority>
  /* SVCall_IRQn interrupt configuration */
  HAL_NVIC_SetPriority(SVCall_IRQn, 1, 0);
10000964:	2200      	movs	r2, #0
10000966:	2101      	movs	r1, #1
10000968:	f06f 0004 	mvn.w	r0, #4
1000096c:	f000 fdc0 	bl	100014f0 <HAL_NVIC_SetPriority>
  /* DebugMonitor_IRQn interrupt configuration */
  HAL_NVIC_SetPriority(DebugMonitor_IRQn, 1, 0);
10000970:	2200      	movs	r2, #0
10000972:	2101      	movs	r1, #1
10000974:	f06f 0003 	mvn.w	r0, #3
10000978:	f000 fdba 	bl	100014f0 <HAL_NVIC_SetPriority>
  /* PendSV_IRQn interrupt configuration */
  HAL_NVIC_SetPriority(PendSV_IRQn, 15, 0);
1000097c:	2200      	movs	r2, #0
1000097e:	210f      	movs	r1, #15
10000980:	f06f 0001 	mvn.w	r0, #1
10000984:	f000 fdb4 	bl	100014f0 <HAL_NVIC_SetPriority>

  /* Peripheral interrupt init */
  /* RCC_WAKEUP_IRQn interrupt configuration */
  HAL_NVIC_SetPriority(RCC_WAKEUP_IRQn, 0, 0);
10000988:	2200      	movs	r2, #0
1000098a:	2100      	movs	r1, #0
1000098c:	2091      	movs	r0, #145	; 0x91
1000098e:	f000 fdaf 	bl	100014f0 <HAL_NVIC_SetPriority>
  /* RCC_WAKEUP_IRQn interrupt configuration */
  HAL_NVIC_EnableIRQ(RCC_WAKEUP_IRQn);
10000992:	2091      	movs	r0, #145	; 0x91
10000994:	f000 fdc8 	bl	10001528 <HAL_NVIC_EnableIRQ>

  /* USER CODE BEGIN MspInit 1 */

  /* USER CODE END MspInit 1 */
}
10000998:	bf00      	nop
1000099a:	bd80      	pop	{r7, pc}

1000099c <HAL_IPCC_MspInit>:
* This function configures the hardware resources used in this example
* @param hipcc: IPCC handle pointer
* @retval None
*/
void HAL_IPCC_MspInit(IPCC_HandleTypeDef* hipcc)
{
1000099c:	b580      	push	{r7, lr}
1000099e:	b082      	sub	sp, #8
100009a0:	af00      	add	r7, sp, #0
100009a2:	6078      	str	r0, [r7, #4]
  if(hipcc->Instance==IPCC)
100009a4:	687b      	ldr	r3, [r7, #4]
100009a6:	681b      	ldr	r3, [r3, #0]
100009a8:	4a0e      	ldr	r2, [pc, #56]	; (100009e4 <HAL_IPCC_MspInit+0x48>)
100009aa:	4293      	cmp	r3, r2
100009ac:	d115      	bne.n	100009da <HAL_IPCC_MspInit+0x3e>
  {
  /* USER CODE BEGIN IPCC_MspInit 0 */

  /* USER CODE END IPCC_MspInit 0 */
    /* Peripheral clock enable */
    __HAL_RCC_IPCC_CLK_ENABLE();
100009ae:	f04f 43a0 	mov.w	r3, #1342177280	; 0x50000000
100009b2:	f44f 5280 	mov.w	r2, #4096	; 0x1000
100009b6:	f8c3 2aa0 	str.w	r2, [r3, #2720]	; 0xaa0
    /* IPCC interrupt Init */
    HAL_NVIC_SetPriority(IPCC_RX1_IRQn, 5, 0);
100009ba:	2200      	movs	r2, #0
100009bc:	2105      	movs	r1, #5
100009be:	2067      	movs	r0, #103	; 0x67
100009c0:	f000 fd96 	bl	100014f0 <HAL_NVIC_SetPriority>
    HAL_NVIC_EnableIRQ(IPCC_RX1_IRQn);
100009c4:	2067      	movs	r0, #103	; 0x67
100009c6:	f000 fdaf 	bl	10001528 <HAL_NVIC_EnableIRQ>
    HAL_NVIC_SetPriority(IPCC_TX1_IRQn, 5, 0);
100009ca:	2200      	movs	r2, #0
100009cc:	2105      	movs	r1, #5
100009ce:	2068      	movs	r0, #104	; 0x68
100009d0:	f000 fd8e 	bl	100014f0 <HAL_NVIC_SetPriority>
    HAL_NVIC_EnableIRQ(IPCC_TX1_IRQn);
100009d4:	2068      	movs	r0, #104	; 0x68
100009d6:	f000 fda7 	bl	10001528 <HAL_NVIC_EnableIRQ>
  /* USER CODE BEGIN IPCC_MspInit 1 */

  /* USER CODE END IPCC_MspInit 1 */
  }

}
100009da:	bf00      	nop
100009dc:	3708      	adds	r7, #8
100009de:	46bd      	mov	sp, r7
100009e0:	bd80      	pop	{r7, pc}
100009e2:	bf00      	nop
100009e4:	4c001000 	.word	0x4c001000

100009e8 <HAL_InitTick>:
  *         reset by HAL_Init() or at any time when clock is configured, by HAL_RCC_ClockConfig().
  * @param  TickPriority: Tick interrupt priority.
  * @retval HAL status
  */
HAL_StatusTypeDef HAL_InitTick(uint32_t TickPriority)
{
100009e8:	b580      	push	{r7, lr}
100009ea:	b092      	sub	sp, #72	; 0x48
100009ec:	af00      	add	r7, sp, #0
100009ee:	6078      	str	r0, [r7, #4]
  RCC_ClkInitTypeDef    clkconfig;
  uint32_t              uwTimclock = 0;
100009f0:	2300      	movs	r3, #0
100009f2:	647b      	str	r3, [r7, #68]	; 0x44
  uint32_t              uwPrescalerValue = 0;
100009f4:	2300      	movs	r3, #0
100009f6:	643b      	str	r3, [r7, #64]	; 0x40
  uint32_t              pFLatency;
  /*Configure the TIM6 IRQ priority */
  HAL_NVIC_SetPriority(TIM6_IRQn, TickPriority ,0);
100009f8:	2200      	movs	r2, #0
100009fa:	6879      	ldr	r1, [r7, #4]
100009fc:	2036      	movs	r0, #54	; 0x36
100009fe:	f000 fd77 	bl	100014f0 <HAL_NVIC_SetPriority>

  /* Enable the TIM6 global Interrupt */
  HAL_NVIC_EnableIRQ(TIM6_IRQn);
10000a02:	2036      	movs	r0, #54	; 0x36
10000a04:	f000 fd90 	bl	10001528 <HAL_NVIC_EnableIRQ>

  /* Enable TIM6 clock */
  __HAL_RCC_TIM6_CLK_ENABLE();
10000a08:	f04f 43a0 	mov.w	r3, #1342177280	; 0x50000000
10000a0c:	2210      	movs	r2, #16
10000a0e:	f8c3 2a80 	str.w	r2, [r3, #2688]	; 0xa80
  __HAL_RCC_TIM6_FORCE_RESET();
10000a12:	f04f 43a0 	mov.w	r3, #1342177280	; 0x50000000
10000a16:	2210      	movs	r2, #16
10000a18:	f8c3 2980 	str.w	r2, [r3, #2432]	; 0x980
  __HAL_RCC_TIM6_RELEASE_RESET();
10000a1c:	f04f 43a0 	mov.w	r3, #1342177280	; 0x50000000
10000a20:	2210      	movs	r2, #16
10000a22:	f8c3 2984 	str.w	r2, [r3, #2436]	; 0x984

  /* Get clock configuration */
  HAL_RCC_GetClockConfig(&clkconfig, &pFLatency);
10000a26:	f107 020c 	add.w	r2, r7, #12
10000a2a:	f107 0310 	add.w	r3, r7, #16
10000a2e:	4611      	mov	r1, r2
10000a30:	4618      	mov	r0, r3
10000a32:	f002 fdbb 	bl	100035ac <HAL_RCC_GetClockConfig>

  /* Compute TIM6 clock */
  uwTimclock = HAL_RCC_GetPCLK1Freq();
10000a36:	f002 ff13 	bl	10003860 <HAL_RCC_GetPCLK1Freq>
10000a3a:	6478      	str	r0, [r7, #68]	; 0x44
  /* Compute the prescaler value to have TIM6 counter clock equal to 1MHz */
  uwPrescalerValue = (uint32_t) ((uwTimclock / 1000000U) - 1U);
10000a3c:	6c7b      	ldr	r3, [r7, #68]	; 0x44
10000a3e:	4a13      	ldr	r2, [pc, #76]	; (10000a8c <HAL_InitTick+0xa4>)
10000a40:	fba2 2303 	umull	r2, r3, r2, r3
10000a44:	0c9b      	lsrs	r3, r3, #18
10000a46:	3b01      	subs	r3, #1
10000a48:	643b      	str	r3, [r7, #64]	; 0x40

  /* Initialize TIM6 */
  htim6.Instance = TIM6;
10000a4a:	4b11      	ldr	r3, [pc, #68]	; (10000a90 <HAL_InitTick+0xa8>)
10000a4c:	f04f 2240 	mov.w	r2, #1073758208	; 0x40004000
10000a50:	601a      	str	r2, [r3, #0]
  + Period = [(TIM6CLK/1000) - 1]. to have a (1/1000) s time base.
  + Prescaler = (uwTimclock/1000000 - 1) to have a 1MHz counter clock.
  + ClockDivision = 0
  + Counter direction = Up
  */
  htim6.Init.Period = (1000000U / 1000U) - 1U;
10000a52:	4b0f      	ldr	r3, [pc, #60]	; (10000a90 <HAL_InitTick+0xa8>)
10000a54:	f240 32e7 	movw	r2, #999	; 0x3e7
10000a58:	60da      	str	r2, [r3, #12]
  htim6.Init.Prescaler = uwPrescalerValue;
10000a5a:	4a0d      	ldr	r2, [pc, #52]	; (10000a90 <HAL_InitTick+0xa8>)
10000a5c:	6c3b      	ldr	r3, [r7, #64]	; 0x40
10000a5e:	6053      	str	r3, [r2, #4]
  htim6.Init.ClockDivision = 0;
10000a60:	4b0b      	ldr	r3, [pc, #44]	; (10000a90 <HAL_InitTick+0xa8>)
10000a62:	2200      	movs	r2, #0
10000a64:	611a      	str	r2, [r3, #16]
  htim6.Init.CounterMode = TIM_COUNTERMODE_UP;
10000a66:	4b0a      	ldr	r3, [pc, #40]	; (10000a90 <HAL_InitTick+0xa8>)
10000a68:	2200      	movs	r2, #0
10000a6a:	609a      	str	r2, [r3, #8]

  if(HAL_TIM_Base_Init(&htim6) == HAL_OK)
10000a6c:	4808      	ldr	r0, [pc, #32]	; (10000a90 <HAL_InitTick+0xa8>)
10000a6e:	f005 fa63 	bl	10005f38 <HAL_TIM_Base_Init>
10000a72:	4603      	mov	r3, r0
10000a74:	2b00      	cmp	r3, #0
10000a76:	d104      	bne.n	10000a82 <HAL_InitTick+0x9a>
  {
    /* Start the TIM time Base generation in interrupt mode */
    return HAL_TIM_Base_Start_IT(&htim6);
10000a78:	4805      	ldr	r0, [pc, #20]	; (10000a90 <HAL_InitTick+0xa8>)
10000a7a:	f005 fa93 	bl	10005fa4 <HAL_TIM_Base_Start_IT>
10000a7e:	4603      	mov	r3, r0
10000a80:	e000      	b.n	10000a84 <HAL_InitTick+0x9c>
  }

  /* Return function status */
  return HAL_ERROR;
10000a82:	2301      	movs	r3, #1
}
10000a84:	4618      	mov	r0, r3
10000a86:	3748      	adds	r7, #72	; 0x48
10000a88:	46bd      	mov	sp, r7
10000a8a:	bd80      	pop	{r7, pc}
10000a8c:	431bde83 	.word	0x431bde83
10000a90:	1002032c 	.word	0x1002032c

10000a94 <NMI_Handler>:
/******************************************************************************/
/**
  * @brief This function handles Non maskable interrupt.
  */
void NMI_Handler(void)
{
10000a94:	b480      	push	{r7}
10000a96:	af00      	add	r7, sp, #0
  /* USER CODE BEGIN NonMaskableInt_IRQn 0 */

  /* USER CODE END NonMaskableInt_IRQn 0 */
  /* USER CODE BEGIN NonMaskableInt_IRQn 1 */
  while (1)
10000a98:	e7fe      	b.n	10000a98 <NMI_Handler+0x4>

10000a9a <HardFault_Handler>:

/**
  * @brief This function handles Hard fault interrupt.
  */
void HardFault_Handler(void)
{
10000a9a:	b480      	push	{r7}
10000a9c:	af00      	add	r7, sp, #0
  /* USER CODE BEGIN HardFault_IRQn 0 */

  /* USER CODE END HardFault_IRQn 0 */
  while (1)
10000a9e:	e7fe      	b.n	10000a9e <HardFault_Handler+0x4>

10000aa0 <MemManage_Handler>:

/**
  * @brief This function handles Memory management fault.
  */
void MemManage_Handler(void)
{
10000aa0:	b480      	push	{r7}
10000aa2:	af00      	add	r7, sp, #0
  /* USER CODE BEGIN MemoryManagement_IRQn 0 */

  /* USER CODE END MemoryManagement_IRQn 0 */
  while (1)
10000aa4:	e7fe      	b.n	10000aa4 <MemManage_Handler+0x4>

10000aa6 <BusFault_Handler>:

/**
  * @brief This function handles Pre-fetch fault, memory access fault.
  */
void BusFault_Handler(void)
{
10000aa6:	b480      	push	{r7}
10000aa8:	af00      	add	r7, sp, #0
  /* USER CODE BEGIN BusFault_IRQn 0 */

  /* USER CODE END BusFault_IRQn 0 */
  while (1)
10000aaa:	e7fe      	b.n	10000aaa <BusFault_Handler+0x4>

10000aac <UsageFault_Handler>:

/**
  * @brief This function handles Undefined instruction or illegal state.
  */
void UsageFault_Handler(void)
{
10000aac:	b480      	push	{r7}
10000aae:	af00      	add	r7, sp, #0
  /* USER CODE BEGIN UsageFault_IRQn 0 */

  /* USER CODE END UsageFault_IRQn 0 */
  while (1)
10000ab0:	e7fe      	b.n	10000ab0 <UsageFault_Handler+0x4>

10000ab2 <DebugMon_Handler>:

/**
  * @brief This function handles Debug monitor.
  */
void DebugMon_Handler(void)
{
10000ab2:	b480      	push	{r7}
10000ab4:	af00      	add	r7, sp, #0

  /* USER CODE END DebugMonitor_IRQn 0 */
  /* USER CODE BEGIN DebugMonitor_IRQn 1 */

  /* USER CODE END DebugMonitor_IRQn 1 */
}
10000ab6:	bf00      	nop
10000ab8:	46bd      	mov	sp, r7
10000aba:	f85d 7b04 	ldr.w	r7, [sp], #4
10000abe:	4770      	bx	lr

10000ac0 <TIM6_IRQHandler>:

/**
  * @brief This function handles TIM6 global interrupt.
  */
void TIM6_IRQHandler(void)
{
10000ac0:	b580      	push	{r7, lr}
10000ac2:	af00      	add	r7, sp, #0
  /* USER CODE BEGIN TIM6_IRQn 0 */

  /* USER CODE END TIM6_IRQn 0 */
  if (htim6.Instance != NULL) {
10000ac4:	4b06      	ldr	r3, [pc, #24]	; (10000ae0 <TIM6_IRQHandler+0x20>)
10000ac6:	681b      	ldr	r3, [r3, #0]
10000ac8:	2b00      	cmp	r3, #0
10000aca:	d003      	beq.n	10000ad4 <TIM6_IRQHandler+0x14>
    HAL_TIM_IRQHandler(&htim6);
10000acc:	4804      	ldr	r0, [pc, #16]	; (10000ae0 <TIM6_IRQHandler+0x20>)
10000ace:	f005 fa93 	bl	10005ff8 <HAL_TIM_IRQHandler>
    HAL_NVIC_DisableIRQ(TIM6_IRQn);
  }
  /* USER CODE BEGIN TIM6_IRQn 1 */

  /* USER CODE END TIM6_IRQn 1 */
}
10000ad2:	e002      	b.n	10000ada <TIM6_IRQHandler+0x1a>
    HAL_NVIC_DisableIRQ(TIM6_IRQn);
10000ad4:	2036      	movs	r0, #54	; 0x36
10000ad6:	f000 fd35 	bl	10001544 <HAL_NVIC_DisableIRQ>
}
10000ada:	bf00      	nop
10000adc:	bd80      	pop	{r7, pc}
10000ade:	bf00      	nop
10000ae0:	1002032c 	.word	0x1002032c

10000ae4 <DMA2_Stream1_IRQHandler>:

/**
  * @brief This function handles DMA2 stream1 global interrupt.
  */
void DMA2_Stream1_IRQHandler(void)
{
10000ae4:	b580      	push	{r7, lr}
10000ae6:	af00      	add	r7, sp, #0
  /* USER CODE BEGIN DMA2_Stream1_IRQn 0 */

  /* USER CODE END DMA2_Stream1_IRQn 0 */
  HAL_DMA_IRQHandler(&hdma_memtomem_dma2_stream1);
10000ae8:	4802      	ldr	r0, [pc, #8]	; (10000af4 <DMA2_Stream1_IRQHandler+0x10>)
10000aea:	f000 fe35 	bl	10001758 <HAL_DMA_IRQHandler>
  /* USER CODE BEGIN DMA2_Stream1_IRQn 1 */

  /* USER CODE END DMA2_Stream1_IRQn 1 */
}
10000aee:	bf00      	nop
10000af0:	bd80      	pop	{r7, pc}
10000af2:	bf00      	nop
10000af4:	10020214 	.word	0x10020214

10000af8 <IPCC_RX1_IRQHandler>:

/**
  * @brief This function handles IPCC RX1 occupied interrupt.
  */
void IPCC_RX1_IRQHandler(void)
{
10000af8:	b580      	push	{r7, lr}
10000afa:	af00      	add	r7, sp, #0
  /* USER CODE BEGIN IPCC_RX1_IRQn 0 */

  /* USER CODE END IPCC_RX1_IRQn 0 */
  HAL_IPCC_RX_IRQHandler(&hipcc);
10000afc:	4802      	ldr	r0, [pc, #8]	; (10000b08 <IPCC_RX1_IRQHandler+0x10>)
10000afe:	f001 fc11 	bl	10002324 <HAL_IPCC_RX_IRQHandler>
  /* USER CODE BEGIN IPCC_RX1_IRQn 1 */

  /* USER CODE END IPCC_RX1_IRQn 1 */
}
10000b02:	bf00      	nop
10000b04:	bd80      	pop	{r7, pc}
10000b06:	bf00      	nop
10000b08:	100201d8 	.word	0x100201d8

10000b0c <IPCC_TX1_IRQHandler>:

/**
  * @brief This function handles IPCC TX1 free interrupt.
  */
void IPCC_TX1_IRQHandler(void)
{
10000b0c:	b580      	push	{r7, lr}
10000b0e:	af00      	add	r7, sp, #0
  /* USER CODE BEGIN IPCC_TX1_IRQn 0 */

  /* USER CODE END IPCC_TX1_IRQn 0 */
  HAL_IPCC_TX_IRQHandler(&hipcc);
10000b10:	4802      	ldr	r0, [pc, #8]	; (10000b1c <IPCC_TX1_IRQHandler+0x10>)
10000b12:	f001 fbb9 	bl	10002288 <HAL_IPCC_TX_IRQHandler>
  /* USER CODE BEGIN IPCC_TX1_IRQn 1 */

  /* USER CODE END IPCC_TX1_IRQn 1 */
}
10000b16:	bf00      	nop
10000b18:	bd80      	pop	{r7, pc}
10000b1a:	bf00      	nop
10000b1c:	100201d8 	.word	0x100201d8

10000b20 <RCC_WAKEUP_IRQHandler>:

/**
  * @brief This function handles RCC wake-up interrupt.
  */
void RCC_WAKEUP_IRQHandler(void)
{
10000b20:	b580      	push	{r7, lr}
10000b22:	af00      	add	r7, sp, #0
  /* USER CODE BEGIN RCC_WAKEUP_IRQn 0 */

  /* USER CODE END RCC_WAKEUP_IRQn 0 */
  HAL_RCC_WAKEUP_IRQHandler();
10000b24:	f002 ff14 	bl	10003950 <HAL_RCC_WAKEUP_IRQHandler>
  /* USER CODE BEGIN RCC_WAKEUP_IRQn 1 */

  /* USER CODE END RCC_WAKEUP_IRQn 1 */
}
10000b28:	bf00      	nop
10000b2a:	bd80      	pop	{r7, pc}

10000b2c <_getpid>:
void initialise_monitor_handles()
{
}

int _getpid(void)
{
10000b2c:	b480      	push	{r7}
10000b2e:	af00      	add	r7, sp, #0
	return 1;
10000b30:	2301      	movs	r3, #1
}
10000b32:	4618      	mov	r0, r3
10000b34:	46bd      	mov	sp, r7
10000b36:	f85d 7b04 	ldr.w	r7, [sp], #4
10000b3a:	4770      	bx	lr

10000b3c <_kill>:

int _kill(int pid, int sig)
{
10000b3c:	b580      	push	{r7, lr}
10000b3e:	b082      	sub	sp, #8
10000b40:	af00      	add	r7, sp, #0
10000b42:	6078      	str	r0, [r7, #4]
10000b44:	6039      	str	r1, [r7, #0]
	errno = EINVAL;
10000b46:	f00b fcad 	bl	1000c4a4 <__errno>
10000b4a:	4603      	mov	r3, r0
10000b4c:	2216      	movs	r2, #22
10000b4e:	601a      	str	r2, [r3, #0]
	return -1;
10000b50:	f04f 33ff 	mov.w	r3, #4294967295
}
10000b54:	4618      	mov	r0, r3
10000b56:	3708      	adds	r7, #8
10000b58:	46bd      	mov	sp, r7
10000b5a:	bd80      	pop	{r7, pc}

10000b5c <_exit>:

void _exit (int status)
{
10000b5c:	b580      	push	{r7, lr}
10000b5e:	b082      	sub	sp, #8
10000b60:	af00      	add	r7, sp, #0
10000b62:	6078      	str	r0, [r7, #4]
	_kill(status, -1);
10000b64:	f04f 31ff 	mov.w	r1, #4294967295
10000b68:	6878      	ldr	r0, [r7, #4]
10000b6a:	f7ff ffe7 	bl	10000b3c <_kill>
	while (1) {}		/* Make sure we hang here */
10000b6e:	e7fe      	b.n	10000b6e <_exit+0x12>

10000b70 <_read>:
}

__attribute__((weak)) int _read(int file, char *ptr, int len)
{
10000b70:	b580      	push	{r7, lr}
10000b72:	b086      	sub	sp, #24
10000b74:	af00      	add	r7, sp, #0
10000b76:	60f8      	str	r0, [r7, #12]
10000b78:	60b9      	str	r1, [r7, #8]
10000b7a:	607a      	str	r2, [r7, #4]
	int DataIdx;

	for (DataIdx = 0; DataIdx < len; DataIdx++)
10000b7c:	2300      	movs	r3, #0
10000b7e:	617b      	str	r3, [r7, #20]
10000b80:	e00a      	b.n	10000b98 <_read+0x28>
	{
		*ptr++ = __io_getchar();
10000b82:	f3af 8000 	nop.w
10000b86:	4601      	mov	r1, r0
10000b88:	68bb      	ldr	r3, [r7, #8]
10000b8a:	1c5a      	adds	r2, r3, #1
10000b8c:	60ba      	str	r2, [r7, #8]
10000b8e:	b2ca      	uxtb	r2, r1
10000b90:	701a      	strb	r2, [r3, #0]
	for (DataIdx = 0; DataIdx < len; DataIdx++)
10000b92:	697b      	ldr	r3, [r7, #20]
10000b94:	3301      	adds	r3, #1
10000b96:	617b      	str	r3, [r7, #20]
10000b98:	697a      	ldr	r2, [r7, #20]
10000b9a:	687b      	ldr	r3, [r7, #4]
10000b9c:	429a      	cmp	r2, r3
10000b9e:	dbf0      	blt.n	10000b82 <_read+0x12>
	}

return len;
10000ba0:	687b      	ldr	r3, [r7, #4]
}
10000ba2:	4618      	mov	r0, r3
10000ba4:	3718      	adds	r7, #24
10000ba6:	46bd      	mov	sp, r7
10000ba8:	bd80      	pop	{r7, pc}

10000baa <_write>:

__attribute__((weak)) int _write(int file, char *ptr, int len)
{
10000baa:	b580      	push	{r7, lr}
10000bac:	b086      	sub	sp, #24
10000bae:	af00      	add	r7, sp, #0
10000bb0:	60f8      	str	r0, [r7, #12]
10000bb2:	60b9      	str	r1, [r7, #8]
10000bb4:	607a      	str	r2, [r7, #4]
	int DataIdx;

	for (DataIdx = 0; DataIdx < len; DataIdx++)
10000bb6:	2300      	movs	r3, #0
10000bb8:	617b      	str	r3, [r7, #20]
10000bba:	e009      	b.n	10000bd0 <_write+0x26>
	{
		__io_putchar(*ptr++);
10000bbc:	68bb      	ldr	r3, [r7, #8]
10000bbe:	1c5a      	adds	r2, r3, #1
10000bc0:	60ba      	str	r2, [r7, #8]
10000bc2:	781b      	ldrb	r3, [r3, #0]
10000bc4:	4618      	mov	r0, r3
10000bc6:	f3af 8000 	nop.w
	for (DataIdx = 0; DataIdx < len; DataIdx++)
10000bca:	697b      	ldr	r3, [r7, #20]
10000bcc:	3301      	adds	r3, #1
10000bce:	617b      	str	r3, [r7, #20]
10000bd0:	697a      	ldr	r2, [r7, #20]
10000bd2:	687b      	ldr	r3, [r7, #4]
10000bd4:	429a      	cmp	r2, r3
10000bd6:	dbf1      	blt.n	10000bbc <_write+0x12>
	}
	return len;
10000bd8:	687b      	ldr	r3, [r7, #4]
}
10000bda:	4618      	mov	r0, r3
10000bdc:	3718      	adds	r7, #24
10000bde:	46bd      	mov	sp, r7
10000be0:	bd80      	pop	{r7, pc}

10000be2 <_close>:

int _close(int file)
{
10000be2:	b480      	push	{r7}
10000be4:	b083      	sub	sp, #12
10000be6:	af00      	add	r7, sp, #0
10000be8:	6078      	str	r0, [r7, #4]
	return -1;
10000bea:	f04f 33ff 	mov.w	r3, #4294967295
}
10000bee:	4618      	mov	r0, r3
10000bf0:	370c      	adds	r7, #12
10000bf2:	46bd      	mov	sp, r7
10000bf4:	f85d 7b04 	ldr.w	r7, [sp], #4
10000bf8:	4770      	bx	lr

10000bfa <_fstat>:


int _fstat(int file, struct stat *st)
{
10000bfa:	b480      	push	{r7}
10000bfc:	b083      	sub	sp, #12
10000bfe:	af00      	add	r7, sp, #0
10000c00:	6078      	str	r0, [r7, #4]
10000c02:	6039      	str	r1, [r7, #0]
	st->st_mode = S_IFCHR;
10000c04:	683b      	ldr	r3, [r7, #0]
10000c06:	f44f 5200 	mov.w	r2, #8192	; 0x2000
10000c0a:	605a      	str	r2, [r3, #4]
	return 0;
10000c0c:	2300      	movs	r3, #0
}
10000c0e:	4618      	mov	r0, r3
10000c10:	370c      	adds	r7, #12
10000c12:	46bd      	mov	sp, r7
10000c14:	f85d 7b04 	ldr.w	r7, [sp], #4
10000c18:	4770      	bx	lr

10000c1a <_isatty>:

int _isatty(int file)
{
10000c1a:	b480      	push	{r7}
10000c1c:	b083      	sub	sp, #12
10000c1e:	af00      	add	r7, sp, #0
10000c20:	6078      	str	r0, [r7, #4]
	return 1;
10000c22:	2301      	movs	r3, #1
}
10000c24:	4618      	mov	r0, r3
10000c26:	370c      	adds	r7, #12
10000c28:	46bd      	mov	sp, r7
10000c2a:	f85d 7b04 	ldr.w	r7, [sp], #4
10000c2e:	4770      	bx	lr

10000c30 <_lseek>:

int _lseek(int file, int ptr, int dir)
{
10000c30:	b480      	push	{r7}
10000c32:	b085      	sub	sp, #20
10000c34:	af00      	add	r7, sp, #0
10000c36:	60f8      	str	r0, [r7, #12]
10000c38:	60b9      	str	r1, [r7, #8]
10000c3a:	607a      	str	r2, [r7, #4]
	return 0;
10000c3c:	2300      	movs	r3, #0
}
10000c3e:	4618      	mov	r0, r3
10000c40:	3714      	adds	r7, #20
10000c42:	46bd      	mov	sp, r7
10000c44:	f85d 7b04 	ldr.w	r7, [sp], #4
10000c48:	4770      	bx	lr
	...

10000c4c <_sbrk>:
 *
 * @param incr Memory size
 * @return Pointer to allocated memory
 */
void *_sbrk(ptrdiff_t incr)
{
10000c4c:	b580      	push	{r7, lr}
10000c4e:	b086      	sub	sp, #24
10000c50:	af00      	add	r7, sp, #0
10000c52:	6078      	str	r0, [r7, #4]
  extern uint8_t _end; /* Symbol defined in the linker script */
  extern uint8_t _estack; /* Symbol defined in the linker script */
  extern uint32_t _Min_Stack_Size; /* Symbol defined in the linker script */
  const uint32_t stack_limit = (uint32_t)&_estack - (uint32_t)&_Min_Stack_Size;
10000c54:	4a14      	ldr	r2, [pc, #80]	; (10000ca8 <_sbrk+0x5c>)
10000c56:	4b15      	ldr	r3, [pc, #84]	; (10000cac <_sbrk+0x60>)
10000c58:	1ad3      	subs	r3, r2, r3
10000c5a:	617b      	str	r3, [r7, #20]
  const uint8_t *max_heap = (uint8_t *)stack_limit;
10000c5c:	697b      	ldr	r3, [r7, #20]
10000c5e:	613b      	str	r3, [r7, #16]
  uint8_t *prev_heap_end;

  /* Initialize heap end at first call */
  if (NULL == __sbrk_heap_end)
10000c60:	4b13      	ldr	r3, [pc, #76]	; (10000cb0 <_sbrk+0x64>)
10000c62:	681b      	ldr	r3, [r3, #0]
10000c64:	2b00      	cmp	r3, #0
10000c66:	d102      	bne.n	10000c6e <_sbrk+0x22>
  {
    __sbrk_heap_end = &_end;
10000c68:	4b11      	ldr	r3, [pc, #68]	; (10000cb0 <_sbrk+0x64>)
10000c6a:	4a12      	ldr	r2, [pc, #72]	; (10000cb4 <_sbrk+0x68>)
10000c6c:	601a      	str	r2, [r3, #0]
  }

  /* Protect heap from growing into the reserved MSP stack */
  if (__sbrk_heap_end + incr > max_heap)
10000c6e:	4b10      	ldr	r3, [pc, #64]	; (10000cb0 <_sbrk+0x64>)
10000c70:	681a      	ldr	r2, [r3, #0]
10000c72:	687b      	ldr	r3, [r7, #4]
10000c74:	4413      	add	r3, r2
10000c76:	693a      	ldr	r2, [r7, #16]
10000c78:	429a      	cmp	r2, r3
10000c7a:	d207      	bcs.n	10000c8c <_sbrk+0x40>
  {
    errno = ENOMEM;
10000c7c:	f00b fc12 	bl	1000c4a4 <__errno>
10000c80:	4603      	mov	r3, r0
10000c82:	220c      	movs	r2, #12
10000c84:	601a      	str	r2, [r3, #0]
    return (void *)-1;
10000c86:	f04f 33ff 	mov.w	r3, #4294967295
10000c8a:	e009      	b.n	10000ca0 <_sbrk+0x54>
  }

  prev_heap_end = __sbrk_heap_end;
10000c8c:	4b08      	ldr	r3, [pc, #32]	; (10000cb0 <_sbrk+0x64>)
10000c8e:	681b      	ldr	r3, [r3, #0]
10000c90:	60fb      	str	r3, [r7, #12]
  __sbrk_heap_end += incr;
10000c92:	4b07      	ldr	r3, [pc, #28]	; (10000cb0 <_sbrk+0x64>)
10000c94:	681a      	ldr	r2, [r3, #0]
10000c96:	687b      	ldr	r3, [r7, #4]
10000c98:	4413      	add	r3, r2
10000c9a:	4a05      	ldr	r2, [pc, #20]	; (10000cb0 <_sbrk+0x64>)
10000c9c:	6013      	str	r3, [r2, #0]

  return (void *)prev_heap_end;
10000c9e:	68fb      	ldr	r3, [r7, #12]
}
10000ca0:	4618      	mov	r0, r3
10000ca2:	3718      	adds	r7, #24
10000ca4:	46bd      	mov	sp, r7
10000ca6:	bd80      	pop	{r7, pc}
10000ca8:	10040000 	.word	0x10040000
10000cac:	00000400 	.word	0x00000400
10000cb0:	1002036c 	.word	0x1002036c
10000cb4:	100229e0 	.word	0x100229e0

10000cb8 <VIRT_UART0_RxCpltCallback>:
 uint16_t VirtUart1ChannelRxSize = 0;



void VIRT_UART0_RxCpltCallback(VIRT_UART_HandleTypeDef *huart)
{
10000cb8:	b580      	push	{r7, lr}
10000cba:	b082      	sub	sp, #8
10000cbc:	af00      	add	r7, sp, #0
10000cbe:	6078      	str	r0, [r7, #4]
	/* copy received msg in a variable to sent it back to master processor in main infinite loop*/

	VirtUart0ChannelRxSize = huart->RxXferSize < MAX_BUFFER_SIZE? huart->RxXferSize : MAX_BUFFER_SIZE-1;
10000cc0:	687b      	ldr	r3, [r7, #4]
10000cc2:	f8b3 3048 	ldrh.w	r3, [r3, #72]	; 0x48
10000cc6:	f240 12ff 	movw	r2, #511	; 0x1ff
10000cca:	4293      	cmp	r3, r2
10000ccc:	bf28      	it	cs
10000cce:	4613      	movcs	r3, r2
10000cd0:	b29a      	uxth	r2, r3
10000cd2:	4b08      	ldr	r3, [pc, #32]	; (10000cf4 <VIRT_UART0_RxCpltCallback+0x3c>)
10000cd4:	801a      	strh	r2, [r3, #0]
	memcpy(VirtUart0ChannelBuffRx, huart->pRxBuffPtr, VirtUart0ChannelRxSize);
10000cd6:	687b      	ldr	r3, [r7, #4]
10000cd8:	6c5b      	ldr	r3, [r3, #68]	; 0x44
10000cda:	4a06      	ldr	r2, [pc, #24]	; (10000cf4 <VIRT_UART0_RxCpltCallback+0x3c>)
10000cdc:	8812      	ldrh	r2, [r2, #0]
10000cde:	4619      	mov	r1, r3
10000ce0:	4805      	ldr	r0, [pc, #20]	; (10000cf8 <VIRT_UART0_RxCpltCallback+0x40>)
10000ce2:	f00b fc1b 	bl	1000c51c <memcpy>
	VirtUart0RxMsg = SET;
10000ce6:	4b05      	ldr	r3, [pc, #20]	; (10000cfc <VIRT_UART0_RxCpltCallback+0x44>)
10000ce8:	2201      	movs	r2, #1
10000cea:	701a      	strb	r2, [r3, #0]
}
10000cec:	bf00      	nop
10000cee:	3708      	adds	r7, #8
10000cf0:	46bd      	mov	sp, r7
10000cf2:	bd80      	pop	{r7, pc}
10000cf4:	10020618 	.word	0x10020618
10000cf8:	10020418 	.word	0x10020418
10000cfc:	10020414 	.word	0x10020414

10000d00 <VIRT_UART1_RxCpltCallback>:

void VIRT_UART1_RxCpltCallback(VIRT_UART_HandleTypeDef *huart)
{
10000d00:	b580      	push	{r7, lr}
10000d02:	b082      	sub	sp, #8
10000d04:	af00      	add	r7, sp, #0
10000d06:	6078      	str	r0, [r7, #4]
	/* copy received msg in a variable to sent it back to master processor in main infinite loop*/
	//log_info("Msg received on VIRTUAL UART1 channel:  %s \n\r", (char *) huart->pRxBuffPtr);
	VirtUart1ChannelRxSize = huart->RxXferSize < MAX_BUFFER_SIZE? huart->RxXferSize : MAX_BUFFER_SIZE-1;
10000d08:	687b      	ldr	r3, [r7, #4]
10000d0a:	f8b3 3048 	ldrh.w	r3, [r3, #72]	; 0x48
10000d0e:	f240 12ff 	movw	r2, #511	; 0x1ff
10000d12:	4293      	cmp	r3, r2
10000d14:	bf28      	it	cs
10000d16:	4613      	movcs	r3, r2
10000d18:	b29a      	uxth	r2, r3
10000d1a:	4b08      	ldr	r3, [pc, #32]	; (10000d3c <VIRT_UART1_RxCpltCallback+0x3c>)
10000d1c:	801a      	strh	r2, [r3, #0]
	memcpy(VirtUart1ChannelBuffRx, huart->pRxBuffPtr, VirtUart1ChannelRxSize);
10000d1e:	687b      	ldr	r3, [r7, #4]
10000d20:	6c5b      	ldr	r3, [r3, #68]	; 0x44
10000d22:	4a06      	ldr	r2, [pc, #24]	; (10000d3c <VIRT_UART1_RxCpltCallback+0x3c>)
10000d24:	8812      	ldrh	r2, [r2, #0]
10000d26:	4619      	mov	r1, r3
10000d28:	4805      	ldr	r0, [pc, #20]	; (10000d40 <VIRT_UART1_RxCpltCallback+0x40>)
10000d2a:	f00b fbf7 	bl	1000c51c <memcpy>
	VirtUart1RxMsg = SET;
10000d2e:	4b05      	ldr	r3, [pc, #20]	; (10000d44 <VIRT_UART1_RxCpltCallback+0x44>)
10000d30:	2201      	movs	r2, #1
10000d32:	701a      	strb	r2, [r3, #0]
}
10000d34:	bf00      	nop
10000d36:	3708      	adds	r7, #8
10000d38:	46bd      	mov	sp, r7
10000d3a:	bd80      	pop	{r7, pc}
10000d3c:	10020a1c 	.word	0x10020a1c
10000d40:	1002061c 	.word	0x1002061c
10000d44:	1002061a 	.word	0x1002061a

10000d48 <User_VIRT_UART_Init>:

void User_VIRT_UART_Init(void){
10000d48:	b580      	push	{r7, lr}
10000d4a:	af00      	add	r7, sp, #0
	log_info("Cortex-M4 boot successful with STM32Cube FW version: v%ld.%ld.%ld \r\n", ((HAL_GetHalVersion() >> 24) & 0x000000FF), ((HAL_GetHalVersion() >> 16) & 0x000000FF), ((HAL_GetHalVersion() >> 8) & 0x000000FF));
	log_info("Version : fw-rtos_CM4\r\n");
	/* Create Virtual UART device defined by a rpmsg channel attached to the remote device */

	log_info("Virtual UART0 OpenAMP-rpmsg channel creation\r\n");
	if (VIRT_UART_Init(&hvirtuart0) != VIRT_UART_OK) {
10000d4c:	4808      	ldr	r0, [pc, #32]	; (10000d70 <User_VIRT_UART_Init+0x28>)
10000d4e:	f00a fe15 	bl	1000b97c <VIRT_UART_Init>
		log_err("VIRT_UART_Init UART0 failed.\r\n");
		//Error_Handler();
	}

	log_info("Virtual UART1 OpenAMP-rpmsg channel creation\r\n");
	if (VIRT_UART_Init(&hvirtuart1) != VIRT_UART_OK) {
10000d52:	4808      	ldr	r0, [pc, #32]	; (10000d74 <User_VIRT_UART_Init+0x2c>)
10000d54:	f00a fe12 	bl	1000b97c <VIRT_UART_Init>
		//Error_Handler();
	}

	/*Need to register callback for message reception by channels*/

	if(VIRT_UART_RegisterCallback(&hvirtuart0, VIRT_UART_RXCPLT_CB_ID, VIRT_UART0_RxCpltCallback) != VIRT_UART_OK){
10000d58:	4a07      	ldr	r2, [pc, #28]	; (10000d78 <User_VIRT_UART_Init+0x30>)
10000d5a:	2100      	movs	r1, #0
10000d5c:	4804      	ldr	r0, [pc, #16]	; (10000d70 <User_VIRT_UART_Init+0x28>)
10000d5e:	f00a fe29 	bl	1000b9b4 <VIRT_UART_RegisterCallback>
		//Error_Handler();
	}

	if(VIRT_UART_RegisterCallback(&hvirtuart1, VIRT_UART_RXCPLT_CB_ID, VIRT_UART1_RxCpltCallback) != VIRT_UART_OK){
10000d62:	4a06      	ldr	r2, [pc, #24]	; (10000d7c <User_VIRT_UART_Init+0x34>)
10000d64:	2100      	movs	r1, #0
10000d66:	4803      	ldr	r0, [pc, #12]	; (10000d74 <User_VIRT_UART_Init+0x2c>)
10000d68:	f00a fe24 	bl	1000b9b4 <VIRT_UART_RegisterCallback>
		//Error_Handler();
	}
}
10000d6c:	bf00      	nop
10000d6e:	bd80      	pop	{r7, pc}
10000d70:	10020374 	.word	0x10020374
10000d74:	100203c4 	.word	0x100203c4
10000d78:	10000cb9 	.word	0x10000cb9
10000d7c:	10000d01 	.word	0x10000d01

10000d80 <User_VIRT_UART0_Treatment>:

void User_VIRT_UART0_Treatment(void){
10000d80:	b580      	push	{r7, lr}
10000d82:	af00      	add	r7, sp, #0
	VirtUart0RxMsg = RESET;
10000d84:	4b05      	ldr	r3, [pc, #20]	; (10000d9c <User_VIRT_UART0_Treatment+0x1c>)
10000d86:	2200      	movs	r2, #0
10000d88:	701a      	strb	r2, [r3, #0]
	log_info("Msg received on VIRTUAL UART0 channel:  %s \n\r", VirtUart0ChannelBuffRx);
	VIRT_UART_Transmit(&hvirtuart0, VirtUart0ChannelBuffRx, VirtUart0ChannelRxSize);
10000d8a:	4b05      	ldr	r3, [pc, #20]	; (10000da0 <User_VIRT_UART0_Treatment+0x20>)
10000d8c:	881b      	ldrh	r3, [r3, #0]
10000d8e:	461a      	mov	r2, r3
10000d90:	4904      	ldr	r1, [pc, #16]	; (10000da4 <User_VIRT_UART0_Treatment+0x24>)
10000d92:	4805      	ldr	r0, [pc, #20]	; (10000da8 <User_VIRT_UART0_Treatment+0x28>)
10000d94:	f00a fe28 	bl	1000b9e8 <VIRT_UART_Transmit>
	//memset(VirtUart0ChannelBuffRx, '\0', strlen((char*) VirtUart0ChannelBuffRx));
}
10000d98:	bf00      	nop
10000d9a:	bd80      	pop	{r7, pc}
10000d9c:	10020414 	.word	0x10020414
10000da0:	10020618 	.word	0x10020618
10000da4:	10020418 	.word	0x10020418
10000da8:	10020374 	.word	0x10020374

10000dac <User_VIRT_UART1_Treatment>:

void User_VIRT_UART1_Treatment(void){
10000dac:	b5b0      	push	{r4, r5, r7, lr}
10000dae:	b084      	sub	sp, #16
10000db0:	af02      	add	r7, sp, #8
	VirtUart1RxMsg = RESET;
10000db2:	4b70      	ldr	r3, [pc, #448]	; (10000f74 <User_VIRT_UART1_Treatment+0x1c8>)
10000db4:	2200      	movs	r2, #0
10000db6:	701a      	strb	r2, [r3, #0]
	log_info("Msg received on VIRTUAL UART1 channel:  %s \n\r", VirtUart1ChannelBuffRx);
	if (!strncmp((char *)VirtUart1ChannelBuffRx, MSG_TIME, strlen(MSG_TIME)))
10000db8:	2205      	movs	r2, #5
10000dba:	496f      	ldr	r1, [pc, #444]	; (10000f78 <User_VIRT_UART1_Treatment+0x1cc>)
10000dbc:	486f      	ldr	r0, [pc, #444]	; (10000f7c <User_VIRT_UART1_Treatment+0x1d0>)
10000dbe:	f00b fed1 	bl	1000cb64 <strncmp>
10000dc2:	4603      	mov	r3, r0
10000dc4:	2b00      	cmp	r3, #0
10000dc6:	d134      	bne.n	10000e32 <User_VIRT_UART1_Treatment+0x86>
	{
		//sprintf((char *)BuffTx, "m4: time elapsed : %ld:%d \n",  (countSec/60),(int)(countSec%60) );
		sprintf((char *)VirtUart1ChannelBuffTx, "[M4] time elapsed : %ld:%02ld.%03d \n", (xTaskGetTickCount()/60000),(xTaskGetTickCount()/1000)%60, (int)(xTaskGetTickCount()%1000) );
10000dc8:	f007 fbc4 	bl	10008554 <xTaskGetTickCount>
10000dcc:	4603      	mov	r3, r0
10000dce:	4a6c      	ldr	r2, [pc, #432]	; (10000f80 <User_VIRT_UART1_Treatment+0x1d4>)
10000dd0:	fba2 2303 	umull	r2, r3, r2, r3
10000dd4:	0b9d      	lsrs	r5, r3, #14
10000dd6:	f007 fbbd 	bl	10008554 <xTaskGetTickCount>
10000dda:	4603      	mov	r3, r0
10000ddc:	4a69      	ldr	r2, [pc, #420]	; (10000f84 <User_VIRT_UART1_Treatment+0x1d8>)
10000dde:	fba2 2303 	umull	r2, r3, r2, r3
10000de2:	099a      	lsrs	r2, r3, #6
10000de4:	4b68      	ldr	r3, [pc, #416]	; (10000f88 <User_VIRT_UART1_Treatment+0x1dc>)
10000de6:	fba3 1302 	umull	r1, r3, r3, r2
10000dea:	095c      	lsrs	r4, r3, #5
10000dec:	4623      	mov	r3, r4
10000dee:	011b      	lsls	r3, r3, #4
10000df0:	1b1b      	subs	r3, r3, r4
10000df2:	009b      	lsls	r3, r3, #2
10000df4:	1ad4      	subs	r4, r2, r3
10000df6:	f007 fbad 	bl	10008554 <xTaskGetTickCount>
10000dfa:	4602      	mov	r2, r0
10000dfc:	4b61      	ldr	r3, [pc, #388]	; (10000f84 <User_VIRT_UART1_Treatment+0x1d8>)
10000dfe:	fba3 1302 	umull	r1, r3, r3, r2
10000e02:	099b      	lsrs	r3, r3, #6
10000e04:	f44f 717a 	mov.w	r1, #1000	; 0x3e8
10000e08:	fb01 f303 	mul.w	r3, r1, r3
10000e0c:	1ad3      	subs	r3, r2, r3
10000e0e:	9300      	str	r3, [sp, #0]
10000e10:	4623      	mov	r3, r4
10000e12:	462a      	mov	r2, r5
10000e14:	495d      	ldr	r1, [pc, #372]	; (10000f8c <User_VIRT_UART1_Treatment+0x1e0>)
10000e16:	485e      	ldr	r0, [pc, #376]	; (10000f90 <User_VIRT_UART1_Treatment+0x1e4>)
10000e18:	f00b fe84 	bl	1000cb24 <siprintf>
		VIRT_UART_Transmit(&hvirtuart1, VirtUart1ChannelBuffTx, strlen((const char *)VirtUart1ChannelBuffTx));
10000e1c:	485c      	ldr	r0, [pc, #368]	; (10000f90 <User_VIRT_UART1_Treatment+0x1e4>)
10000e1e:	f7ff f919 	bl	10000054 <strlen>
10000e22:	4603      	mov	r3, r0
10000e24:	b29b      	uxth	r3, r3
10000e26:	461a      	mov	r2, r3
10000e28:	4959      	ldr	r1, [pc, #356]	; (10000f90 <User_VIRT_UART1_Treatment+0x1e4>)
10000e2a:	485a      	ldr	r0, [pc, #360]	; (10000f94 <User_VIRT_UART1_Treatment+0x1e8>)
10000e2c:	f00a fddc 	bl	1000b9e8 <VIRT_UART_Transmit>
		sprintf((char *)VirtUart1ChannelBuffTx, "[M4] echo : %s", VirtUart1ChannelBuffRx);
		//sprintf((char *)BuffTx, "[m4] unknown %s\n", VirtUart1ChannelBuffRx);
		VIRT_UART_Transmit(&hvirtuart1, VirtUart1ChannelBuffTx, strlen((const char *)VirtUart1ChannelBuffTx));
	}

}
10000e30:	e09c      	b.n	10000f6c <User_VIRT_UART1_Treatment+0x1c0>
	else if (!strncmp((char *)VirtUart1ChannelBuffRx, MSG_LED_ON, strlen(MSG_LED_ON)))
10000e32:	2207      	movs	r2, #7
10000e34:	4958      	ldr	r1, [pc, #352]	; (10000f98 <User_VIRT_UART1_Treatment+0x1ec>)
10000e36:	4851      	ldr	r0, [pc, #324]	; (10000f7c <User_VIRT_UART1_Treatment+0x1d0>)
10000e38:	f00b fe94 	bl	1000cb64 <strncmp>
10000e3c:	4603      	mov	r3, r0
10000e3e:	2b00      	cmp	r3, #0
10000e40:	d114      	bne.n	10000e6c <User_VIRT_UART1_Treatment+0xc0>
		sprintf((char *)VirtUart1ChannelBuffTx, "[M4] led on \n");
10000e42:	4956      	ldr	r1, [pc, #344]	; (10000f9c <User_VIRT_UART1_Treatment+0x1f0>)
10000e44:	4852      	ldr	r0, [pc, #328]	; (10000f90 <User_VIRT_UART1_Treatment+0x1e4>)
10000e46:	f00b fe6d 	bl	1000cb24 <siprintf>
		VIRT_UART_Transmit(&hvirtuart1, VirtUart1ChannelBuffTx, strlen((const char *)VirtUart1ChannelBuffTx));
10000e4a:	4851      	ldr	r0, [pc, #324]	; (10000f90 <User_VIRT_UART1_Treatment+0x1e4>)
10000e4c:	f7ff f902 	bl	10000054 <strlen>
10000e50:	4603      	mov	r3, r0
10000e52:	b29b      	uxth	r3, r3
10000e54:	461a      	mov	r2, r3
10000e56:	494e      	ldr	r1, [pc, #312]	; (10000f90 <User_VIRT_UART1_Treatment+0x1e4>)
10000e58:	484e      	ldr	r0, [pc, #312]	; (10000f94 <User_VIRT_UART1_Treatment+0x1e8>)
10000e5a:	f00a fdc5 	bl	1000b9e8 <VIRT_UART_Transmit>
		HAL_GPIO_WritePin(GPIOA, GPIO_PIN_13, 0);
10000e5e:	2200      	movs	r2, #0
10000e60:	f44f 5100 	mov.w	r1, #8192	; 0x2000
10000e64:	484e      	ldr	r0, [pc, #312]	; (10000fa0 <User_VIRT_UART1_Treatment+0x1f4>)
10000e66:	f001 f8e3 	bl	10002030 <HAL_GPIO_WritePin>
}
10000e6a:	e07f      	b.n	10000f6c <User_VIRT_UART1_Treatment+0x1c0>
	else if (!strncmp((char *)VirtUart1ChannelBuffRx, MSG_LED_OFF, strlen(MSG_LED_OFF)))
10000e6c:	2208      	movs	r2, #8
10000e6e:	494d      	ldr	r1, [pc, #308]	; (10000fa4 <User_VIRT_UART1_Treatment+0x1f8>)
10000e70:	4842      	ldr	r0, [pc, #264]	; (10000f7c <User_VIRT_UART1_Treatment+0x1d0>)
10000e72:	f00b fe77 	bl	1000cb64 <strncmp>
10000e76:	4603      	mov	r3, r0
10000e78:	2b00      	cmp	r3, #0
10000e7a:	d114      	bne.n	10000ea6 <User_VIRT_UART1_Treatment+0xfa>
		sprintf((char *)VirtUart1ChannelBuffTx, "[M4] led off \n");
10000e7c:	494a      	ldr	r1, [pc, #296]	; (10000fa8 <User_VIRT_UART1_Treatment+0x1fc>)
10000e7e:	4844      	ldr	r0, [pc, #272]	; (10000f90 <User_VIRT_UART1_Treatment+0x1e4>)
10000e80:	f00b fe50 	bl	1000cb24 <siprintf>
		VIRT_UART_Transmit(&hvirtuart1, VirtUart1ChannelBuffTx, strlen((const char *)VirtUart1ChannelBuffTx));
10000e84:	4842      	ldr	r0, [pc, #264]	; (10000f90 <User_VIRT_UART1_Treatment+0x1e4>)
10000e86:	f7ff f8e5 	bl	10000054 <strlen>
10000e8a:	4603      	mov	r3, r0
10000e8c:	b29b      	uxth	r3, r3
10000e8e:	461a      	mov	r2, r3
10000e90:	493f      	ldr	r1, [pc, #252]	; (10000f90 <User_VIRT_UART1_Treatment+0x1e4>)
10000e92:	4840      	ldr	r0, [pc, #256]	; (10000f94 <User_VIRT_UART1_Treatment+0x1e8>)
10000e94:	f00a fda8 	bl	1000b9e8 <VIRT_UART_Transmit>
		HAL_GPIO_WritePin(GPIOA, GPIO_PIN_13, 1);
10000e98:	2201      	movs	r2, #1
10000e9a:	f44f 5100 	mov.w	r1, #8192	; 0x2000
10000e9e:	4840      	ldr	r0, [pc, #256]	; (10000fa0 <User_VIRT_UART1_Treatment+0x1f4>)
10000ea0:	f001 f8c6 	bl	10002030 <HAL_GPIO_WritePin>
}
10000ea4:	e062      	b.n	10000f6c <User_VIRT_UART1_Treatment+0x1c0>
	else if (!strncmp((char *)VirtUart1ChannelBuffRx, MSG_DELAY, strlen(MSG_DELAY)))
10000ea6:	2206      	movs	r2, #6
10000ea8:	4940      	ldr	r1, [pc, #256]	; (10000fac <User_VIRT_UART1_Treatment+0x200>)
10000eaa:	4834      	ldr	r0, [pc, #208]	; (10000f7c <User_VIRT_UART1_Treatment+0x1d0>)
10000eac:	f00b fe5a 	bl	1000cb64 <strncmp>
10000eb0:	4603      	mov	r3, r0
10000eb2:	2b00      	cmp	r3, #0
10000eb4:	d112      	bne.n	10000edc <User_VIRT_UART1_Treatment+0x130>
		osDelay(20000); // 20 sec
10000eb6:	f644 6020 	movw	r0, #20000	; 0x4e20
10000eba:	f005 fca7 	bl	1000680c <osDelay>
		sprintf((char *)VirtUart1ChannelBuffTx, "[M4] delay return \n");
10000ebe:	493c      	ldr	r1, [pc, #240]	; (10000fb0 <User_VIRT_UART1_Treatment+0x204>)
10000ec0:	4833      	ldr	r0, [pc, #204]	; (10000f90 <User_VIRT_UART1_Treatment+0x1e4>)
10000ec2:	f00b fe2f 	bl	1000cb24 <siprintf>
		VIRT_UART_Transmit(&hvirtuart1, VirtUart1ChannelBuffTx, strlen((const char *)VirtUart1ChannelBuffTx));
10000ec6:	4832      	ldr	r0, [pc, #200]	; (10000f90 <User_VIRT_UART1_Treatment+0x1e4>)
10000ec8:	f7ff f8c4 	bl	10000054 <strlen>
10000ecc:	4603      	mov	r3, r0
10000ece:	b29b      	uxth	r3, r3
10000ed0:	461a      	mov	r2, r3
10000ed2:	492f      	ldr	r1, [pc, #188]	; (10000f90 <User_VIRT_UART1_Treatment+0x1e4>)
10000ed4:	482f      	ldr	r0, [pc, #188]	; (10000f94 <User_VIRT_UART1_Treatment+0x1e8>)
10000ed6:	f00a fd87 	bl	1000b9e8 <VIRT_UART_Transmit>
}
10000eda:	e047      	b.n	10000f6c <User_VIRT_UART1_Treatment+0x1c0>
	else if(!get_DDR_isInit() && (VirtUart1ChannelBuffRx[0]=='B')) // tram to get number of SDB to init
10000edc:	f000 f9c4 	bl	10001268 <get_DDR_isInit>
10000ee0:	4603      	mov	r3, r0
10000ee2:	2b00      	cmp	r3, #0
10000ee4:	d133      	bne.n	10000f4e <User_VIRT_UART1_Treatment+0x1a2>
10000ee6:	4b25      	ldr	r3, [pc, #148]	; (10000f7c <User_VIRT_UART1_Treatment+0x1d0>)
10000ee8:	781b      	ldrb	r3, [r3, #0]
10000eea:	2b42      	cmp	r3, #66	; 0x42
10000eec:	d12f      	bne.n	10000f4e <User_VIRT_UART1_Treatment+0x1a2>
		int  numberOfBuffer=0;
10000eee:	2300      	movs	r3, #0
10000ef0:	607b      	str	r3, [r7, #4]
		for(int i=1; i<strlen((char*)VirtUart1ChannelBuffRx); i++){
10000ef2:	2301      	movs	r3, #1
10000ef4:	603b      	str	r3, [r7, #0]
10000ef6:	e01b      	b.n	10000f30 <User_VIRT_UART1_Treatment+0x184>
			if( (VirtUart1ChannelBuffRx[i]>='0') && (VirtUart1ChannelBuffRx[i]<='9') ){
10000ef8:	4a20      	ldr	r2, [pc, #128]	; (10000f7c <User_VIRT_UART1_Treatment+0x1d0>)
10000efa:	683b      	ldr	r3, [r7, #0]
10000efc:	4413      	add	r3, r2
10000efe:	781b      	ldrb	r3, [r3, #0]
10000f00:	2b2f      	cmp	r3, #47	; 0x2f
10000f02:	d91c      	bls.n	10000f3e <User_VIRT_UART1_Treatment+0x192>
10000f04:	4a1d      	ldr	r2, [pc, #116]	; (10000f7c <User_VIRT_UART1_Treatment+0x1d0>)
10000f06:	683b      	ldr	r3, [r7, #0]
10000f08:	4413      	add	r3, r2
10000f0a:	781b      	ldrb	r3, [r3, #0]
10000f0c:	2b39      	cmp	r3, #57	; 0x39
10000f0e:	d816      	bhi.n	10000f3e <User_VIRT_UART1_Treatment+0x192>
					numberOfBuffer = (numberOfBuffer*10) + (VirtUart1ChannelBuffRx[i]-'0');
10000f10:	687a      	ldr	r2, [r7, #4]
10000f12:	4613      	mov	r3, r2
10000f14:	009b      	lsls	r3, r3, #2
10000f16:	4413      	add	r3, r2
10000f18:	005b      	lsls	r3, r3, #1
10000f1a:	4619      	mov	r1, r3
10000f1c:	4a17      	ldr	r2, [pc, #92]	; (10000f7c <User_VIRT_UART1_Treatment+0x1d0>)
10000f1e:	683b      	ldr	r3, [r7, #0]
10000f20:	4413      	add	r3, r2
10000f22:	781b      	ldrb	r3, [r3, #0]
10000f24:	3b30      	subs	r3, #48	; 0x30
10000f26:	440b      	add	r3, r1
10000f28:	607b      	str	r3, [r7, #4]
		for(int i=1; i<strlen((char*)VirtUart1ChannelBuffRx); i++){
10000f2a:	683b      	ldr	r3, [r7, #0]
10000f2c:	3301      	adds	r3, #1
10000f2e:	603b      	str	r3, [r7, #0]
10000f30:	4812      	ldr	r0, [pc, #72]	; (10000f7c <User_VIRT_UART1_Treatment+0x1d0>)
10000f32:	f7ff f88f 	bl	10000054 <strlen>
10000f36:	4602      	mov	r2, r0
10000f38:	683b      	ldr	r3, [r7, #0]
10000f3a:	429a      	cmp	r2, r3
10000f3c:	d8dc      	bhi.n	10000ef8 <User_VIRT_UART1_Treatment+0x14c>
		set_DDR_bufferToInit(numberOfBuffer);
10000f3e:	6878      	ldr	r0, [r7, #4]
10000f40:	f000 f99e 	bl	10001280 <set_DDR_bufferToInit>
		set_DDR_readyToInit(1);
10000f44:	2001      	movs	r0, #1
10000f46:	f000 f9ab 	bl	100012a0 <set_DDR_readyToInit>
	{
10000f4a:	bf00      	nop
}
10000f4c:	e00e      	b.n	10000f6c <User_VIRT_UART1_Treatment+0x1c0>
		sprintf((char *)VirtUart1ChannelBuffTx, "[M4] echo : %s", VirtUart1ChannelBuffRx);
10000f4e:	4a0b      	ldr	r2, [pc, #44]	; (10000f7c <User_VIRT_UART1_Treatment+0x1d0>)
10000f50:	4918      	ldr	r1, [pc, #96]	; (10000fb4 <User_VIRT_UART1_Treatment+0x208>)
10000f52:	480f      	ldr	r0, [pc, #60]	; (10000f90 <User_VIRT_UART1_Treatment+0x1e4>)
10000f54:	f00b fde6 	bl	1000cb24 <siprintf>
		VIRT_UART_Transmit(&hvirtuart1, VirtUart1ChannelBuffTx, strlen((const char *)VirtUart1ChannelBuffTx));
10000f58:	480d      	ldr	r0, [pc, #52]	; (10000f90 <User_VIRT_UART1_Treatment+0x1e4>)
10000f5a:	f7ff f87b 	bl	10000054 <strlen>
10000f5e:	4603      	mov	r3, r0
10000f60:	b29b      	uxth	r3, r3
10000f62:	461a      	mov	r2, r3
10000f64:	490a      	ldr	r1, [pc, #40]	; (10000f90 <User_VIRT_UART1_Treatment+0x1e4>)
10000f66:	480b      	ldr	r0, [pc, #44]	; (10000f94 <User_VIRT_UART1_Treatment+0x1e8>)
10000f68:	f00a fd3e 	bl	1000b9e8 <VIRT_UART_Transmit>
}
10000f6c:	bf00      	nop
10000f6e:	3708      	adds	r7, #8
10000f70:	46bd      	mov	sp, r7
10000f72:	bdb0      	pop	{r4, r5, r7, pc}
10000f74:	1002061a 	.word	0x1002061a
10000f78:	1000d954 	.word	0x1000d954
10000f7c:	1002061c 	.word	0x1002061c
10000f80:	45e7b273 	.word	0x45e7b273
10000f84:	10624dd3 	.word	0x10624dd3
10000f88:	88888889 	.word	0x88888889
10000f8c:	1000d95c 	.word	0x1000d95c
10000f90:	1002081c 	.word	0x1002081c
10000f94:	100203c4 	.word	0x100203c4
10000f98:	1000d984 	.word	0x1000d984
10000f9c:	1000d98c 	.word	0x1000d98c
10000fa0:	50002000 	.word	0x50002000
10000fa4:	1000d99c 	.word	0x1000d99c
10000fa8:	1000d9a8 	.word	0x1000d9a8
10000fac:	1000d9b8 	.word	0x1000d9b8
10000fb0:	1000d9c0 	.word	0x1000d9c0
10000fb4:	1000d9d4 	.word	0x1000d9d4

10000fb8 <User_HDR_Init>:
int8_t mSampRepet;


////////////////////////////////////////////////////////////////////

void User_HDR_Init(void){
10000fb8:	b580      	push	{r7, lr}
10000fba:	af00      	add	r7, sp, #0
	hsdb0.rvdev =  &rvdev;
10000fbc:	4b06      	ldr	r3, [pc, #24]	; (10000fd8 <User_HDR_Init+0x20>)
10000fbe:	4a07      	ldr	r2, [pc, #28]	; (10000fdc <User_HDR_Init+0x24>)
10000fc0:	641a      	str	r2, [r3, #64]	; 0x40
	log_info("SDB OpenAMP-rpmsg channel creation\n");

	if (RPMSG_HDR_Init(&hsdb0) != RPMSG_HDR_OK) {
10000fc2:	4805      	ldr	r0, [pc, #20]	; (10000fd8 <User_HDR_Init+0x20>)
10000fc4:	f7ff fc58 	bl	10000878 <RPMSG_HDR_Init>
		log_err("RPMSG_HDR_Init HDR failed.\n");
		//Error_Handler();
	}

	if(RPMSG_HDR_RegisterCallback(&hsdb0, RPMSG_HDR_RXCPLT_CB_ID, SDB0_RxCpltCallback) != RPMSG_HDR_OK)
10000fc8:	4a05      	ldr	r2, [pc, #20]	; (10000fe0 <User_HDR_Init+0x28>)
10000fca:	2100      	movs	r1, #0
10000fcc:	4802      	ldr	r0, [pc, #8]	; (10000fd8 <User_HDR_Init+0x20>)
10000fce:	f7ff fc7b 	bl	100008c8 <RPMSG_HDR_RegisterCallback>
	{
		// Error_Handler();
	}
}
10000fd2:	bf00      	nop
10000fd4:	bd80      	pop	{r7, pc}
10000fd6:	bf00      	nop
10000fd8:	10020a20 	.word	0x10020a20
10000fdc:	10020a70 	.word	0x10020a70
10000fe0:	1000103d 	.word	0x1000103d

10000fe4 <char2hex>:

uint8_t char2hex(char asciiCar){
10000fe4:	b480      	push	{r7}
10000fe6:	b085      	sub	sp, #20
10000fe8:	af00      	add	r7, sp, #0
10000fea:	4603      	mov	r3, r0
10000fec:	71fb      	strb	r3, [r7, #7]
	uint8_t ret=0xFF;
10000fee:	23ff      	movs	r3, #255	; 0xff
10000ff0:	73fb      	strb	r3, [r7, #15]

	if( (asciiCar>='0') && (asciiCar<='9') ){
10000ff2:	79fb      	ldrb	r3, [r7, #7]
10000ff4:	2b2f      	cmp	r3, #47	; 0x2f
10000ff6:	d906      	bls.n	10001006 <char2hex+0x22>
10000ff8:	79fb      	ldrb	r3, [r7, #7]
10000ffa:	2b39      	cmp	r3, #57	; 0x39
10000ffc:	d803      	bhi.n	10001006 <char2hex+0x22>
		ret = asciiCar-'0';
10000ffe:	79fb      	ldrb	r3, [r7, #7]
10001000:	3b30      	subs	r3, #48	; 0x30
10001002:	73fb      	strb	r3, [r7, #15]
10001004:	e012      	b.n	1000102c <char2hex+0x48>
	}else if( (asciiCar>='A') && (asciiCar<='F') ){
10001006:	79fb      	ldrb	r3, [r7, #7]
10001008:	2b40      	cmp	r3, #64	; 0x40
1000100a:	d906      	bls.n	1000101a <char2hex+0x36>
1000100c:	79fb      	ldrb	r3, [r7, #7]
1000100e:	2b46      	cmp	r3, #70	; 0x46
10001010:	d803      	bhi.n	1000101a <char2hex+0x36>
		ret = asciiCar-'A'+10;
10001012:	79fb      	ldrb	r3, [r7, #7]
10001014:	3b37      	subs	r3, #55	; 0x37
10001016:	73fb      	strb	r3, [r7, #15]
10001018:	e008      	b.n	1000102c <char2hex+0x48>
	}else if( (asciiCar>='a') && (asciiCar<='f') ){
1000101a:	79fb      	ldrb	r3, [r7, #7]
1000101c:	2b60      	cmp	r3, #96	; 0x60
1000101e:	d905      	bls.n	1000102c <char2hex+0x48>
10001020:	79fb      	ldrb	r3, [r7, #7]
10001022:	2b66      	cmp	r3, #102	; 0x66
10001024:	d802      	bhi.n	1000102c <char2hex+0x48>
		ret = asciiCar-'a'+10;
10001026:	79fb      	ldrb	r3, [r7, #7]
10001028:	3b57      	subs	r3, #87	; 0x57
1000102a:	73fb      	strb	r3, [r7, #15]
	}

	return ret;
1000102c:	7bfb      	ldrb	r3, [r7, #15]
}
1000102e:	4618      	mov	r0, r3
10001030:	3714      	adds	r7, #20
10001032:	46bd      	mov	sp, r7
10001034:	f85d 7b04 	ldr.w	r7, [sp], #4
10001038:	4770      	bx	lr
	...

1000103c <SDB0_RxCpltCallback>:

// CallBack function which will be called when a DDR buffers is allocated by Linux.
void SDB0_RxCpltCallback(RPMSG_HDR_HandleTypeDef *huart)
{
1000103c:	b590      	push	{r4, r7, lr}
1000103e:	b089      	sub	sp, #36	; 0x24
10001040:	af00      	add	r7, sp, #0
10001042:	6078      	str	r0, [r7, #4]
	// copy received msg in a buffer
	SDB0ChannelRxSize = huart->RxXferSize < SDB_BUFFER_SIZE? huart->RxXferSize : SDB_BUFFER_SIZE-1;
10001044:	687b      	ldr	r3, [r7, #4]
10001046:	f8b3 3048 	ldrh.w	r3, [r3, #72]	; 0x48
1000104a:	f240 12ff 	movw	r2, #511	; 0x1ff
1000104e:	4293      	cmp	r3, r2
10001050:	bf28      	it	cs
10001052:	4613      	movcs	r3, r2
10001054:	b29a      	uxth	r2, r3
10001056:	4b3c      	ldr	r3, [pc, #240]	; (10001148 <SDB0_RxCpltCallback+0x10c>)
10001058:	801a      	strh	r2, [r3, #0]
	memcpy(SDB0ChannelBuffRx, huart->pRxBuffPtr, SDB0ChannelRxSize);
1000105a:	687b      	ldr	r3, [r7, #4]
1000105c:	6c5b      	ldr	r3, [r3, #68]	; 0x44
1000105e:	4a3a      	ldr	r2, [pc, #232]	; (10001148 <SDB0_RxCpltCallback+0x10c>)
10001060:	8812      	ldrh	r2, [r2, #0]
10001062:	4619      	mov	r1, r3
10001064:	4839      	ldr	r0, [pc, #228]	; (1000114c <SDB0_RxCpltCallback+0x110>)
10001066:	f00b fa59 	bl	1000c51c <memcpy>
	//  SDB0ChannelBuffRx[SDB0ChannelRxSize] = 0;   // insure end of String

	// SDB0RxMsg = SET;
	struct DDR_SharedBuffer tmpSharedBuffer;

	if(DDR_readyToInit && !DDR_isInit){
1000106a:	4b39      	ldr	r3, [pc, #228]	; (10001150 <SDB0_RxCpltCallback+0x114>)
1000106c:	681b      	ldr	r3, [r3, #0]
1000106e:	2b00      	cmp	r3, #0
10001070:	d062      	beq.n	10001138 <SDB0_RxCpltCallback+0xfc>
10001072:	4b38      	ldr	r3, [pc, #224]	; (10001154 <SDB0_RxCpltCallback+0x118>)
10001074:	681b      	ldr	r3, [r3, #0]
10001076:	2b00      	cmp	r3, #0
10001078:	d15e      	bne.n	10001138 <SDB0_RxCpltCallback+0xfc>
		//struct DDR_SharedBuffer tmpSharedBuffer;
		tmpSharedBuffer.physAddr=0; tmpSharedBuffer.physSize=0;
1000107a:	2300      	movs	r3, #0
1000107c:	60fb      	str	r3, [r7, #12]
1000107e:	2300      	movs	r3, #0
10001080:	617b      	str	r3, [r7, #20]

		tmpSharedBuffer.B = SDB0ChannelBuffRx[0];
10001082:	4b32      	ldr	r3, [pc, #200]	; (1000114c <SDB0_RxCpltCallback+0x110>)
10001084:	781b      	ldrb	r3, [r3, #0]
10001086:	723b      	strb	r3, [r7, #8]
		tmpSharedBuffer.id = SDB0ChannelBuffRx[1]-48;
10001088:	4b30      	ldr	r3, [pc, #192]	; (1000114c <SDB0_RxCpltCallback+0x110>)
1000108a:	785b      	ldrb	r3, [r3, #1]
1000108c:	3b30      	subs	r3, #48	; 0x30
1000108e:	b2db      	uxtb	r3, r3
10001090:	727b      	strb	r3, [r7, #9]

		tmpSharedBuffer.A = SDB0ChannelBuffRx[2];
10001092:	4b2e      	ldr	r3, [pc, #184]	; (1000114c <SDB0_RxCpltCallback+0x110>)
10001094:	789b      	ldrb	r3, [r3, #2]
10001096:	72bb      	strb	r3, [r7, #10]
		for(int i = 0; i<8; i++){
10001098:	2300      	movs	r3, #0
1000109a:	61fb      	str	r3, [r7, #28]
1000109c:	e013      	b.n	100010c6 <SDB0_RxCpltCallback+0x8a>
			tmpSharedBuffer.physAddr += ( char2hex(SDB0ChannelBuffRx[3+i])<<(28-i*4));
1000109e:	69fb      	ldr	r3, [r7, #28]
100010a0:	3303      	adds	r3, #3
100010a2:	4a2a      	ldr	r2, [pc, #168]	; (1000114c <SDB0_RxCpltCallback+0x110>)
100010a4:	5cd3      	ldrb	r3, [r2, r3]
100010a6:	4618      	mov	r0, r3
100010a8:	f7ff ff9c 	bl	10000fe4 <char2hex>
100010ac:	4603      	mov	r3, r0
100010ae:	461a      	mov	r2, r3
100010b0:	69fb      	ldr	r3, [r7, #28]
100010b2:	f1c3 0307 	rsb	r3, r3, #7
100010b6:	009b      	lsls	r3, r3, #2
100010b8:	409a      	lsls	r2, r3
100010ba:	68fb      	ldr	r3, [r7, #12]
100010bc:	4413      	add	r3, r2
100010be:	60fb      	str	r3, [r7, #12]
		for(int i = 0; i<8; i++){
100010c0:	69fb      	ldr	r3, [r7, #28]
100010c2:	3301      	adds	r3, #1
100010c4:	61fb      	str	r3, [r7, #28]
100010c6:	69fb      	ldr	r3, [r7, #28]
100010c8:	2b07      	cmp	r3, #7
100010ca:	dde8      	ble.n	1000109e <SDB0_RxCpltCallback+0x62>
		}

		tmpSharedBuffer.L = SDB0ChannelBuffRx[11];
100010cc:	4b1f      	ldr	r3, [pc, #124]	; (1000114c <SDB0_RxCpltCallback+0x110>)
100010ce:	7adb      	ldrb	r3, [r3, #11]
100010d0:	743b      	strb	r3, [r7, #16]
		for(int i = 0; i<8; i++){
100010d2:	2300      	movs	r3, #0
100010d4:	61bb      	str	r3, [r7, #24]
100010d6:	e013      	b.n	10001100 <SDB0_RxCpltCallback+0xc4>
			tmpSharedBuffer.physSize += ( char2hex(SDB0ChannelBuffRx[12+i])<<(28-i*4));
100010d8:	69bb      	ldr	r3, [r7, #24]
100010da:	330c      	adds	r3, #12
100010dc:	4a1b      	ldr	r2, [pc, #108]	; (1000114c <SDB0_RxCpltCallback+0x110>)
100010de:	5cd3      	ldrb	r3, [r2, r3]
100010e0:	4618      	mov	r0, r3
100010e2:	f7ff ff7f 	bl	10000fe4 <char2hex>
100010e6:	4603      	mov	r3, r0
100010e8:	461a      	mov	r2, r3
100010ea:	69bb      	ldr	r3, [r7, #24]
100010ec:	f1c3 0307 	rsb	r3, r3, #7
100010f0:	009b      	lsls	r3, r3, #2
100010f2:	409a      	lsls	r2, r3
100010f4:	697b      	ldr	r3, [r7, #20]
100010f6:	4413      	add	r3, r2
100010f8:	617b      	str	r3, [r7, #20]
		for(int i = 0; i<8; i++){
100010fa:	69bb      	ldr	r3, [r7, #24]
100010fc:	3301      	adds	r3, #1
100010fe:	61bb      	str	r3, [r7, #24]
10001100:	69bb      	ldr	r3, [r7, #24]
10001102:	2b07      	cmp	r3, #7
10001104:	dde8      	ble.n	100010d8 <SDB0_RxCpltCallback+0x9c>
		}

		sharedMemBuff[tmpSharedBuffer.id] = tmpSharedBuffer;
10001106:	7a7b      	ldrb	r3, [r7, #9]
10001108:	4a13      	ldr	r2, [pc, #76]	; (10001158 <SDB0_RxCpltCallback+0x11c>)
1000110a:	011b      	lsls	r3, r3, #4
1000110c:	4413      	add	r3, r2
1000110e:	461c      	mov	r4, r3
10001110:	f107 0308 	add.w	r3, r7, #8
10001114:	cb0f      	ldmia	r3, {r0, r1, r2, r3}
10001116:	e884 000f 	stmia.w	r4, {r0, r1, r2, r3}

		DDR_nbInitBuffer++;
1000111a:	4b10      	ldr	r3, [pc, #64]	; (1000115c <SDB0_RxCpltCallback+0x120>)
1000111c:	681b      	ldr	r3, [r3, #0]
1000111e:	3301      	adds	r3, #1
10001120:	4a0e      	ldr	r2, [pc, #56]	; (1000115c <SDB0_RxCpltCallback+0x120>)
10001122:	6013      	str	r3, [r2, #0]

		if(DDR_nbInitBuffer >= DDR_bufferToInit){
10001124:	4b0d      	ldr	r3, [pc, #52]	; (1000115c <SDB0_RxCpltCallback+0x120>)
10001126:	681a      	ldr	r2, [r3, #0]
10001128:	4b0d      	ldr	r3, [pc, #52]	; (10001160 <SDB0_RxCpltCallback+0x124>)
1000112a:	681b      	ldr	r3, [r3, #0]
1000112c:	429a      	cmp	r2, r3
1000112e:	db07      	blt.n	10001140 <SDB0_RxCpltCallback+0x104>
			DDR_isInit=1;
10001130:	4b08      	ldr	r3, [pc, #32]	; (10001154 <SDB0_RxCpltCallback+0x118>)
10001132:	2201      	movs	r2, #1
10001134:	601a      	str	r2, [r3, #0]
		if(DDR_nbInitBuffer >= DDR_bufferToInit){
10001136:	e003      	b.n	10001140 <SDB0_RxCpltCallback+0x104>
		}

	}else{
		SDB0RxMsg = SET;
10001138:	4b0a      	ldr	r3, [pc, #40]	; (10001164 <SDB0_RxCpltCallback+0x128>)
1000113a:	2201      	movs	r2, #1
1000113c:	701a      	strb	r2, [r3, #0]
	}

}
1000113e:	bf00      	nop
10001140:	bf00      	nop
10001142:	3724      	adds	r7, #36	; 0x24
10001144:	46bd      	mov	sp, r7
10001146:	bd90      	pop	{r4, r7, pc}
10001148:	10020d00 	.word	0x10020d00
1000114c:	10020b00 	.word	0x10020b00
10001150:	10020d08 	.word	0x10020d08
10001154:	10020d04 	.word	0x10020d04
10001158:	10020d14 	.word	0x10020d14
1000115c:	10020d0c 	.word	0x10020d0c
10001160:	10020d10 	.word	0x10020d10
10001164:	10020afc 	.word	0x10020afc

10001168 <User_SDB0_echo>:
	}

	return readbuff;
}

int User_SDB0_echo(void){
10001168:	b580      	push	{r7, lr}
1000116a:	b084      	sub	sp, #16
1000116c:	af00      	add	r7, sp, #0
	uint8_t readId = 0;
1000116e:	2300      	movs	r3, #0
10001170:	71fb      	strb	r3, [r7, #7]
	uint32_t readSize=0;
10001172:	2300      	movs	r3, #0
10001174:	60fb      	str	r3, [r7, #12]

	static int echoBufferId =1;

	// get buffer informations
	readId = SDB0ChannelBuffRx[1]-'0';
10001176:	4b36      	ldr	r3, [pc, #216]	; (10001250 <User_SDB0_echo+0xe8>)
10001178:	785b      	ldrb	r3, [r3, #1]
1000117a:	3b30      	subs	r3, #48	; 0x30
1000117c:	71fb      	strb	r3, [r7, #7]
	for(int i = 0; i<8; i++){
1000117e:	2300      	movs	r3, #0
10001180:	60bb      	str	r3, [r7, #8]
10001182:	e015      	b.n	100011b0 <User_SDB0_echo+0x48>
		readSize += ( char2hex(SDB0ChannelBuffRx[3+i])<<(28-i*4));
10001184:	68bb      	ldr	r3, [r7, #8]
10001186:	3303      	adds	r3, #3
10001188:	4a31      	ldr	r2, [pc, #196]	; (10001250 <User_SDB0_echo+0xe8>)
1000118a:	5cd3      	ldrb	r3, [r2, r3]
1000118c:	4618      	mov	r0, r3
1000118e:	f7ff ff29 	bl	10000fe4 <char2hex>
10001192:	4603      	mov	r3, r0
10001194:	461a      	mov	r2, r3
10001196:	68bb      	ldr	r3, [r7, #8]
10001198:	f1c3 0307 	rsb	r3, r3, #7
1000119c:	009b      	lsls	r3, r3, #2
1000119e:	fa02 f303 	lsl.w	r3, r2, r3
100011a2:	461a      	mov	r2, r3
100011a4:	68fb      	ldr	r3, [r7, #12]
100011a6:	4413      	add	r3, r2
100011a8:	60fb      	str	r3, [r7, #12]
	for(int i = 0; i<8; i++){
100011aa:	68bb      	ldr	r3, [r7, #8]
100011ac:	3301      	adds	r3, #1
100011ae:	60bb      	str	r3, [r7, #8]
100011b0:	68bb      	ldr	r3, [r7, #8]
100011b2:	2b07      	cmp	r3, #7
100011b4:	dde6      	ble.n	10001184 <User_SDB0_echo+0x1c>
	}

	// copy read buffer to echo buffer
	if(readSize <= sharedMemBuff[echoBufferId].physSize){
100011b6:	4b27      	ldr	r3, [pc, #156]	; (10001254 <User_SDB0_echo+0xec>)
100011b8:	681b      	ldr	r3, [r3, #0]
100011ba:	4a27      	ldr	r2, [pc, #156]	; (10001258 <User_SDB0_echo+0xf0>)
100011bc:	011b      	lsls	r3, r3, #4
100011be:	4413      	add	r3, r2
100011c0:	330c      	adds	r3, #12
100011c2:	681b      	ldr	r3, [r3, #0]
100011c4:	68fa      	ldr	r2, [r7, #12]
100011c6:	429a      	cmp	r2, r3
100011c8:	d812      	bhi.n	100011f0 <User_SDB0_echo+0x88>
		memcpy((char*)sharedMemBuff[echoBufferId].physAddr, (char*)sharedMemBuff[readId].physAddr , readSize);
100011ca:	4b22      	ldr	r3, [pc, #136]	; (10001254 <User_SDB0_echo+0xec>)
100011cc:	681b      	ldr	r3, [r3, #0]
100011ce:	4a22      	ldr	r2, [pc, #136]	; (10001258 <User_SDB0_echo+0xf0>)
100011d0:	011b      	lsls	r3, r3, #4
100011d2:	4413      	add	r3, r2
100011d4:	3304      	adds	r3, #4
100011d6:	681b      	ldr	r3, [r3, #0]
100011d8:	4618      	mov	r0, r3
100011da:	79fb      	ldrb	r3, [r7, #7]
100011dc:	4a1e      	ldr	r2, [pc, #120]	; (10001258 <User_SDB0_echo+0xf0>)
100011de:	011b      	lsls	r3, r3, #4
100011e0:	4413      	add	r3, r2
100011e2:	3304      	adds	r3, #4
100011e4:	681b      	ldr	r3, [r3, #0]
100011e6:	68fa      	ldr	r2, [r7, #12]
100011e8:	4619      	mov	r1, r3
100011ea:	f00b f997 	bl	1000c51c <memcpy>
100011ee:	e018      	b.n	10001222 <User_SDB0_echo+0xba>
	}else{
		memcpy((char*)sharedMemBuff[echoBufferId].physAddr, (char*)sharedMemBuff[readId].physAddr , sharedMemBuff[echoBufferId].physSize);
100011f0:	4b18      	ldr	r3, [pc, #96]	; (10001254 <User_SDB0_echo+0xec>)
100011f2:	681b      	ldr	r3, [r3, #0]
100011f4:	4a18      	ldr	r2, [pc, #96]	; (10001258 <User_SDB0_echo+0xf0>)
100011f6:	011b      	lsls	r3, r3, #4
100011f8:	4413      	add	r3, r2
100011fa:	3304      	adds	r3, #4
100011fc:	681b      	ldr	r3, [r3, #0]
100011fe:	4618      	mov	r0, r3
10001200:	79fb      	ldrb	r3, [r7, #7]
10001202:	4a15      	ldr	r2, [pc, #84]	; (10001258 <User_SDB0_echo+0xf0>)
10001204:	011b      	lsls	r3, r3, #4
10001206:	4413      	add	r3, r2
10001208:	3304      	adds	r3, #4
1000120a:	681b      	ldr	r3, [r3, #0]
1000120c:	4619      	mov	r1, r3
1000120e:	4b11      	ldr	r3, [pc, #68]	; (10001254 <User_SDB0_echo+0xec>)
10001210:	681b      	ldr	r3, [r3, #0]
10001212:	4a11      	ldr	r2, [pc, #68]	; (10001258 <User_SDB0_echo+0xf0>)
10001214:	011b      	lsls	r3, r3, #4
10001216:	4413      	add	r3, r2
10001218:	330c      	adds	r3, #12
1000121a:	681b      	ldr	r3, [r3, #0]
1000121c:	461a      	mov	r2, r3
1000121e:	f00b f97d 	bl	1000c51c <memcpy>
	}

	// send buffer to SDB
	sprintf(mSdbBuffTx, "B%dL%08x", echoBufferId, readSize);
10001222:	4b0c      	ldr	r3, [pc, #48]	; (10001254 <User_SDB0_echo+0xec>)
10001224:	681a      	ldr	r2, [r3, #0]
10001226:	68fb      	ldr	r3, [r7, #12]
10001228:	490c      	ldr	r1, [pc, #48]	; (1000125c <User_SDB0_echo+0xf4>)
1000122a:	480d      	ldr	r0, [pc, #52]	; (10001260 <User_SDB0_echo+0xf8>)
1000122c:	f00b fc7a 	bl	1000cb24 <siprintf>
	RPMSG_HDR_Transmit(&hsdb0, (uint8_t*)mSdbBuffTx, strlen(mSdbBuffTx));
10001230:	480b      	ldr	r0, [pc, #44]	; (10001260 <User_SDB0_echo+0xf8>)
10001232:	f7fe ff0f 	bl	10000054 <strlen>
10001236:	4603      	mov	r3, r0
10001238:	b29b      	uxth	r3, r3
1000123a:	461a      	mov	r2, r3
1000123c:	4908      	ldr	r1, [pc, #32]	; (10001260 <User_SDB0_echo+0xf8>)
1000123e:	4809      	ldr	r0, [pc, #36]	; (10001264 <User_SDB0_echo+0xfc>)
10001240:	f7ff fb58 	bl	100008f4 <RPMSG_HDR_Transmit>

	return 0;
10001244:	2300      	movs	r3, #0
}
10001246:	4618      	mov	r0, r3
10001248:	3710      	adds	r7, #16
1000124a:	46bd      	mov	sp, r7
1000124c:	bd80      	pop	{r7, pc}
1000124e:	bf00      	nop
10001250:	10020b00 	.word	0x10020b00
10001254:	10020004 	.word	0x10020004
10001258:	10020d14 	.word	0x10020d14
1000125c:	1000d9e4 	.word	0x1000d9e4
10001260:	10020db4 	.word	0x10020db4
10001264:	10020a20 	.word	0x10020a20

10001268 <get_DDR_isInit>:
	}

	return 0;
}

int get_DDR_isInit(void){
10001268:	b480      	push	{r7}
1000126a:	af00      	add	r7, sp, #0
	return DDR_isInit;
1000126c:	4b03      	ldr	r3, [pc, #12]	; (1000127c <get_DDR_isInit+0x14>)
1000126e:	681b      	ldr	r3, [r3, #0]
}
10001270:	4618      	mov	r0, r3
10001272:	46bd      	mov	sp, r7
10001274:	f85d 7b04 	ldr.w	r7, [sp], #4
10001278:	4770      	bx	lr
1000127a:	bf00      	nop
1000127c:	10020d04 	.word	0x10020d04

10001280 <set_DDR_bufferToInit>:

void set_DDR_isInit(int state){
	DDR_isInit = state;
}

void set_DDR_bufferToInit(int state){
10001280:	b480      	push	{r7}
10001282:	b083      	sub	sp, #12
10001284:	af00      	add	r7, sp, #0
10001286:	6078      	str	r0, [r7, #4]
	DDR_bufferToInit = state;
10001288:	4a04      	ldr	r2, [pc, #16]	; (1000129c <set_DDR_bufferToInit+0x1c>)
1000128a:	687b      	ldr	r3, [r7, #4]
1000128c:	6013      	str	r3, [r2, #0]
}
1000128e:	bf00      	nop
10001290:	370c      	adds	r7, #12
10001292:	46bd      	mov	sp, r7
10001294:	f85d 7b04 	ldr.w	r7, [sp], #4
10001298:	4770      	bx	lr
1000129a:	bf00      	nop
1000129c:	10020d10 	.word	0x10020d10

100012a0 <set_DDR_readyToInit>:

void set_DDR_readyToInit(int state){
100012a0:	b480      	push	{r7}
100012a2:	b083      	sub	sp, #12
100012a4:	af00      	add	r7, sp, #0
100012a6:	6078      	str	r0, [r7, #4]
	DDR_readyToInit = state;
100012a8:	4a04      	ldr	r2, [pc, #16]	; (100012bc <set_DDR_readyToInit+0x1c>)
100012aa:	687b      	ldr	r3, [r7, #4]
100012ac:	6013      	str	r3, [r2, #0]
}
100012ae:	bf00      	nop
100012b0:	370c      	adds	r7, #12
100012b2:	46bd      	mov	sp, r7
100012b4:	f85d 7b04 	ldr.w	r7, [sp], #4
100012b8:	4770      	bx	lr
100012ba:	bf00      	nop
100012bc:	10020d08 	.word	0x10020d08

100012c0 <ADC1_IRQHandler>:
 * @retval : None
*/
    .section .text.Default_Handler,"ax",%progbits
Default_Handler:
Infinite_Loop:
  b Infinite_Loop
100012c0:	e7fe      	b.n	100012c0 <ADC1_IRQHandler>
	...

100012c4 <HAL_Init>:
  *         need to ensure that the SysTick time base is always set to 1 millisecond
  *         to have correct HAL operation.
  * @retval HAL status
  */
HAL_StatusTypeDef HAL_Init(void)
{
100012c4:	b580      	push	{r7, lr}
100012c6:	af00      	add	r7, sp, #0
  /* Set Interrupt Group Priority */
#if defined (CORE_CM4)
  HAL_NVIC_SetPriorityGrouping(NVIC_PRIORITYGROUP_4);
100012c8:	2003      	movs	r0, #3
100012ca:	f000 f906 	bl	100014da <HAL_NVIC_SetPriorityGrouping>
#endif

  /* Update the SystemCoreClock global variable */
  SystemCoreClock = HAL_RCC_GetSystemCoreClockFreq();
100012ce:	f002 fafd 	bl	100038cc <HAL_RCC_GetSystemCoreClockFreq>
100012d2:	4603      	mov	r3, r0
100012d4:	4a07      	ldr	r2, [pc, #28]	; (100012f4 <HAL_Init+0x30>)
100012d6:	6013      	str	r3, [r2, #0]

  /* Use systick as time base source and configure 1ms tick (default clock after Reset is HSI) */
  if(HAL_InitTick(TICK_INT_PRIORITY) != HAL_OK)
100012d8:	200f      	movs	r0, #15
100012da:	f7ff fb85 	bl	100009e8 <HAL_InitTick>
100012de:	4603      	mov	r3, r0
100012e0:	2b00      	cmp	r3, #0
100012e2:	d001      	beq.n	100012e8 <HAL_Init+0x24>
  {
    return HAL_ERROR;
100012e4:	2301      	movs	r3, #1
100012e6:	e002      	b.n	100012ee <HAL_Init+0x2a>
  }

  /* Init the low level hardware */
  HAL_MspInit();
100012e8:	f7ff fb22 	bl	10000930 <HAL_MspInit>

  /* Return function status */
  return HAL_OK;
100012ec:	2300      	movs	r3, #0
}
100012ee:	4618      	mov	r0, r3
100012f0:	bd80      	pop	{r7, pc}
100012f2:	bf00      	nop
100012f4:	10020000 	.word	0x10020000

100012f8 <HAL_IncTick>:
 * @note This function is declared as __weak to be overwritten in case of other
  *      implementations in user file.
  * @retval None
  */
__weak void HAL_IncTick(void)
{
100012f8:	b480      	push	{r7}
100012fa:	af00      	add	r7, sp, #0
  uwTick += (uint32_t)uwTickFreq;
100012fc:	4b06      	ldr	r3, [pc, #24]	; (10001318 <HAL_IncTick+0x20>)
100012fe:	781b      	ldrb	r3, [r3, #0]
10001300:	461a      	mov	r2, r3
10001302:	4b06      	ldr	r3, [pc, #24]	; (1000131c <HAL_IncTick+0x24>)
10001304:	681b      	ldr	r3, [r3, #0]
10001306:	4413      	add	r3, r2
10001308:	4a04      	ldr	r2, [pc, #16]	; (1000131c <HAL_IncTick+0x24>)
1000130a:	6013      	str	r3, [r2, #0]
}
1000130c:	bf00      	nop
1000130e:	46bd      	mov	sp, r7
10001310:	f85d 7b04 	ldr.w	r7, [sp], #4
10001314:	4770      	bx	lr
10001316:	bf00      	nop
10001318:	1002000c 	.word	0x1002000c
1000131c:	10020fb4 	.word	0x10020fb4

10001320 <HAL_GetTick>:
  * @note This function is declared as __weak to be overwritten in case of other
  *       implementations in user file.
  * @retval tick value
  */
__weak uint32_t HAL_GetTick(void)
{
10001320:	b480      	push	{r7}
10001322:	af00      	add	r7, sp, #0
#endif /* CORE_CA7 */


#if defined (CORE_CM4)
  /* tick is incremented in systick handler */
  return uwTick;
10001324:	4b03      	ldr	r3, [pc, #12]	; (10001334 <HAL_GetTick+0x14>)
10001326:	681b      	ldr	r3, [r3, #0]
#endif /* CORE_CM4 */

}
10001328:	4618      	mov	r0, r3
1000132a:	46bd      	mov	sp, r7
1000132c:	f85d 7b04 	ldr.w	r7, [sp], #4
10001330:	4770      	bx	lr
10001332:	bf00      	nop
10001334:	10020fb4 	.word	0x10020fb4

10001338 <__NVIC_SetPriorityGrouping>:
           In case of a conflict between priority grouping and available
           priority bits (__NVIC_PRIO_BITS), the smallest possible priority group is set.
  \param [in]      PriorityGroup  Priority grouping field.
 */
__STATIC_INLINE void __NVIC_SetPriorityGrouping(uint32_t PriorityGroup)
{
10001338:	b480      	push	{r7}
1000133a:	b085      	sub	sp, #20
1000133c:	af00      	add	r7, sp, #0
1000133e:	6078      	str	r0, [r7, #4]
  uint32_t reg_value;
  uint32_t PriorityGroupTmp = (PriorityGroup & (uint32_t)0x07UL);             /* only values 0..7 are used          */
10001340:	687b      	ldr	r3, [r7, #4]
10001342:	f003 0307 	and.w	r3, r3, #7
10001346:	60fb      	str	r3, [r7, #12]

  reg_value  =  SCB->AIRCR;                                                   /* read old register configuration    */
10001348:	4b0c      	ldr	r3, [pc, #48]	; (1000137c <__NVIC_SetPriorityGrouping+0x44>)
1000134a:	68db      	ldr	r3, [r3, #12]
1000134c:	60bb      	str	r3, [r7, #8]
  reg_value &= ~((uint32_t)(SCB_AIRCR_VECTKEY_Msk | SCB_AIRCR_PRIGROUP_Msk)); /* clear bits to change               */
1000134e:	68ba      	ldr	r2, [r7, #8]
10001350:	f64f 03ff 	movw	r3, #63743	; 0xf8ff
10001354:	4013      	ands	r3, r2
10001356:	60bb      	str	r3, [r7, #8]
  reg_value  =  (reg_value                                   |
                ((uint32_t)0x5FAUL << SCB_AIRCR_VECTKEY_Pos) |
                (PriorityGroupTmp << SCB_AIRCR_PRIGROUP_Pos)  );              /* Insert write key and priority group */
10001358:	68fb      	ldr	r3, [r7, #12]
1000135a:	021a      	lsls	r2, r3, #8
                ((uint32_t)0x5FAUL << SCB_AIRCR_VECTKEY_Pos) |
1000135c:	68bb      	ldr	r3, [r7, #8]
1000135e:	4313      	orrs	r3, r2
  reg_value  =  (reg_value                                   |
10001360:	f043 63bf 	orr.w	r3, r3, #100139008	; 0x5f80000
10001364:	f443 3300 	orr.w	r3, r3, #131072	; 0x20000
10001368:	60bb      	str	r3, [r7, #8]
  SCB->AIRCR =  reg_value;
1000136a:	4a04      	ldr	r2, [pc, #16]	; (1000137c <__NVIC_SetPriorityGrouping+0x44>)
1000136c:	68bb      	ldr	r3, [r7, #8]
1000136e:	60d3      	str	r3, [r2, #12]
}
10001370:	bf00      	nop
10001372:	3714      	adds	r7, #20
10001374:	46bd      	mov	sp, r7
10001376:	f85d 7b04 	ldr.w	r7, [sp], #4
1000137a:	4770      	bx	lr
1000137c:	e000ed00 	.word	0xe000ed00

10001380 <__NVIC_GetPriorityGrouping>:
  \brief   Get Priority Grouping
  \details Reads the priority grouping field from the NVIC Interrupt Controller.
  \return                Priority grouping field (SCB->AIRCR [10:8] PRIGROUP field).
 */
__STATIC_INLINE uint32_t __NVIC_GetPriorityGrouping(void)
{
10001380:	b480      	push	{r7}
10001382:	af00      	add	r7, sp, #0
  return ((uint32_t)((SCB->AIRCR & SCB_AIRCR_PRIGROUP_Msk) >> SCB_AIRCR_PRIGROUP_Pos));
10001384:	4b04      	ldr	r3, [pc, #16]	; (10001398 <__NVIC_GetPriorityGrouping+0x18>)
10001386:	68db      	ldr	r3, [r3, #12]
10001388:	0a1b      	lsrs	r3, r3, #8
1000138a:	f003 0307 	and.w	r3, r3, #7
}
1000138e:	4618      	mov	r0, r3
10001390:	46bd      	mov	sp, r7
10001392:	f85d 7b04 	ldr.w	r7, [sp], #4
10001396:	4770      	bx	lr
10001398:	e000ed00 	.word	0xe000ed00

1000139c <__NVIC_EnableIRQ>:
  \details Enables a device specific interrupt in the NVIC interrupt controller.
  \param [in]      IRQn  Device specific interrupt number.
  \note    IRQn must not be negative.
 */
__STATIC_INLINE void __NVIC_EnableIRQ(IRQn_Type IRQn)
{
1000139c:	b480      	push	{r7}
1000139e:	b083      	sub	sp, #12
100013a0:	af00      	add	r7, sp, #0
100013a2:	4603      	mov	r3, r0
100013a4:	80fb      	strh	r3, [r7, #6]
  if ((int32_t)(IRQn) >= 0)
100013a6:	f9b7 3006 	ldrsh.w	r3, [r7, #6]
100013aa:	2b00      	cmp	r3, #0
100013ac:	db0b      	blt.n	100013c6 <__NVIC_EnableIRQ+0x2a>
  {
    __COMPILER_BARRIER();
    NVIC->ISER[(((uint32_t)IRQn) >> 5UL)] = (uint32_t)(1UL << (((uint32_t)IRQn) & 0x1FUL));
100013ae:	88fb      	ldrh	r3, [r7, #6]
100013b0:	f003 021f 	and.w	r2, r3, #31
100013b4:	4907      	ldr	r1, [pc, #28]	; (100013d4 <__NVIC_EnableIRQ+0x38>)
100013b6:	f9b7 3006 	ldrsh.w	r3, [r7, #6]
100013ba:	095b      	lsrs	r3, r3, #5
100013bc:	2001      	movs	r0, #1
100013be:	fa00 f202 	lsl.w	r2, r0, r2
100013c2:	f841 2023 	str.w	r2, [r1, r3, lsl #2]
    __COMPILER_BARRIER();
  }
}
100013c6:	bf00      	nop
100013c8:	370c      	adds	r7, #12
100013ca:	46bd      	mov	sp, r7
100013cc:	f85d 7b04 	ldr.w	r7, [sp], #4
100013d0:	4770      	bx	lr
100013d2:	bf00      	nop
100013d4:	e000e100 	.word	0xe000e100

100013d8 <__NVIC_DisableIRQ>:
  \details Disables a device specific interrupt in the NVIC interrupt controller.
  \param [in]      IRQn  Device specific interrupt number.
  \note    IRQn must not be negative.
 */
__STATIC_INLINE void __NVIC_DisableIRQ(IRQn_Type IRQn)
{
100013d8:	b480      	push	{r7}
100013da:	b083      	sub	sp, #12
100013dc:	af00      	add	r7, sp, #0
100013de:	4603      	mov	r3, r0
100013e0:	80fb      	strh	r3, [r7, #6]
  if ((int32_t)(IRQn) >= 0)
100013e2:	f9b7 3006 	ldrsh.w	r3, [r7, #6]
100013e6:	2b00      	cmp	r3, #0
100013e8:	db12      	blt.n	10001410 <__NVIC_DisableIRQ+0x38>
  {
    NVIC->ICER[(((uint32_t)IRQn) >> 5UL)] = (uint32_t)(1UL << (((uint32_t)IRQn) & 0x1FUL));
100013ea:	88fb      	ldrh	r3, [r7, #6]
100013ec:	f003 021f 	and.w	r2, r3, #31
100013f0:	490a      	ldr	r1, [pc, #40]	; (1000141c <__NVIC_DisableIRQ+0x44>)
100013f2:	f9b7 3006 	ldrsh.w	r3, [r7, #6]
100013f6:	095b      	lsrs	r3, r3, #5
100013f8:	2001      	movs	r0, #1
100013fa:	fa00 f202 	lsl.w	r2, r0, r2
100013fe:	3320      	adds	r3, #32
10001400:	f841 2023 	str.w	r2, [r1, r3, lsl #2]
  \details Acts as a special kind of Data Memory Barrier.
           It completes when all explicit memory accesses before this instruction complete.
 */
__STATIC_FORCEINLINE void __DSB(void)
{
  __ASM volatile ("dsb 0xF":::"memory");
10001404:	f3bf 8f4f 	dsb	sy
}
10001408:	bf00      	nop
  __ASM volatile ("isb 0xF":::"memory");
1000140a:	f3bf 8f6f 	isb	sy
}
1000140e:	bf00      	nop
    __DSB();
    __ISB();
  }
}
10001410:	bf00      	nop
10001412:	370c      	adds	r7, #12
10001414:	46bd      	mov	sp, r7
10001416:	f85d 7b04 	ldr.w	r7, [sp], #4
1000141a:	4770      	bx	lr
1000141c:	e000e100 	.word	0xe000e100

10001420 <__NVIC_SetPriority>:
  \param [in]      IRQn  Interrupt number.
  \param [in]  priority  Priority to set.
  \note    The priority cannot be set for every processor exception.
 */
__STATIC_INLINE void __NVIC_SetPriority(IRQn_Type IRQn, uint32_t priority)
{
10001420:	b480      	push	{r7}
10001422:	b083      	sub	sp, #12
10001424:	af00      	add	r7, sp, #0
10001426:	4603      	mov	r3, r0
10001428:	6039      	str	r1, [r7, #0]
1000142a:	80fb      	strh	r3, [r7, #6]
  if ((int32_t)(IRQn) >= 0)
1000142c:	f9b7 3006 	ldrsh.w	r3, [r7, #6]
10001430:	2b00      	cmp	r3, #0
10001432:	db0a      	blt.n	1000144a <__NVIC_SetPriority+0x2a>
  {
    NVIC->IP[((uint32_t)IRQn)]               = (uint8_t)((priority << (8U - __NVIC_PRIO_BITS)) & (uint32_t)0xFFUL);
10001434:	683b      	ldr	r3, [r7, #0]
10001436:	b2da      	uxtb	r2, r3
10001438:	490c      	ldr	r1, [pc, #48]	; (1000146c <__NVIC_SetPriority+0x4c>)
1000143a:	f9b7 3006 	ldrsh.w	r3, [r7, #6]
1000143e:	0112      	lsls	r2, r2, #4
10001440:	b2d2      	uxtb	r2, r2
10001442:	440b      	add	r3, r1
10001444:	f883 2300 	strb.w	r2, [r3, #768]	; 0x300
  }
  else
  {
    SCB->SHP[(((uint32_t)IRQn) & 0xFUL)-4UL] = (uint8_t)((priority << (8U - __NVIC_PRIO_BITS)) & (uint32_t)0xFFUL);
  }
}
10001448:	e00a      	b.n	10001460 <__NVIC_SetPriority+0x40>
    SCB->SHP[(((uint32_t)IRQn) & 0xFUL)-4UL] = (uint8_t)((priority << (8U - __NVIC_PRIO_BITS)) & (uint32_t)0xFFUL);
1000144a:	683b      	ldr	r3, [r7, #0]
1000144c:	b2da      	uxtb	r2, r3
1000144e:	4908      	ldr	r1, [pc, #32]	; (10001470 <__NVIC_SetPriority+0x50>)
10001450:	88fb      	ldrh	r3, [r7, #6]
10001452:	f003 030f 	and.w	r3, r3, #15
10001456:	3b04      	subs	r3, #4
10001458:	0112      	lsls	r2, r2, #4
1000145a:	b2d2      	uxtb	r2, r2
1000145c:	440b      	add	r3, r1
1000145e:	761a      	strb	r2, [r3, #24]
}
10001460:	bf00      	nop
10001462:	370c      	adds	r7, #12
10001464:	46bd      	mov	sp, r7
10001466:	f85d 7b04 	ldr.w	r7, [sp], #4
1000146a:	4770      	bx	lr
1000146c:	e000e100 	.word	0xe000e100
10001470:	e000ed00 	.word	0xe000ed00

10001474 <NVIC_EncodePriority>:
  \param [in]   PreemptPriority  Preemptive priority value (starting from 0).
  \param [in]       SubPriority  Subpriority value (starting from 0).
  \return                        Encoded priority. Value can be used in the function \ref NVIC_SetPriority().
 */
__STATIC_INLINE uint32_t NVIC_EncodePriority (uint32_t PriorityGroup, uint32_t PreemptPriority, uint32_t SubPriority)
{
10001474:	b480      	push	{r7}
10001476:	b089      	sub	sp, #36	; 0x24
10001478:	af00      	add	r7, sp, #0
1000147a:	60f8      	str	r0, [r7, #12]
1000147c:	60b9      	str	r1, [r7, #8]
1000147e:	607a      	str	r2, [r7, #4]
  uint32_t PriorityGroupTmp = (PriorityGroup & (uint32_t)0x07UL);   /* only values 0..7 are used          */
10001480:	68fb      	ldr	r3, [r7, #12]
10001482:	f003 0307 	and.w	r3, r3, #7
10001486:	61fb      	str	r3, [r7, #28]
  uint32_t PreemptPriorityBits;
  uint32_t SubPriorityBits;

  PreemptPriorityBits = ((7UL - PriorityGroupTmp) > (uint32_t)(__NVIC_PRIO_BITS)) ? (uint32_t)(__NVIC_PRIO_BITS) : (uint32_t)(7UL - PriorityGroupTmp);
10001488:	69fb      	ldr	r3, [r7, #28]
1000148a:	f1c3 0307 	rsb	r3, r3, #7
1000148e:	2b04      	cmp	r3, #4
10001490:	bf28      	it	cs
10001492:	2304      	movcs	r3, #4
10001494:	61bb      	str	r3, [r7, #24]
  SubPriorityBits     = ((PriorityGroupTmp + (uint32_t)(__NVIC_PRIO_BITS)) < (uint32_t)7UL) ? (uint32_t)0UL : (uint32_t)((PriorityGroupTmp - 7UL) + (uint32_t)(__NVIC_PRIO_BITS));
10001496:	69fb      	ldr	r3, [r7, #28]
10001498:	3304      	adds	r3, #4
1000149a:	2b06      	cmp	r3, #6
1000149c:	d902      	bls.n	100014a4 <NVIC_EncodePriority+0x30>
1000149e:	69fb      	ldr	r3, [r7, #28]
100014a0:	3b03      	subs	r3, #3
100014a2:	e000      	b.n	100014a6 <NVIC_EncodePriority+0x32>
100014a4:	2300      	movs	r3, #0
100014a6:	617b      	str	r3, [r7, #20]

  return (
           ((PreemptPriority & (uint32_t)((1UL << (PreemptPriorityBits)) - 1UL)) << SubPriorityBits) |
100014a8:	f04f 32ff 	mov.w	r2, #4294967295
100014ac:	69bb      	ldr	r3, [r7, #24]
100014ae:	fa02 f303 	lsl.w	r3, r2, r3
100014b2:	43da      	mvns	r2, r3
100014b4:	68bb      	ldr	r3, [r7, #8]
100014b6:	401a      	ands	r2, r3
100014b8:	697b      	ldr	r3, [r7, #20]
100014ba:	409a      	lsls	r2, r3
           ((SubPriority     & (uint32_t)((1UL << (SubPriorityBits    )) - 1UL)))
100014bc:	f04f 31ff 	mov.w	r1, #4294967295
100014c0:	697b      	ldr	r3, [r7, #20]
100014c2:	fa01 f303 	lsl.w	r3, r1, r3
100014c6:	43d9      	mvns	r1, r3
100014c8:	687b      	ldr	r3, [r7, #4]
100014ca:	400b      	ands	r3, r1
           ((PreemptPriority & (uint32_t)((1UL << (PreemptPriorityBits)) - 1UL)) << SubPriorityBits) |
100014cc:	4313      	orrs	r3, r2
         );
}
100014ce:	4618      	mov	r0, r3
100014d0:	3724      	adds	r7, #36	; 0x24
100014d2:	46bd      	mov	sp, r7
100014d4:	f85d 7b04 	ldr.w	r7, [sp], #4
100014d8:	4770      	bx	lr

100014da <HAL_NVIC_SetPriorityGrouping>:
  * @note   When the NVIC_PriorityGroup_0 is selected, IRQ preemption is no more possible.
  *         The pending IRQ priority will be managed only by the subpriority.
  * @retval None
  */
void HAL_NVIC_SetPriorityGrouping(uint32_t PriorityGroup)
{
100014da:	b580      	push	{r7, lr}
100014dc:	b082      	sub	sp, #8
100014de:	af00      	add	r7, sp, #0
100014e0:	6078      	str	r0, [r7, #4]
  /* Check the parameters */
  assert_param(IS_NVIC_PRIORITY_GROUP(PriorityGroup));

  /* Set the PRIGROUP[10:8] bits according to the PriorityGroup parameter value */
  NVIC_SetPriorityGrouping(PriorityGroup);
100014e2:	6878      	ldr	r0, [r7, #4]
100014e4:	f7ff ff28 	bl	10001338 <__NVIC_SetPriorityGrouping>
}
100014e8:	bf00      	nop
100014ea:	3708      	adds	r7, #8
100014ec:	46bd      	mov	sp, r7
100014ee:	bd80      	pop	{r7, pc}

100014f0 <HAL_NVIC_SetPriority>:
  *         This parameter can be a value between 0 and 15
  *         A lower priority value indicates a higher priority.
  * @retval None
  */
void HAL_NVIC_SetPriority(IRQn_Type IRQn, uint32_t PreemptPriority, uint32_t SubPriority)
{
100014f0:	b580      	push	{r7, lr}
100014f2:	b086      	sub	sp, #24
100014f4:	af00      	add	r7, sp, #0
100014f6:	4603      	mov	r3, r0
100014f8:	60b9      	str	r1, [r7, #8]
100014fa:	607a      	str	r2, [r7, #4]
100014fc:	81fb      	strh	r3, [r7, #14]
  uint32_t prioritygroup = 0x00;
100014fe:	2300      	movs	r3, #0
10001500:	617b      	str	r3, [r7, #20]

  /* Check the parameters */
  assert_param(IS_NVIC_SUB_PRIORITY(SubPriority));
  assert_param(IS_NVIC_PREEMPTION_PRIORITY(PreemptPriority));

  prioritygroup = NVIC_GetPriorityGrouping();
10001502:	f7ff ff3d 	bl	10001380 <__NVIC_GetPriorityGrouping>
10001506:	6178      	str	r0, [r7, #20]

  NVIC_SetPriority(IRQn, NVIC_EncodePriority(prioritygroup, PreemptPriority, SubPriority));
10001508:	687a      	ldr	r2, [r7, #4]
1000150a:	68b9      	ldr	r1, [r7, #8]
1000150c:	6978      	ldr	r0, [r7, #20]
1000150e:	f7ff ffb1 	bl	10001474 <NVIC_EncodePriority>
10001512:	4602      	mov	r2, r0
10001514:	f9b7 300e 	ldrsh.w	r3, [r7, #14]
10001518:	4611      	mov	r1, r2
1000151a:	4618      	mov	r0, r3
1000151c:	f7ff ff80 	bl	10001420 <__NVIC_SetPriority>
}
10001520:	bf00      	nop
10001522:	3718      	adds	r7, #24
10001524:	46bd      	mov	sp, r7
10001526:	bd80      	pop	{r7, pc}

10001528 <HAL_NVIC_EnableIRQ>:
  *         This parameter can be an enumerator of IRQn_Type enumeration
  *         (For the complete STM32 Devices IRQ Channels list, please refer to the appropriate CMSIS device file (stm32mp1xxxx.h))
  * @retval None
  */
void HAL_NVIC_EnableIRQ(IRQn_Type IRQn)
{
10001528:	b580      	push	{r7, lr}
1000152a:	b082      	sub	sp, #8
1000152c:	af00      	add	r7, sp, #0
1000152e:	4603      	mov	r3, r0
10001530:	80fb      	strh	r3, [r7, #6]
  /* Check the parameters */
  assert_param(IS_NVIC_DEVICE_IRQ(IRQn));

  /* Enable interrupt */
  NVIC_EnableIRQ(IRQn);
10001532:	f9b7 3006 	ldrsh.w	r3, [r7, #6]
10001536:	4618      	mov	r0, r3
10001538:	f7ff ff30 	bl	1000139c <__NVIC_EnableIRQ>
}
1000153c:	bf00      	nop
1000153e:	3708      	adds	r7, #8
10001540:	46bd      	mov	sp, r7
10001542:	bd80      	pop	{r7, pc}

10001544 <HAL_NVIC_DisableIRQ>:
  *         This parameter can be an enumerator of IRQn_Type enumeration
  *         (For the complete STM32 Devices IRQ Channels list, please refer to the appropriate CMSIS device file (stm32mp1xxxx.h))
  * @retval None
  */
void HAL_NVIC_DisableIRQ(IRQn_Type IRQn)
{
10001544:	b580      	push	{r7, lr}
10001546:	b082      	sub	sp, #8
10001548:	af00      	add	r7, sp, #0
1000154a:	4603      	mov	r3, r0
1000154c:	80fb      	strh	r3, [r7, #6]
  /* Check the parameters */
  assert_param(IS_NVIC_DEVICE_IRQ(IRQn));

  /* Disable interrupt */
  NVIC_DisableIRQ(IRQn);
1000154e:	f9b7 3006 	ldrsh.w	r3, [r7, #6]
10001552:	4618      	mov	r0, r3
10001554:	f7ff ff40 	bl	100013d8 <__NVIC_DisableIRQ>
}
10001558:	bf00      	nop
1000155a:	3708      	adds	r7, #8
1000155c:	46bd      	mov	sp, r7
1000155e:	bd80      	pop	{r7, pc}

10001560 <HAL_DMA_Init>:
  * @param  hdma: Pointer to a DMA_HandleTypeDef structure that contains
  *               the configuration information for the specified DMA Stream.
  * @retval HAL status
  */
HAL_StatusTypeDef HAL_DMA_Init(DMA_HandleTypeDef *hdma)
{
10001560:	b580      	push	{r7, lr}
10001562:	b086      	sub	sp, #24
10001564:	af00      	add	r7, sp, #0
10001566:	6078      	str	r0, [r7, #4]
  uint32_t registerValue;
  uint32_t tickstart = HAL_GetTick();
10001568:	f7ff feda 	bl	10001320 <HAL_GetTick>
1000156c:	6138      	str	r0, [r7, #16]
  DMA_Base_Registers *regs;

  /* Check the DMA peripheral handle */
  if (hdma == NULL)
1000156e:	687b      	ldr	r3, [r7, #4]
10001570:	2b00      	cmp	r3, #0
10001572:	d101      	bne.n	10001578 <HAL_DMA_Init+0x18>
  {
    return HAL_ERROR;
10001574:	2301      	movs	r3, #1
10001576:	e0e5      	b.n	10001744 <HAL_DMA_Init+0x1e4>
  assert_param(IS_DMA_MEMORY_DATA_SIZE(hdma->Init.MemDataAlignment));
  assert_param(IS_DMA_MODE(hdma->Init.Mode));
  assert_param(IS_DMA_PRIORITY(hdma->Init.Priority));


  if (IS_DMA_INSTANCE(hdma) != RESET) /*DMA2/DMA1 stream */
10001578:	687b      	ldr	r3, [r7, #4]
1000157a:	681b      	ldr	r3, [r3, #0]
1000157c:	461a      	mov	r2, r3
1000157e:	4b73      	ldr	r3, [pc, #460]	; (1000174c <HAL_DMA_Init+0x1ec>)
10001580:	429a      	cmp	r2, r3
10001582:	d907      	bls.n	10001594 <HAL_DMA_Init+0x34>
10001584:	687b      	ldr	r3, [r7, #4]
10001586:	681b      	ldr	r3, [r3, #0]
10001588:	461a      	mov	r2, r3
1000158a:	4b71      	ldr	r3, [pc, #452]	; (10001750 <HAL_DMA_Init+0x1f0>)
1000158c:	429a      	cmp	r2, r3
1000158e:	d801      	bhi.n	10001594 <HAL_DMA_Init+0x34>
10001590:	2301      	movs	r3, #1
10001592:	e000      	b.n	10001596 <HAL_DMA_Init+0x36>
10001594:	2300      	movs	r3, #0
10001596:	2b00      	cmp	r3, #0
10001598:	f000 8097 	beq.w	100016ca <HAL_DMA_Init+0x16a>
      assert_param(IS_DMA_MEMORY_BURST(hdma->Init.MemBurst));
      assert_param(IS_DMA_PERIPHERAL_BURST(hdma->Init.PeriphBurst));
    }

    /* Allocate lock resource */
    __HAL_UNLOCK(hdma);
1000159c:	687b      	ldr	r3, [r7, #4]
1000159e:	2200      	movs	r2, #0
100015a0:	f883 2034 	strb.w	r2, [r3, #52]	; 0x34

    /* Change DMA peripheral state */
    hdma->State = HAL_DMA_STATE_BUSY;
100015a4:	687b      	ldr	r3, [r7, #4]
100015a6:	2202      	movs	r2, #2
100015a8:	f883 2035 	strb.w	r2, [r3, #53]	; 0x35

    /* Disable the peripheral */
    __HAL_DMA_DISABLE(hdma);
100015ac:	687b      	ldr	r3, [r7, #4]
100015ae:	681b      	ldr	r3, [r3, #0]
100015b0:	681a      	ldr	r2, [r3, #0]
100015b2:	687b      	ldr	r3, [r7, #4]
100015b4:	681b      	ldr	r3, [r3, #0]
100015b6:	f022 0201 	bic.w	r2, r2, #1
100015ba:	601a      	str	r2, [r3, #0]

    /* Check if the DMA Stream is effectively disabled */
    while ((((DMA_Stream_TypeDef *)hdma->Instance)->CR & DMA_SxCR_EN) != 0U)
100015bc:	e00f      	b.n	100015de <HAL_DMA_Init+0x7e>
    {
      /* Check for the Timeout */
      if ((HAL_GetTick() - tickstart) > HAL_TIMEOUT_DMA_ABORT)
100015be:	f7ff feaf 	bl	10001320 <HAL_GetTick>
100015c2:	4602      	mov	r2, r0
100015c4:	693b      	ldr	r3, [r7, #16]
100015c6:	1ad3      	subs	r3, r2, r3
100015c8:	2b05      	cmp	r3, #5
100015ca:	d908      	bls.n	100015de <HAL_DMA_Init+0x7e>
      {
        /* Update error code */
        hdma->ErrorCode = HAL_DMA_ERROR_TIMEOUT;
100015cc:	687b      	ldr	r3, [r7, #4]
100015ce:	2220      	movs	r2, #32
100015d0:	655a      	str	r2, [r3, #84]	; 0x54

        /* Change the DMA state */
        hdma->State = HAL_DMA_STATE_ERROR;
100015d2:	687b      	ldr	r3, [r7, #4]
100015d4:	2203      	movs	r2, #3
100015d6:	f883 2035 	strb.w	r2, [r3, #53]	; 0x35

        return HAL_ERROR;
100015da:	2301      	movs	r3, #1
100015dc:	e0b2      	b.n	10001744 <HAL_DMA_Init+0x1e4>
    while ((((DMA_Stream_TypeDef *)hdma->Instance)->CR & DMA_SxCR_EN) != 0U)
100015de:	687b      	ldr	r3, [r7, #4]
100015e0:	681b      	ldr	r3, [r3, #0]
100015e2:	681b      	ldr	r3, [r3, #0]
100015e4:	f003 0301 	and.w	r3, r3, #1
100015e8:	2b00      	cmp	r3, #0
100015ea:	d1e8      	bne.n	100015be <HAL_DMA_Init+0x5e>
      }
    }

    /* Get the CR register value */
    registerValue = ((DMA_Stream_TypeDef *)hdma->Instance)->CR;
100015ec:	687b      	ldr	r3, [r7, #4]
100015ee:	681b      	ldr	r3, [r3, #0]
100015f0:	681b      	ldr	r3, [r3, #0]
100015f2:	617b      	str	r3, [r7, #20]

    /* Clear CHSEL, MBURST, PBURST, PL, MSIZE, PSIZE, MINC, PINC, CIRC, DIR, CT and DBM bits */
    registerValue &= ((uint32_t)~(DMA_SxCR_MBURST | DMA_SxCR_PBURST | \
100015f4:	697a      	ldr	r2, [r7, #20]
100015f6:	4b57      	ldr	r3, [pc, #348]	; (10001754 <HAL_DMA_Init+0x1f4>)
100015f8:	4013      	ands	r3, r2
100015fa:	617b      	str	r3, [r7, #20]
                                  DMA_SxCR_PL    | DMA_SxCR_MSIZE  | DMA_SxCR_PSIZE  | \
                                  DMA_SxCR_MINC  | DMA_SxCR_PINC   | DMA_SxCR_CIRC   | \
                                  DMA_SxCR_DIR   | DMA_SxCR_CT     | DMA_SxCR_DBM));

    /* Prepare the DMA Stream configuration */
    registerValue |=  hdma->Init.Direction           |
100015fc:	687b      	ldr	r3, [r7, #4]
100015fe:	689a      	ldr	r2, [r3, #8]
                      hdma->Init.PeriphInc           | hdma->Init.MemInc           |
10001600:	687b      	ldr	r3, [r7, #4]
10001602:	68db      	ldr	r3, [r3, #12]
    registerValue |=  hdma->Init.Direction           |
10001604:	431a      	orrs	r2, r3
                      hdma->Init.PeriphInc           | hdma->Init.MemInc           |
10001606:	687b      	ldr	r3, [r7, #4]
10001608:	691b      	ldr	r3, [r3, #16]
1000160a:	431a      	orrs	r2, r3
                      hdma->Init.PeriphDataAlignment | hdma->Init.MemDataAlignment |
1000160c:	687b      	ldr	r3, [r7, #4]
1000160e:	695b      	ldr	r3, [r3, #20]
                      hdma->Init.PeriphInc           | hdma->Init.MemInc           |
10001610:	431a      	orrs	r2, r3
                      hdma->Init.PeriphDataAlignment | hdma->Init.MemDataAlignment |
10001612:	687b      	ldr	r3, [r7, #4]
10001614:	699b      	ldr	r3, [r3, #24]
10001616:	431a      	orrs	r2, r3
                      hdma->Init.Mode                | hdma->Init.Priority;
10001618:	687b      	ldr	r3, [r7, #4]
1000161a:	69db      	ldr	r3, [r3, #28]
                      hdma->Init.PeriphDataAlignment | hdma->Init.MemDataAlignment |
1000161c:	431a      	orrs	r2, r3
                      hdma->Init.Mode                | hdma->Init.Priority;
1000161e:	687b      	ldr	r3, [r7, #4]
10001620:	6a1b      	ldr	r3, [r3, #32]
10001622:	4313      	orrs	r3, r2
    registerValue |=  hdma->Init.Direction           |
10001624:	697a      	ldr	r2, [r7, #20]
10001626:	4313      	orrs	r3, r2
10001628:	617b      	str	r3, [r7, #20]

    /* the Memory burst and peripheral burst are not used when the FIFO is disabled */
    if (hdma->Init.FIFOMode == DMA_FIFOMODE_ENABLE)
1000162a:	687b      	ldr	r3, [r7, #4]
1000162c:	6a5b      	ldr	r3, [r3, #36]	; 0x24
1000162e:	2b04      	cmp	r3, #4
10001630:	d107      	bne.n	10001642 <HAL_DMA_Init+0xe2>
    {
      /* Get memory burst and peripheral burst */
      registerValue |=  hdma->Init.MemBurst | hdma->Init.PeriphBurst;
10001632:	687b      	ldr	r3, [r7, #4]
10001634:	6ada      	ldr	r2, [r3, #44]	; 0x2c
10001636:	687b      	ldr	r3, [r7, #4]
10001638:	6b1b      	ldr	r3, [r3, #48]	; 0x30
1000163a:	4313      	orrs	r3, r2
1000163c:	697a      	ldr	r2, [r7, #20]
1000163e:	4313      	orrs	r3, r2
10001640:	617b      	str	r3, [r7, #20]
    }

    /* Write to DMA Stream CR register */
    ((DMA_Stream_TypeDef *)hdma->Instance)->CR = registerValue;
10001642:	687b      	ldr	r3, [r7, #4]
10001644:	681b      	ldr	r3, [r3, #0]
10001646:	697a      	ldr	r2, [r7, #20]
10001648:	601a      	str	r2, [r3, #0]

    /* Get the FCR register value */
    registerValue = ((DMA_Stream_TypeDef *)hdma->Instance)->FCR;
1000164a:	687b      	ldr	r3, [r7, #4]
1000164c:	681b      	ldr	r3, [r3, #0]
1000164e:	695b      	ldr	r3, [r3, #20]
10001650:	617b      	str	r3, [r7, #20]

    /* Clear Direct mode and FIFO threshold bits */
    registerValue &= (uint32_t)~(DMA_SxFCR_DMDIS | DMA_SxFCR_FTH);
10001652:	697b      	ldr	r3, [r7, #20]
10001654:	f023 0307 	bic.w	r3, r3, #7
10001658:	617b      	str	r3, [r7, #20]

    /* Prepare the DMA Stream FIFO configuration */
    registerValue |= hdma->Init.FIFOMode;
1000165a:	687b      	ldr	r3, [r7, #4]
1000165c:	6a5b      	ldr	r3, [r3, #36]	; 0x24
1000165e:	697a      	ldr	r2, [r7, #20]
10001660:	4313      	orrs	r3, r2
10001662:	617b      	str	r3, [r7, #20]

    /* the FIFO threshold is not used when the FIFO mode is disabled */
    if (hdma->Init.FIFOMode == DMA_FIFOMODE_ENABLE)
10001664:	687b      	ldr	r3, [r7, #4]
10001666:	6a5b      	ldr	r3, [r3, #36]	; 0x24
10001668:	2b04      	cmp	r3, #4
1000166a:	d117      	bne.n	1000169c <HAL_DMA_Init+0x13c>
    {
      /* Get the FIFO threshold */
      registerValue |= hdma->Init.FIFOThreshold;
1000166c:	687b      	ldr	r3, [r7, #4]
1000166e:	6a9b      	ldr	r3, [r3, #40]	; 0x28
10001670:	697a      	ldr	r2, [r7, #20]
10001672:	4313      	orrs	r3, r2
10001674:	617b      	str	r3, [r7, #20]

      /* Check compatibility between FIFO threshold level and size of the memory burst */
      /* for INCR4, INCR8, INCR16 */
      if (hdma->Init.MemBurst != DMA_MBURST_SINGLE)
10001676:	687b      	ldr	r3, [r7, #4]
10001678:	6adb      	ldr	r3, [r3, #44]	; 0x2c
1000167a:	2b00      	cmp	r3, #0
1000167c:	d00e      	beq.n	1000169c <HAL_DMA_Init+0x13c>
      {
        if (DMA_CheckFifoParam(hdma) != HAL_OK)
1000167e:	6878      	ldr	r0, [r7, #4]
10001680:	f000 fa4e 	bl	10001b20 <DMA_CheckFifoParam>
10001684:	4603      	mov	r3, r0
10001686:	2b00      	cmp	r3, #0
10001688:	d008      	beq.n	1000169c <HAL_DMA_Init+0x13c>
        {
          /* Update error code */
          hdma->ErrorCode = HAL_DMA_ERROR_PARAM;
1000168a:	687b      	ldr	r3, [r7, #4]
1000168c:	2240      	movs	r2, #64	; 0x40
1000168e:	655a      	str	r2, [r3, #84]	; 0x54

          /* Change the DMA state */
          hdma->State = HAL_DMA_STATE_READY;
10001690:	687b      	ldr	r3, [r7, #4]
10001692:	2201      	movs	r2, #1
10001694:	f883 2035 	strb.w	r2, [r3, #53]	; 0x35

          return HAL_ERROR;
10001698:	2301      	movs	r3, #1
1000169a:	e053      	b.n	10001744 <HAL_DMA_Init+0x1e4>
        }
      }
    }

    /* Write to DMA Stream FCR */
    ((DMA_Stream_TypeDef *)hdma->Instance)->FCR = registerValue;
1000169c:	687b      	ldr	r3, [r7, #4]
1000169e:	681b      	ldr	r3, [r3, #0]
100016a0:	697a      	ldr	r2, [r7, #20]
100016a2:	615a      	str	r2, [r3, #20]

    /* Initialize StreamBaseAddress and StreamIndex parameters to be used to calculate
       DMA steam Base Address needed by HAL_DMA_IRQHandler() and HAL_DMA_PollForTransfer() */
    regs = (DMA_Base_Registers *)DMA_CalcBaseAndBitshift(hdma);
100016a4:	6878      	ldr	r0, [r7, #4]
100016a6:	f000 fa05 	bl	10001ab4 <DMA_CalcBaseAndBitshift>
100016aa:	4603      	mov	r3, r0
100016ac:	60fb      	str	r3, [r7, #12]

    /* Clear all interrupt flags */
    regs->IFCR = 0x3FUL << hdma->StreamIndex;
100016ae:	687b      	ldr	r3, [r7, #4]
100016b0:	6ddb      	ldr	r3, [r3, #92]	; 0x5c
100016b2:	223f      	movs	r2, #63	; 0x3f
100016b4:	409a      	lsls	r2, r3
100016b6:	68fb      	ldr	r3, [r7, #12]
100016b8:	609a      	str	r2, [r3, #8]
  }

  /* Initialize parameters for DMAMUX channel :
     DMAmuxChannel, DMAmuxChannelStatus and DMAmuxChannelStatusMask
  */
  DMA_CalcDMAMUXChannelBaseAndMask(hdma);
100016ba:	6878      	ldr	r0, [r7, #4]
100016bc:	f000 faac 	bl	10001c18 <DMA_CalcDMAMUXChannelBaseAndMask>

  if (hdma->Init.Direction == DMA_MEMORY_TO_MEMORY)
100016c0:	687b      	ldr	r3, [r7, #4]
100016c2:	689b      	ldr	r3, [r3, #8]
100016c4:	2b80      	cmp	r3, #128	; 0x80
100016c6:	d10c      	bne.n	100016e2 <HAL_DMA_Init+0x182>
100016c8:	e008      	b.n	100016dc <HAL_DMA_Init+0x17c>
    hdma->ErrorCode = HAL_DMA_ERROR_PARAM;
100016ca:	687b      	ldr	r3, [r7, #4]
100016cc:	2240      	movs	r2, #64	; 0x40
100016ce:	655a      	str	r2, [r3, #84]	; 0x54
    hdma->State     = HAL_DMA_STATE_ERROR;
100016d0:	687b      	ldr	r3, [r7, #4]
100016d2:	2203      	movs	r2, #3
100016d4:	f883 2035 	strb.w	r2, [r3, #53]	; 0x35
    return HAL_ERROR;
100016d8:	2301      	movs	r3, #1
100016da:	e033      	b.n	10001744 <HAL_DMA_Init+0x1e4>
  {
    /* if memory to memory force the request to 0*/
    hdma->Init.Request = DMA_REQUEST_MEM2MEM;
100016dc:	687b      	ldr	r3, [r7, #4]
100016de:	2200      	movs	r2, #0
100016e0:	605a      	str	r2, [r3, #4]
  }


  /* Set peripheral request  to DMAMUX channel */
  hdma->DMAmuxChannel->CCR = (hdma->Init.Request & DMAMUX_CxCR_DMAREQ_ID);
100016e2:	687b      	ldr	r3, [r7, #4]
100016e4:	685a      	ldr	r2, [r3, #4]
100016e6:	687b      	ldr	r3, [r7, #4]
100016e8:	6e1b      	ldr	r3, [r3, #96]	; 0x60
100016ea:	b2d2      	uxtb	r2, r2
100016ec:	601a      	str	r2, [r3, #0]

  /* Clear the DMAMUX synchro overrun flag */
  hdma->DMAmuxChannelStatus->CFR = hdma->DMAmuxChannelStatusMask;
100016ee:	687b      	ldr	r3, [r7, #4]
100016f0:	6e5b      	ldr	r3, [r3, #100]	; 0x64
100016f2:	687a      	ldr	r2, [r7, #4]
100016f4:	6e92      	ldr	r2, [r2, #104]	; 0x68
100016f6:	605a      	str	r2, [r3, #4]

  /* Initialize parameters for DMAMUX request generator :
     if the DMA request is DMA_REQUEST_GENERATOR0 to DMA_REQUEST_GENERATOR7
  */

  if ((hdma->Init.Request >= DMA_REQUEST_GENERATOR0) && (hdma->Init.Request <= DMA_REQUEST_GENERATOR7))
100016f8:	687b      	ldr	r3, [r7, #4]
100016fa:	685b      	ldr	r3, [r3, #4]
100016fc:	2b00      	cmp	r3, #0
100016fe:	d010      	beq.n	10001722 <HAL_DMA_Init+0x1c2>
10001700:	687b      	ldr	r3, [r7, #4]
10001702:	685b      	ldr	r3, [r3, #4]
10001704:	2b08      	cmp	r3, #8
10001706:	d80c      	bhi.n	10001722 <HAL_DMA_Init+0x1c2>
  {
    /* Initialize parameters for DMAMUX request generator :
       DMAmuxRequestGen, DMAmuxRequestGenStatus and DMAmuxRequestGenStatusMask
    */
    DMA_CalcDMAMUXRequestGenBaseAndMask(hdma);
10001708:	6878      	ldr	r0, [r7, #4]
1000170a:	f000 fabf 	bl	10001c8c <DMA_CalcDMAMUXRequestGenBaseAndMask>

    /* Reset the DMAMUX request generator register*/
    hdma->DMAmuxRequestGen->RGCR = 0U;
1000170e:	687b      	ldr	r3, [r7, #4]
10001710:	6edb      	ldr	r3, [r3, #108]	; 0x6c
10001712:	2200      	movs	r2, #0
10001714:	601a      	str	r2, [r3, #0]

    /* Clear the DMAMUX request generator overrun flag */
    hdma->DMAmuxRequestGenStatus->RGCFR = hdma->DMAmuxRequestGenStatusMask;
10001716:	687b      	ldr	r3, [r7, #4]
10001718:	6f1b      	ldr	r3, [r3, #112]	; 0x70
1000171a:	687a      	ldr	r2, [r7, #4]
1000171c:	6f52      	ldr	r2, [r2, #116]	; 0x74
1000171e:	605a      	str	r2, [r3, #4]
10001720:	e008      	b.n	10001734 <HAL_DMA_Init+0x1d4>
  }
  else
  {
    hdma->DMAmuxRequestGen = 0U;
10001722:	687b      	ldr	r3, [r7, #4]
10001724:	2200      	movs	r2, #0
10001726:	66da      	str	r2, [r3, #108]	; 0x6c
    hdma->DMAmuxRequestGenStatus = 0U;
10001728:	687b      	ldr	r3, [r7, #4]
1000172a:	2200      	movs	r2, #0
1000172c:	671a      	str	r2, [r3, #112]	; 0x70
    hdma->DMAmuxRequestGenStatusMask = 0U;
1000172e:	687b      	ldr	r3, [r7, #4]
10001730:	2200      	movs	r2, #0
10001732:	675a      	str	r2, [r3, #116]	; 0x74
  }

  /* Initialize the error code */
  hdma->ErrorCode = HAL_DMA_ERROR_NONE;
10001734:	687b      	ldr	r3, [r7, #4]
10001736:	2200      	movs	r2, #0
10001738:	655a      	str	r2, [r3, #84]	; 0x54

  /* Initialize the DMA state */
  hdma->State = HAL_DMA_STATE_READY;
1000173a:	687b      	ldr	r3, [r7, #4]
1000173c:	2201      	movs	r2, #1
1000173e:	f883 2035 	strb.w	r2, [r3, #53]	; 0x35

  return HAL_OK;
10001742:	2300      	movs	r3, #0
}
10001744:	4618      	mov	r0, r3
10001746:	3718      	adds	r7, #24
10001748:	46bd      	mov	sp, r7
1000174a:	bd80      	pop	{r7, pc}
1000174c:	4800000f 	.word	0x4800000f
10001750:	480010b8 	.word	0x480010b8
10001754:	fe10803f 	.word	0xfe10803f

10001758 <HAL_DMA_IRQHandler>:
  * @param  hdma: pointer to a DMA_HandleTypeDef structure that contains
  *               the configuration information for the specified DMA Stream.
  * @retval None
  */
void HAL_DMA_IRQHandler(DMA_HandleTypeDef *hdma)
{
10001758:	b580      	push	{r7, lr}
1000175a:	b086      	sub	sp, #24
1000175c:	af00      	add	r7, sp, #0
1000175e:	6078      	str	r0, [r7, #4]
  uint32_t tmpisr;
  __IO uint32_t count = 0U;
10001760:	2300      	movs	r3, #0
10001762:	60bb      	str	r3, [r7, #8]
  uint32_t timeout = SystemCoreClock / 9600U;
10001764:	4b8c      	ldr	r3, [pc, #560]	; (10001998 <HAL_DMA_IRQHandler+0x240>)
10001766:	681b      	ldr	r3, [r3, #0]
10001768:	4a8c      	ldr	r2, [pc, #560]	; (1000199c <HAL_DMA_IRQHandler+0x244>)
1000176a:	fba2 2303 	umull	r2, r3, r2, r3
1000176e:	0a9b      	lsrs	r3, r3, #10
10001770:	617b      	str	r3, [r7, #20]

  /* calculate DMA base and stream number */
  DMA_Base_Registers *regs = (DMA_Base_Registers *)hdma->StreamBaseAddress;
10001772:	687b      	ldr	r3, [r7, #4]
10001774:	6d9b      	ldr	r3, [r3, #88]	; 0x58
10001776:	613b      	str	r3, [r7, #16]

  tmpisr = regs->ISR;
10001778:	693b      	ldr	r3, [r7, #16]
1000177a:	681b      	ldr	r3, [r3, #0]
1000177c:	60fb      	str	r3, [r7, #12]

  if (IS_DMA_INSTANCE(hdma) != RESET) /*D2 domain DMA : DMA1 or DMA2*/
1000177e:	687b      	ldr	r3, [r7, #4]
10001780:	681b      	ldr	r3, [r3, #0]
10001782:	461a      	mov	r2, r3
10001784:	4b86      	ldr	r3, [pc, #536]	; (100019a0 <HAL_DMA_IRQHandler+0x248>)
10001786:	429a      	cmp	r2, r3
10001788:	d907      	bls.n	1000179a <HAL_DMA_IRQHandler+0x42>
1000178a:	687b      	ldr	r3, [r7, #4]
1000178c:	681b      	ldr	r3, [r3, #0]
1000178e:	461a      	mov	r2, r3
10001790:	4b84      	ldr	r3, [pc, #528]	; (100019a4 <HAL_DMA_IRQHandler+0x24c>)
10001792:	429a      	cmp	r2, r3
10001794:	d801      	bhi.n	1000179a <HAL_DMA_IRQHandler+0x42>
10001796:	2301      	movs	r3, #1
10001798:	e000      	b.n	1000179c <HAL_DMA_IRQHandler+0x44>
1000179a:	2300      	movs	r3, #0
1000179c:	2b00      	cmp	r3, #0
1000179e:	f000 8185 	beq.w	10001aac <HAL_DMA_IRQHandler+0x354>
  {
    /* Transfer Error Interrupt management ***************************************/
    if ((tmpisr & (DMA_FLAG_TEIF0_4 << hdma->StreamIndex)) != 0U)
100017a2:	687b      	ldr	r3, [r7, #4]
100017a4:	6ddb      	ldr	r3, [r3, #92]	; 0x5c
100017a6:	2208      	movs	r2, #8
100017a8:	409a      	lsls	r2, r3
100017aa:	68fb      	ldr	r3, [r7, #12]
100017ac:	4013      	ands	r3, r2
100017ae:	2b00      	cmp	r3, #0
100017b0:	d01a      	beq.n	100017e8 <HAL_DMA_IRQHandler+0x90>
    {
      if (__HAL_DMA_GET_IT_SOURCE(hdma, DMA_IT_TE) != 0U)
100017b2:	687b      	ldr	r3, [r7, #4]
100017b4:	681b      	ldr	r3, [r3, #0]
100017b6:	681b      	ldr	r3, [r3, #0]
100017b8:	f003 0304 	and.w	r3, r3, #4
100017bc:	2b00      	cmp	r3, #0
100017be:	d013      	beq.n	100017e8 <HAL_DMA_IRQHandler+0x90>
      {
        /* Disable the transfer error interrupt */
        ((DMA_Stream_TypeDef *)hdma->Instance)->CR  &= ~(DMA_IT_TE);
100017c0:	687b      	ldr	r3, [r7, #4]
100017c2:	681b      	ldr	r3, [r3, #0]
100017c4:	681a      	ldr	r2, [r3, #0]
100017c6:	687b      	ldr	r3, [r7, #4]
100017c8:	681b      	ldr	r3, [r3, #0]
100017ca:	f022 0204 	bic.w	r2, r2, #4
100017ce:	601a      	str	r2, [r3, #0]

        /* Clear the transfer error flag */
        regs->IFCR = DMA_FLAG_TEIF0_4 << hdma->StreamIndex;
100017d0:	687b      	ldr	r3, [r7, #4]
100017d2:	6ddb      	ldr	r3, [r3, #92]	; 0x5c
100017d4:	2208      	movs	r2, #8
100017d6:	409a      	lsls	r2, r3
100017d8:	693b      	ldr	r3, [r7, #16]
100017da:	609a      	str	r2, [r3, #8]

        /* Update error code */
        hdma->ErrorCode |= HAL_DMA_ERROR_TE;
100017dc:	687b      	ldr	r3, [r7, #4]
100017de:	6d5b      	ldr	r3, [r3, #84]	; 0x54
100017e0:	f043 0201 	orr.w	r2, r3, #1
100017e4:	687b      	ldr	r3, [r7, #4]
100017e6:	655a      	str	r2, [r3, #84]	; 0x54
      }
    }
    /* FIFO Error Interrupt management ******************************************/
    if ((tmpisr & (DMA_FLAG_FEIF0_4 << hdma->StreamIndex)) != 0U)
100017e8:	687b      	ldr	r3, [r7, #4]
100017ea:	6ddb      	ldr	r3, [r3, #92]	; 0x5c
100017ec:	68fa      	ldr	r2, [r7, #12]
100017ee:	fa22 f303 	lsr.w	r3, r2, r3
100017f2:	f003 0301 	and.w	r3, r3, #1
100017f6:	2b00      	cmp	r3, #0
100017f8:	d012      	beq.n	10001820 <HAL_DMA_IRQHandler+0xc8>
    {
      if (__HAL_DMA_GET_IT_SOURCE(hdma, DMA_IT_FE) != 0U)
100017fa:	687b      	ldr	r3, [r7, #4]
100017fc:	681b      	ldr	r3, [r3, #0]
100017fe:	695b      	ldr	r3, [r3, #20]
10001800:	f003 0380 	and.w	r3, r3, #128	; 0x80
10001804:	2b00      	cmp	r3, #0
10001806:	d00b      	beq.n	10001820 <HAL_DMA_IRQHandler+0xc8>
      {
        /* Clear the FIFO error flag */
        regs->IFCR = DMA_FLAG_FEIF0_4 << hdma->StreamIndex;
10001808:	687b      	ldr	r3, [r7, #4]
1000180a:	6ddb      	ldr	r3, [r3, #92]	; 0x5c
1000180c:	2201      	movs	r2, #1
1000180e:	409a      	lsls	r2, r3
10001810:	693b      	ldr	r3, [r7, #16]
10001812:	609a      	str	r2, [r3, #8]

        /* Update error code */
        hdma->ErrorCode |= HAL_DMA_ERROR_FE;
10001814:	687b      	ldr	r3, [r7, #4]
10001816:	6d5b      	ldr	r3, [r3, #84]	; 0x54
10001818:	f043 0202 	orr.w	r2, r3, #2
1000181c:	687b      	ldr	r3, [r7, #4]
1000181e:	655a      	str	r2, [r3, #84]	; 0x54
      }
    }
    /* Direct Mode Error Interrupt management ***********************************/
    if ((tmpisr & (DMA_FLAG_DMEIF0_4 << hdma->StreamIndex)) != 0U)
10001820:	687b      	ldr	r3, [r7, #4]
10001822:	6ddb      	ldr	r3, [r3, #92]	; 0x5c
10001824:	2204      	movs	r2, #4
10001826:	409a      	lsls	r2, r3
10001828:	68fb      	ldr	r3, [r7, #12]
1000182a:	4013      	ands	r3, r2
1000182c:	2b00      	cmp	r3, #0
1000182e:	d012      	beq.n	10001856 <HAL_DMA_IRQHandler+0xfe>
    {
      if (__HAL_DMA_GET_IT_SOURCE(hdma, DMA_IT_DME) != 0U)
10001830:	687b      	ldr	r3, [r7, #4]
10001832:	681b      	ldr	r3, [r3, #0]
10001834:	681b      	ldr	r3, [r3, #0]
10001836:	f003 0302 	and.w	r3, r3, #2
1000183a:	2b00      	cmp	r3, #0
1000183c:	d00b      	beq.n	10001856 <HAL_DMA_IRQHandler+0xfe>
      {
        /* Clear the direct mode error flag */
        regs->IFCR = DMA_FLAG_DMEIF0_4 << hdma->StreamIndex;
1000183e:	687b      	ldr	r3, [r7, #4]
10001840:	6ddb      	ldr	r3, [r3, #92]	; 0x5c
10001842:	2204      	movs	r2, #4
10001844:	409a      	lsls	r2, r3
10001846:	693b      	ldr	r3, [r7, #16]
10001848:	609a      	str	r2, [r3, #8]

        /* Update error code */
        hdma->ErrorCode |= HAL_DMA_ERROR_DME;
1000184a:	687b      	ldr	r3, [r7, #4]
1000184c:	6d5b      	ldr	r3, [r3, #84]	; 0x54
1000184e:	f043 0204 	orr.w	r2, r3, #4
10001852:	687b      	ldr	r3, [r7, #4]
10001854:	655a      	str	r2, [r3, #84]	; 0x54
      }
    }
    /* Half Transfer Complete Interrupt management ******************************/
    if ((tmpisr & (DMA_FLAG_HTIF0_4 << hdma->StreamIndex)) != 0U)
10001856:	687b      	ldr	r3, [r7, #4]
10001858:	6ddb      	ldr	r3, [r3, #92]	; 0x5c
1000185a:	2210      	movs	r2, #16
1000185c:	409a      	lsls	r2, r3
1000185e:	68fb      	ldr	r3, [r7, #12]
10001860:	4013      	ands	r3, r2
10001862:	2b00      	cmp	r3, #0
10001864:	d043      	beq.n	100018ee <HAL_DMA_IRQHandler+0x196>
    {
      if (__HAL_DMA_GET_IT_SOURCE(hdma, DMA_IT_HT) != 0U)
10001866:	687b      	ldr	r3, [r7, #4]
10001868:	681b      	ldr	r3, [r3, #0]
1000186a:	681b      	ldr	r3, [r3, #0]
1000186c:	f003 0308 	and.w	r3, r3, #8
10001870:	2b00      	cmp	r3, #0
10001872:	d03c      	beq.n	100018ee <HAL_DMA_IRQHandler+0x196>
      {
        /* Clear the half transfer complete flag */
        regs->IFCR = DMA_FLAG_HTIF0_4 << hdma->StreamIndex;
10001874:	687b      	ldr	r3, [r7, #4]
10001876:	6ddb      	ldr	r3, [r3, #92]	; 0x5c
10001878:	2210      	movs	r2, #16
1000187a:	409a      	lsls	r2, r3
1000187c:	693b      	ldr	r3, [r7, #16]
1000187e:	609a      	str	r2, [r3, #8]

        /* Multi_Buffering mode enabled */
        if (((((DMA_Stream_TypeDef *)hdma->Instance)->CR) & (uint32_t)(DMA_SxCR_DBM)) != 0U)
10001880:	687b      	ldr	r3, [r7, #4]
10001882:	681b      	ldr	r3, [r3, #0]
10001884:	681b      	ldr	r3, [r3, #0]
10001886:	f403 2380 	and.w	r3, r3, #262144	; 0x40000
1000188a:	2b00      	cmp	r3, #0
1000188c:	d018      	beq.n	100018c0 <HAL_DMA_IRQHandler+0x168>
        {
          /* Current memory buffer used is Memory 0 */
          if ((((DMA_Stream_TypeDef *)hdma->Instance)->CR & DMA_SxCR_CT) == 0U)
1000188e:	687b      	ldr	r3, [r7, #4]
10001890:	681b      	ldr	r3, [r3, #0]
10001892:	681b      	ldr	r3, [r3, #0]
10001894:	f403 2300 	and.w	r3, r3, #524288	; 0x80000
10001898:	2b00      	cmp	r3, #0
1000189a:	d108      	bne.n	100018ae <HAL_DMA_IRQHandler+0x156>
          {
            if (hdma->XferHalfCpltCallback != NULL)
1000189c:	687b      	ldr	r3, [r7, #4]
1000189e:	6c1b      	ldr	r3, [r3, #64]	; 0x40
100018a0:	2b00      	cmp	r3, #0
100018a2:	d024      	beq.n	100018ee <HAL_DMA_IRQHandler+0x196>
            {
              /* Half transfer callback */
              hdma->XferHalfCpltCallback(hdma);
100018a4:	687b      	ldr	r3, [r7, #4]
100018a6:	6c1b      	ldr	r3, [r3, #64]	; 0x40
100018a8:	6878      	ldr	r0, [r7, #4]
100018aa:	4798      	blx	r3
100018ac:	e01f      	b.n	100018ee <HAL_DMA_IRQHandler+0x196>
            }
          }
          /* Current memory buffer used is Memory 1 */
          else
          {
            if (hdma->XferM1HalfCpltCallback != NULL)
100018ae:	687b      	ldr	r3, [r7, #4]
100018b0:	6c9b      	ldr	r3, [r3, #72]	; 0x48
100018b2:	2b00      	cmp	r3, #0
100018b4:	d01b      	beq.n	100018ee <HAL_DMA_IRQHandler+0x196>
            {
              /* Half transfer callback */
              hdma->XferM1HalfCpltCallback(hdma);
100018b6:	687b      	ldr	r3, [r7, #4]
100018b8:	6c9b      	ldr	r3, [r3, #72]	; 0x48
100018ba:	6878      	ldr	r0, [r7, #4]
100018bc:	4798      	blx	r3
100018be:	e016      	b.n	100018ee <HAL_DMA_IRQHandler+0x196>
          }
        }
        else
        {
          /* Disable the half transfer interrupt if the DMA mode is not CIRCULAR */
          if ((((DMA_Stream_TypeDef *)hdma->Instance)->CR & DMA_SxCR_CIRC) == 0U)
100018c0:	687b      	ldr	r3, [r7, #4]
100018c2:	681b      	ldr	r3, [r3, #0]
100018c4:	681b      	ldr	r3, [r3, #0]
100018c6:	f403 7380 	and.w	r3, r3, #256	; 0x100
100018ca:	2b00      	cmp	r3, #0
100018cc:	d107      	bne.n	100018de <HAL_DMA_IRQHandler+0x186>
          {
            /* Disable the half transfer interrupt */
            ((DMA_Stream_TypeDef *)hdma->Instance)->CR  &= ~(DMA_IT_HT);
100018ce:	687b      	ldr	r3, [r7, #4]
100018d0:	681b      	ldr	r3, [r3, #0]
100018d2:	681a      	ldr	r2, [r3, #0]
100018d4:	687b      	ldr	r3, [r7, #4]
100018d6:	681b      	ldr	r3, [r3, #0]
100018d8:	f022 0208 	bic.w	r2, r2, #8
100018dc:	601a      	str	r2, [r3, #0]
          }

          if (hdma->XferHalfCpltCallback != NULL)
100018de:	687b      	ldr	r3, [r7, #4]
100018e0:	6c1b      	ldr	r3, [r3, #64]	; 0x40
100018e2:	2b00      	cmp	r3, #0
100018e4:	d003      	beq.n	100018ee <HAL_DMA_IRQHandler+0x196>
          {
            /* Half transfer callback */
            hdma->XferHalfCpltCallback(hdma);
100018e6:	687b      	ldr	r3, [r7, #4]
100018e8:	6c1b      	ldr	r3, [r3, #64]	; 0x40
100018ea:	6878      	ldr	r0, [r7, #4]
100018ec:	4798      	blx	r3
          }
        }
      }
    }
    /* Transfer Complete Interrupt management ***********************************/
    if ((tmpisr & (DMA_FLAG_TCIF0_4 << hdma->StreamIndex)) != 0U)
100018ee:	687b      	ldr	r3, [r7, #4]
100018f0:	6ddb      	ldr	r3, [r3, #92]	; 0x5c
100018f2:	2220      	movs	r2, #32
100018f4:	409a      	lsls	r2, r3
100018f6:	68fb      	ldr	r3, [r7, #12]
100018f8:	4013      	ands	r3, r2
100018fa:	2b00      	cmp	r3, #0
100018fc:	f000 8093 	beq.w	10001a26 <HAL_DMA_IRQHandler+0x2ce>
    {
      if (__HAL_DMA_GET_IT_SOURCE(hdma, DMA_IT_TC) != 0U)
10001900:	687b      	ldr	r3, [r7, #4]
10001902:	681b      	ldr	r3, [r3, #0]
10001904:	681b      	ldr	r3, [r3, #0]
10001906:	f003 0310 	and.w	r3, r3, #16
1000190a:	2b00      	cmp	r3, #0
1000190c:	f000 808b 	beq.w	10001a26 <HAL_DMA_IRQHandler+0x2ce>
      {
        /* Clear the transfer complete flag */
        regs->IFCR = DMA_FLAG_TCIF0_4 << hdma->StreamIndex;
10001910:	687b      	ldr	r3, [r7, #4]
10001912:	6ddb      	ldr	r3, [r3, #92]	; 0x5c
10001914:	2220      	movs	r2, #32
10001916:	409a      	lsls	r2, r3
10001918:	693b      	ldr	r3, [r7, #16]
1000191a:	609a      	str	r2, [r3, #8]

        if (HAL_DMA_STATE_ABORT == hdma->State)
1000191c:	687b      	ldr	r3, [r7, #4]
1000191e:	f893 3035 	ldrb.w	r3, [r3, #53]	; 0x35
10001922:	b2db      	uxtb	r3, r3
10001924:	2b04      	cmp	r3, #4
10001926:	d13f      	bne.n	100019a8 <HAL_DMA_IRQHandler+0x250>
        {
          /* Disable all the transfer interrupts */
          ((DMA_Stream_TypeDef *)hdma->Instance)->CR  &= ~(DMA_IT_TC | DMA_IT_TE | DMA_IT_DME);
10001928:	687b      	ldr	r3, [r7, #4]
1000192a:	681b      	ldr	r3, [r3, #0]
1000192c:	681a      	ldr	r2, [r3, #0]
1000192e:	687b      	ldr	r3, [r7, #4]
10001930:	681b      	ldr	r3, [r3, #0]
10001932:	f022 0216 	bic.w	r2, r2, #22
10001936:	601a      	str	r2, [r3, #0]
          ((DMA_Stream_TypeDef *)hdma->Instance)->FCR &= ~(DMA_IT_FE);
10001938:	687b      	ldr	r3, [r7, #4]
1000193a:	681b      	ldr	r3, [r3, #0]
1000193c:	695a      	ldr	r2, [r3, #20]
1000193e:	687b      	ldr	r3, [r7, #4]
10001940:	681b      	ldr	r3, [r3, #0]
10001942:	f022 0280 	bic.w	r2, r2, #128	; 0x80
10001946:	615a      	str	r2, [r3, #20]

          if ((hdma->XferHalfCpltCallback != NULL) || (hdma->XferM1HalfCpltCallback != NULL))
10001948:	687b      	ldr	r3, [r7, #4]
1000194a:	6c1b      	ldr	r3, [r3, #64]	; 0x40
1000194c:	2b00      	cmp	r3, #0
1000194e:	d103      	bne.n	10001958 <HAL_DMA_IRQHandler+0x200>
10001950:	687b      	ldr	r3, [r7, #4]
10001952:	6c9b      	ldr	r3, [r3, #72]	; 0x48
10001954:	2b00      	cmp	r3, #0
10001956:	d007      	beq.n	10001968 <HAL_DMA_IRQHandler+0x210>
          {
            ((DMA_Stream_TypeDef *)hdma->Instance)->CR  &= ~(DMA_IT_HT);
10001958:	687b      	ldr	r3, [r7, #4]
1000195a:	681b      	ldr	r3, [r3, #0]
1000195c:	681a      	ldr	r2, [r3, #0]
1000195e:	687b      	ldr	r3, [r7, #4]
10001960:	681b      	ldr	r3, [r3, #0]
10001962:	f022 0208 	bic.w	r2, r2, #8
10001966:	601a      	str	r2, [r3, #0]
          }

          /* Clear all interrupt flags at correct offset within the register */
          regs->IFCR = 0x3FUL << hdma->StreamIndex;
10001968:	687b      	ldr	r3, [r7, #4]
1000196a:	6ddb      	ldr	r3, [r3, #92]	; 0x5c
1000196c:	223f      	movs	r2, #63	; 0x3f
1000196e:	409a      	lsls	r2, r3
10001970:	693b      	ldr	r3, [r7, #16]
10001972:	609a      	str	r2, [r3, #8]

          /* Process Unlocked */
          __HAL_UNLOCK(hdma);
10001974:	687b      	ldr	r3, [r7, #4]
10001976:	2200      	movs	r2, #0
10001978:	f883 2034 	strb.w	r2, [r3, #52]	; 0x34

          /* Change the DMA state */
          hdma->State = HAL_DMA_STATE_READY;
1000197c:	687b      	ldr	r3, [r7, #4]
1000197e:	2201      	movs	r2, #1
10001980:	f883 2035 	strb.w	r2, [r3, #53]	; 0x35

          if (hdma->XferAbortCallback != NULL)
10001984:	687b      	ldr	r3, [r7, #4]
10001986:	6d1b      	ldr	r3, [r3, #80]	; 0x50
10001988:	2b00      	cmp	r3, #0
1000198a:	f000 808e 	beq.w	10001aaa <HAL_DMA_IRQHandler+0x352>
          {
            hdma->XferAbortCallback(hdma);
1000198e:	687b      	ldr	r3, [r7, #4]
10001990:	6d1b      	ldr	r3, [r3, #80]	; 0x50
10001992:	6878      	ldr	r0, [r7, #4]
10001994:	4798      	blx	r3
          }
          return;
10001996:	e088      	b.n	10001aaa <HAL_DMA_IRQHandler+0x352>
10001998:	10020000 	.word	0x10020000
1000199c:	1b4e81b5 	.word	0x1b4e81b5
100019a0:	4800000f 	.word	0x4800000f
100019a4:	480010b8 	.word	0x480010b8
        }

        if (((((DMA_Stream_TypeDef *)hdma->Instance)->CR) & (uint32_t)(DMA_SxCR_DBM)) != 0U)
100019a8:	687b      	ldr	r3, [r7, #4]
100019aa:	681b      	ldr	r3, [r3, #0]
100019ac:	681b      	ldr	r3, [r3, #0]
100019ae:	f403 2380 	and.w	r3, r3, #262144	; 0x40000
100019b2:	2b00      	cmp	r3, #0
100019b4:	d018      	beq.n	100019e8 <HAL_DMA_IRQHandler+0x290>
        {
          /* Current memory buffer used is Memory 0 */
          if ((((DMA_Stream_TypeDef *)hdma->Instance)->CR & DMA_SxCR_CT) == 0U)
100019b6:	687b      	ldr	r3, [r7, #4]
100019b8:	681b      	ldr	r3, [r3, #0]
100019ba:	681b      	ldr	r3, [r3, #0]
100019bc:	f403 2300 	and.w	r3, r3, #524288	; 0x80000
100019c0:	2b00      	cmp	r3, #0
100019c2:	d108      	bne.n	100019d6 <HAL_DMA_IRQHandler+0x27e>
          {
            if (hdma->XferM1CpltCallback != NULL)
100019c4:	687b      	ldr	r3, [r7, #4]
100019c6:	6c5b      	ldr	r3, [r3, #68]	; 0x44
100019c8:	2b00      	cmp	r3, #0
100019ca:	d02c      	beq.n	10001a26 <HAL_DMA_IRQHandler+0x2ce>
            {
              /* Transfer complete Callback for memory1 */
              hdma->XferM1CpltCallback(hdma);
100019cc:	687b      	ldr	r3, [r7, #4]
100019ce:	6c5b      	ldr	r3, [r3, #68]	; 0x44
100019d0:	6878      	ldr	r0, [r7, #4]
100019d2:	4798      	blx	r3
100019d4:	e027      	b.n	10001a26 <HAL_DMA_IRQHandler+0x2ce>
            }
          }
          /* Current memory buffer used is Memory 1 */
          else
          {
            if (hdma->XferCpltCallback != NULL)
100019d6:	687b      	ldr	r3, [r7, #4]
100019d8:	6bdb      	ldr	r3, [r3, #60]	; 0x3c
100019da:	2b00      	cmp	r3, #0
100019dc:	d023      	beq.n	10001a26 <HAL_DMA_IRQHandler+0x2ce>
            {
              /* Transfer complete Callback for memory0 */
              hdma->XferCpltCallback(hdma);
100019de:	687b      	ldr	r3, [r7, #4]
100019e0:	6bdb      	ldr	r3, [r3, #60]	; 0x3c
100019e2:	6878      	ldr	r0, [r7, #4]
100019e4:	4798      	blx	r3
100019e6:	e01e      	b.n	10001a26 <HAL_DMA_IRQHandler+0x2ce>
          }
        }
        /* Disable the transfer complete interrupt if the DMA mode is not CIRCULAR */
        else
        {
          if ((((DMA_Stream_TypeDef *)hdma->Instance)->CR & DMA_SxCR_CIRC) == 0U)
100019e8:	687b      	ldr	r3, [r7, #4]
100019ea:	681b      	ldr	r3, [r3, #0]
100019ec:	681b      	ldr	r3, [r3, #0]
100019ee:	f403 7380 	and.w	r3, r3, #256	; 0x100
100019f2:	2b00      	cmp	r3, #0
100019f4:	d10f      	bne.n	10001a16 <HAL_DMA_IRQHandler+0x2be>
          {
            /* Disable the transfer complete interrupt */
            ((DMA_Stream_TypeDef *)hdma->Instance)->CR  &= ~(DMA_IT_TC);
100019f6:	687b      	ldr	r3, [r7, #4]
100019f8:	681b      	ldr	r3, [r3, #0]
100019fa:	681a      	ldr	r2, [r3, #0]
100019fc:	687b      	ldr	r3, [r7, #4]
100019fe:	681b      	ldr	r3, [r3, #0]
10001a00:	f022 0210 	bic.w	r2, r2, #16
10001a04:	601a      	str	r2, [r3, #0]

            /* Process Unlocked */
            __HAL_UNLOCK(hdma);
10001a06:	687b      	ldr	r3, [r7, #4]
10001a08:	2200      	movs	r2, #0
10001a0a:	f883 2034 	strb.w	r2, [r3, #52]	; 0x34

            /* Change the DMA state */
            hdma->State = HAL_DMA_STATE_READY;
10001a0e:	687b      	ldr	r3, [r7, #4]
10001a10:	2201      	movs	r2, #1
10001a12:	f883 2035 	strb.w	r2, [r3, #53]	; 0x35
          }

          if (hdma->XferCpltCallback != NULL)
10001a16:	687b      	ldr	r3, [r7, #4]
10001a18:	6bdb      	ldr	r3, [r3, #60]	; 0x3c
10001a1a:	2b00      	cmp	r3, #0
10001a1c:	d003      	beq.n	10001a26 <HAL_DMA_IRQHandler+0x2ce>
          {
            /* Transfer complete callback */
            hdma->XferCpltCallback(hdma);
10001a1e:	687b      	ldr	r3, [r7, #4]
10001a20:	6bdb      	ldr	r3, [r3, #60]	; 0x3c
10001a22:	6878      	ldr	r0, [r7, #4]
10001a24:	4798      	blx	r3
        }
      }
    }

    /* manage error case */
    if (hdma->ErrorCode != HAL_DMA_ERROR_NONE)
10001a26:	687b      	ldr	r3, [r7, #4]
10001a28:	6d5b      	ldr	r3, [r3, #84]	; 0x54
10001a2a:	2b00      	cmp	r3, #0
10001a2c:	d03e      	beq.n	10001aac <HAL_DMA_IRQHandler+0x354>
    {
      if ((hdma->ErrorCode & HAL_DMA_ERROR_TE) != 0U)
10001a2e:	687b      	ldr	r3, [r7, #4]
10001a30:	6d5b      	ldr	r3, [r3, #84]	; 0x54
10001a32:	f003 0301 	and.w	r3, r3, #1
10001a36:	2b00      	cmp	r3, #0
10001a38:	d02e      	beq.n	10001a98 <HAL_DMA_IRQHandler+0x340>
      {
        hdma->State = HAL_DMA_STATE_ABORT;
10001a3a:	687b      	ldr	r3, [r7, #4]
10001a3c:	2204      	movs	r2, #4
10001a3e:	f883 2035 	strb.w	r2, [r3, #53]	; 0x35

        /* Disable the stream */
        __HAL_DMA_DISABLE(hdma);
10001a42:	687b      	ldr	r3, [r7, #4]
10001a44:	681b      	ldr	r3, [r3, #0]
10001a46:	681a      	ldr	r2, [r3, #0]
10001a48:	687b      	ldr	r3, [r7, #4]
10001a4a:	681b      	ldr	r3, [r3, #0]
10001a4c:	f022 0201 	bic.w	r2, r2, #1
10001a50:	601a      	str	r2, [r3, #0]

        do
        {
          if (++count > timeout)
10001a52:	68bb      	ldr	r3, [r7, #8]
10001a54:	3301      	adds	r3, #1
10001a56:	60bb      	str	r3, [r7, #8]
10001a58:	697a      	ldr	r2, [r7, #20]
10001a5a:	429a      	cmp	r2, r3
10001a5c:	d307      	bcc.n	10001a6e <HAL_DMA_IRQHandler+0x316>
          {
            break;
          }
        }
        while ((((DMA_Stream_TypeDef *)hdma->Instance)->CR & DMA_SxCR_EN) != 0U);
10001a5e:	687b      	ldr	r3, [r7, #4]
10001a60:	681b      	ldr	r3, [r3, #0]
10001a62:	681b      	ldr	r3, [r3, #0]
10001a64:	f003 0301 	and.w	r3, r3, #1
10001a68:	2b00      	cmp	r3, #0
10001a6a:	d1f2      	bne.n	10001a52 <HAL_DMA_IRQHandler+0x2fa>
10001a6c:	e000      	b.n	10001a70 <HAL_DMA_IRQHandler+0x318>
            break;
10001a6e:	bf00      	nop

        /* Process Unlocked */
        __HAL_UNLOCK(hdma);
10001a70:	687b      	ldr	r3, [r7, #4]
10001a72:	2200      	movs	r2, #0
10001a74:	f883 2034 	strb.w	r2, [r3, #52]	; 0x34

        if ((((DMA_Stream_TypeDef *)hdma->Instance)->CR & DMA_SxCR_EN) != 0U)
10001a78:	687b      	ldr	r3, [r7, #4]
10001a7a:	681b      	ldr	r3, [r3, #0]
10001a7c:	681b      	ldr	r3, [r3, #0]
10001a7e:	f003 0301 	and.w	r3, r3, #1
10001a82:	2b00      	cmp	r3, #0
10001a84:	d004      	beq.n	10001a90 <HAL_DMA_IRQHandler+0x338>
        {
          /* Change the DMA state to error if DMA disable fails */
          hdma->State = HAL_DMA_STATE_ERROR;
10001a86:	687b      	ldr	r3, [r7, #4]
10001a88:	2203      	movs	r2, #3
10001a8a:	f883 2035 	strb.w	r2, [r3, #53]	; 0x35
10001a8e:	e003      	b.n	10001a98 <HAL_DMA_IRQHandler+0x340>
        }
        else
        {
          /* Change the DMA state to Ready if DMA disable success */
          hdma->State = HAL_DMA_STATE_READY;
10001a90:	687b      	ldr	r3, [r7, #4]
10001a92:	2201      	movs	r2, #1
10001a94:	f883 2035 	strb.w	r2, [r3, #53]	; 0x35
        }
      }

      if (hdma->XferErrorCallback != NULL)
10001a98:	687b      	ldr	r3, [r7, #4]
10001a9a:	6cdb      	ldr	r3, [r3, #76]	; 0x4c
10001a9c:	2b00      	cmp	r3, #0
10001a9e:	d005      	beq.n	10001aac <HAL_DMA_IRQHandler+0x354>
      {
        /* Transfer error callback */
        hdma->XferErrorCallback(hdma);
10001aa0:	687b      	ldr	r3, [r7, #4]
10001aa2:	6cdb      	ldr	r3, [r3, #76]	; 0x4c
10001aa4:	6878      	ldr	r0, [r7, #4]
10001aa6:	4798      	blx	r3
10001aa8:	e000      	b.n	10001aac <HAL_DMA_IRQHandler+0x354>
          return;
10001aaa:	bf00      	nop
  }
  else
  {
    /* Nothing To Do */
  }
}
10001aac:	3718      	adds	r7, #24
10001aae:	46bd      	mov	sp, r7
10001ab0:	bd80      	pop	{r7, pc}
10001ab2:	bf00      	nop

10001ab4 <DMA_CalcBaseAndBitshift>:
  * @param  hdma:       pointer to a DMA_HandleTypeDef structure that contains
  *                     the configuration information for the specified DMA Stream.
  * @retval Stream base address
  */
static uint32_t DMA_CalcBaseAndBitshift(DMA_HandleTypeDef *hdma)
{
10001ab4:	b480      	push	{r7}
10001ab6:	b085      	sub	sp, #20
10001ab8:	af00      	add	r7, sp, #0
10001aba:	6078      	str	r0, [r7, #4]
  uint32_t stream_number = (((uint32_t)((uint32_t *)hdma->Instance) & 0xFFU) - 16U) / 24U;
10001abc:	687b      	ldr	r3, [r7, #4]
10001abe:	681b      	ldr	r3, [r3, #0]
10001ac0:	b2db      	uxtb	r3, r3
10001ac2:	3b10      	subs	r3, #16
10001ac4:	4a14      	ldr	r2, [pc, #80]	; (10001b18 <DMA_CalcBaseAndBitshift+0x64>)
10001ac6:	fba2 2303 	umull	r2, r3, r2, r3
10001aca:	091b      	lsrs	r3, r3, #4
10001acc:	60fb      	str	r3, [r7, #12]

  /* lookup table for necessary bitshift of flags within status registers */
  static const uint8_t flagBitshiftOffset[8U] = {0U, 6U, 16U, 22U, 0U, 6U, 16U, 22U};
  hdma->StreamIndex = flagBitshiftOffset[stream_number & 0x7U];
10001ace:	68fb      	ldr	r3, [r7, #12]
10001ad0:	f003 0307 	and.w	r3, r3, #7
10001ad4:	4a11      	ldr	r2, [pc, #68]	; (10001b1c <DMA_CalcBaseAndBitshift+0x68>)
10001ad6:	5cd3      	ldrb	r3, [r2, r3]
10001ad8:	461a      	mov	r2, r3
10001ada:	687b      	ldr	r3, [r7, #4]
10001adc:	65da      	str	r2, [r3, #92]	; 0x5c

  if (stream_number > 3U)
10001ade:	68fb      	ldr	r3, [r7, #12]
10001ae0:	2b03      	cmp	r3, #3
10001ae2:	d909      	bls.n	10001af8 <DMA_CalcBaseAndBitshift+0x44>
  {
    /* return pointer to HISR and HIFCR */
    hdma->StreamBaseAddress = (((uint32_t)((uint32_t *)hdma->Instance) & (uint32_t)(~0x3FFU)) + 4U);
10001ae4:	687b      	ldr	r3, [r7, #4]
10001ae6:	681b      	ldr	r3, [r3, #0]
10001ae8:	f423 737f 	bic.w	r3, r3, #1020	; 0x3fc
10001aec:	f023 0303 	bic.w	r3, r3, #3
10001af0:	1d1a      	adds	r2, r3, #4
10001af2:	687b      	ldr	r3, [r7, #4]
10001af4:	659a      	str	r2, [r3, #88]	; 0x58
10001af6:	e007      	b.n	10001b08 <DMA_CalcBaseAndBitshift+0x54>
  }
  else
  {
    /* return pointer to LISR and LIFCR */
    hdma->StreamBaseAddress = ((uint32_t)((uint32_t *)hdma->Instance) & (uint32_t)(~0x3FFU));
10001af8:	687b      	ldr	r3, [r7, #4]
10001afa:	681b      	ldr	r3, [r3, #0]
10001afc:	f423 737f 	bic.w	r3, r3, #1020	; 0x3fc
10001b00:	f023 0303 	bic.w	r3, r3, #3
10001b04:	687a      	ldr	r2, [r7, #4]
10001b06:	6593      	str	r3, [r2, #88]	; 0x58
  }

  return hdma->StreamBaseAddress;
10001b08:	687b      	ldr	r3, [r7, #4]
10001b0a:	6d9b      	ldr	r3, [r3, #88]	; 0x58
}
10001b0c:	4618      	mov	r0, r3
10001b0e:	3714      	adds	r7, #20
10001b10:	46bd      	mov	sp, r7
10001b12:	f85d 7b04 	ldr.w	r7, [sp], #4
10001b16:	4770      	bx	lr
10001b18:	aaaaaaab 	.word	0xaaaaaaab
10001b1c:	1000de6c 	.word	0x1000de6c

10001b20 <DMA_CheckFifoParam>:
  * @param  hdma:       pointer to a DMA_HandleTypeDef structure that contains
  *                     the configuration information for the specified DMA Stream.
  * @retval HAL status
  */
static HAL_StatusTypeDef DMA_CheckFifoParam(DMA_HandleTypeDef *hdma)
{
10001b20:	b480      	push	{r7}
10001b22:	b085      	sub	sp, #20
10001b24:	af00      	add	r7, sp, #0
10001b26:	6078      	str	r0, [r7, #4]
  HAL_StatusTypeDef status = HAL_OK;
10001b28:	2300      	movs	r3, #0
10001b2a:	73fb      	strb	r3, [r7, #15]

  /* Memory Data size equal to Byte */
  if (hdma->Init.MemDataAlignment == DMA_MDATAALIGN_BYTE)
10001b2c:	687b      	ldr	r3, [r7, #4]
10001b2e:	699b      	ldr	r3, [r3, #24]
10001b30:	2b00      	cmp	r3, #0
10001b32:	d120      	bne.n	10001b76 <DMA_CheckFifoParam+0x56>
  {
    switch (hdma->Init.FIFOThreshold)
10001b34:	687b      	ldr	r3, [r7, #4]
10001b36:	6a9b      	ldr	r3, [r3, #40]	; 0x28
10001b38:	2b03      	cmp	r3, #3
10001b3a:	d858      	bhi.n	10001bee <DMA_CheckFifoParam+0xce>
10001b3c:	a201      	add	r2, pc, #4	; (adr r2, 10001b44 <DMA_CheckFifoParam+0x24>)
10001b3e:	f852 f023 	ldr.w	pc, [r2, r3, lsl #2]
10001b42:	bf00      	nop
10001b44:	10001b55 	.word	0x10001b55
10001b48:	10001b67 	.word	0x10001b67
10001b4c:	10001b55 	.word	0x10001b55
10001b50:	10001bef 	.word	0x10001bef
    {
      case DMA_FIFO_THRESHOLD_1QUARTERFULL:
      case DMA_FIFO_THRESHOLD_3QUARTERSFULL:

        if ((hdma->Init.MemBurst & DMA_SxCR_MBURST_1) == DMA_SxCR_MBURST_1)
10001b54:	687b      	ldr	r3, [r7, #4]
10001b56:	6adb      	ldr	r3, [r3, #44]	; 0x2c
10001b58:	f003 7380 	and.w	r3, r3, #16777216	; 0x1000000
10001b5c:	2b00      	cmp	r3, #0
10001b5e:	d048      	beq.n	10001bf2 <DMA_CheckFifoParam+0xd2>
        {
          status = HAL_ERROR;
10001b60:	2301      	movs	r3, #1
10001b62:	73fb      	strb	r3, [r7, #15]
        }
        break;
10001b64:	e045      	b.n	10001bf2 <DMA_CheckFifoParam+0xd2>

      case DMA_FIFO_THRESHOLD_HALFFULL:
        if (hdma->Init.MemBurst == DMA_MBURST_INC16)
10001b66:	687b      	ldr	r3, [r7, #4]
10001b68:	6adb      	ldr	r3, [r3, #44]	; 0x2c
10001b6a:	f1b3 7fc0 	cmp.w	r3, #25165824	; 0x1800000
10001b6e:	d142      	bne.n	10001bf6 <DMA_CheckFifoParam+0xd6>
        {
          status = HAL_ERROR;
10001b70:	2301      	movs	r3, #1
10001b72:	73fb      	strb	r3, [r7, #15]
        }
        break;
10001b74:	e03f      	b.n	10001bf6 <DMA_CheckFifoParam+0xd6>
        break;
    }
  }

  /* Memory Data size equal to Half-Word */
  else if (hdma->Init.MemDataAlignment == DMA_MDATAALIGN_HALFWORD)
10001b76:	687b      	ldr	r3, [r7, #4]
10001b78:	699b      	ldr	r3, [r3, #24]
10001b7a:	f5b3 5f00 	cmp.w	r3, #8192	; 0x2000
10001b7e:	d123      	bne.n	10001bc8 <DMA_CheckFifoParam+0xa8>
  {
    switch (hdma->Init.FIFOThreshold)
10001b80:	687b      	ldr	r3, [r7, #4]
10001b82:	6a9b      	ldr	r3, [r3, #40]	; 0x28
10001b84:	2b03      	cmp	r3, #3
10001b86:	d838      	bhi.n	10001bfa <DMA_CheckFifoParam+0xda>
10001b88:	a201      	add	r2, pc, #4	; (adr r2, 10001b90 <DMA_CheckFifoParam+0x70>)
10001b8a:	f852 f023 	ldr.w	pc, [r2, r3, lsl #2]
10001b8e:	bf00      	nop
10001b90:	10001ba1 	.word	0x10001ba1
10001b94:	10001ba7 	.word	0x10001ba7
10001b98:	10001ba1 	.word	0x10001ba1
10001b9c:	10001bb9 	.word	0x10001bb9
    {
      case DMA_FIFO_THRESHOLD_1QUARTERFULL:
      case DMA_FIFO_THRESHOLD_3QUARTERSFULL:
        status = HAL_ERROR;
10001ba0:	2301      	movs	r3, #1
10001ba2:	73fb      	strb	r3, [r7, #15]
        break;
10001ba4:	e030      	b.n	10001c08 <DMA_CheckFifoParam+0xe8>

      case DMA_FIFO_THRESHOLD_HALFFULL:
        if ((hdma->Init.MemBurst & DMA_SxCR_MBURST_1) == DMA_SxCR_MBURST_1)
10001ba6:	687b      	ldr	r3, [r7, #4]
10001ba8:	6adb      	ldr	r3, [r3, #44]	; 0x2c
10001baa:	f003 7380 	and.w	r3, r3, #16777216	; 0x1000000
10001bae:	2b00      	cmp	r3, #0
10001bb0:	d025      	beq.n	10001bfe <DMA_CheckFifoParam+0xde>
        {
          status = HAL_ERROR;
10001bb2:	2301      	movs	r3, #1
10001bb4:	73fb      	strb	r3, [r7, #15]
        }
        break;
10001bb6:	e022      	b.n	10001bfe <DMA_CheckFifoParam+0xde>

      case DMA_FIFO_THRESHOLD_FULL:
        if (hdma->Init.MemBurst == DMA_MBURST_INC16)
10001bb8:	687b      	ldr	r3, [r7, #4]
10001bba:	6adb      	ldr	r3, [r3, #44]	; 0x2c
10001bbc:	f1b3 7fc0 	cmp.w	r3, #25165824	; 0x1800000
10001bc0:	d11f      	bne.n	10001c02 <DMA_CheckFifoParam+0xe2>
        {
          status = HAL_ERROR;
10001bc2:	2301      	movs	r3, #1
10001bc4:	73fb      	strb	r3, [r7, #15]
        }
        break;
10001bc6:	e01c      	b.n	10001c02 <DMA_CheckFifoParam+0xe2>
  }

  /* Memory Data size equal to Word */
  else
  {
    switch (hdma->Init.FIFOThreshold)
10001bc8:	687b      	ldr	r3, [r7, #4]
10001bca:	6a9b      	ldr	r3, [r3, #40]	; 0x28
10001bcc:	2b02      	cmp	r3, #2
10001bce:	d902      	bls.n	10001bd6 <DMA_CheckFifoParam+0xb6>
10001bd0:	2b03      	cmp	r3, #3
10001bd2:	d003      	beq.n	10001bdc <DMA_CheckFifoParam+0xbc>
          status = HAL_ERROR;
        }
        break;

      default:
        break;
10001bd4:	e018      	b.n	10001c08 <DMA_CheckFifoParam+0xe8>
        status = HAL_ERROR;
10001bd6:	2301      	movs	r3, #1
10001bd8:	73fb      	strb	r3, [r7, #15]
        break;
10001bda:	e015      	b.n	10001c08 <DMA_CheckFifoParam+0xe8>
        if ((hdma->Init.MemBurst & DMA_SxCR_MBURST_1) == DMA_SxCR_MBURST_1)
10001bdc:	687b      	ldr	r3, [r7, #4]
10001bde:	6adb      	ldr	r3, [r3, #44]	; 0x2c
10001be0:	f003 7380 	and.w	r3, r3, #16777216	; 0x1000000
10001be4:	2b00      	cmp	r3, #0
10001be6:	d00e      	beq.n	10001c06 <DMA_CheckFifoParam+0xe6>
          status = HAL_ERROR;
10001be8:	2301      	movs	r3, #1
10001bea:	73fb      	strb	r3, [r7, #15]
        break;
10001bec:	e00b      	b.n	10001c06 <DMA_CheckFifoParam+0xe6>
        break;
10001bee:	bf00      	nop
10001bf0:	e00a      	b.n	10001c08 <DMA_CheckFifoParam+0xe8>
        break;
10001bf2:	bf00      	nop
10001bf4:	e008      	b.n	10001c08 <DMA_CheckFifoParam+0xe8>
        break;
10001bf6:	bf00      	nop
10001bf8:	e006      	b.n	10001c08 <DMA_CheckFifoParam+0xe8>
        break;
10001bfa:	bf00      	nop
10001bfc:	e004      	b.n	10001c08 <DMA_CheckFifoParam+0xe8>
        break;
10001bfe:	bf00      	nop
10001c00:	e002      	b.n	10001c08 <DMA_CheckFifoParam+0xe8>
        break;
10001c02:	bf00      	nop
10001c04:	e000      	b.n	10001c08 <DMA_CheckFifoParam+0xe8>
        break;
10001c06:	bf00      	nop
    }
  }

  return status;
10001c08:	7bfb      	ldrb	r3, [r7, #15]
}
10001c0a:	4618      	mov	r0, r3
10001c0c:	3714      	adds	r7, #20
10001c0e:	46bd      	mov	sp, r7
10001c10:	f85d 7b04 	ldr.w	r7, [sp], #4
10001c14:	4770      	bx	lr
10001c16:	bf00      	nop

10001c18 <DMA_CalcDMAMUXChannelBaseAndMask>:
  * @param  hdma:       pointer to a DMA_HandleTypeDef structure that contains
  *                     the configuration information for the specified DMA Stream.
  * @retval HAL status
  */
static void DMA_CalcDMAMUXChannelBaseAndMask(DMA_HandleTypeDef *hdma)
{
10001c18:	b480      	push	{r7}
10001c1a:	b085      	sub	sp, #20
10001c1c:	af00      	add	r7, sp, #0
10001c1e:	6078      	str	r0, [r7, #4]
  uint32_t stream_number;
  uint32_t stream_baseaddress = (uint32_t)((uint32_t *)hdma->Instance);
10001c20:	687b      	ldr	r3, [r7, #4]
10001c22:	681b      	ldr	r3, [r3, #0]
10001c24:	60bb      	str	r3, [r7, #8]
  /*DMA1/DMA2 Streams are connected to DMAMUX1 channels*/
  stream_number = (((uint32_t)((uint32_t *)hdma->Instance) & 0xFFU) - 16U) / 24U;
10001c26:	687b      	ldr	r3, [r7, #4]
10001c28:	681b      	ldr	r3, [r3, #0]
10001c2a:	b2db      	uxtb	r3, r3
10001c2c:	3b10      	subs	r3, #16
10001c2e:	4a13      	ldr	r2, [pc, #76]	; (10001c7c <DMA_CalcDMAMUXChannelBaseAndMask+0x64>)
10001c30:	fba2 2303 	umull	r2, r3, r2, r3
10001c34:	091b      	lsrs	r3, r3, #4
10001c36:	60fb      	str	r3, [r7, #12]

  if ((stream_baseaddress <= ((uint32_t)DMA2_Stream7)) && \
10001c38:	68bb      	ldr	r3, [r7, #8]
10001c3a:	4a11      	ldr	r2, [pc, #68]	; (10001c80 <DMA_CalcDMAMUXChannelBaseAndMask+0x68>)
10001c3c:	4293      	cmp	r3, r2
10001c3e:	d806      	bhi.n	10001c4e <DMA_CalcDMAMUXChannelBaseAndMask+0x36>
10001c40:	68bb      	ldr	r3, [r7, #8]
10001c42:	4a10      	ldr	r2, [pc, #64]	; (10001c84 <DMA_CalcDMAMUXChannelBaseAndMask+0x6c>)
10001c44:	4293      	cmp	r3, r2
10001c46:	d902      	bls.n	10001c4e <DMA_CalcDMAMUXChannelBaseAndMask+0x36>
      (stream_baseaddress >= ((uint32_t)DMA2_Stream0)))
  {
    stream_number += 8U;
10001c48:	68fb      	ldr	r3, [r7, #12]
10001c4a:	3308      	adds	r3, #8
10001c4c:	60fb      	str	r3, [r7, #12]
  }
  hdma->DMAmuxChannel = (DMAMUX_Channel_TypeDef *)((uint32_t)(((uint32_t)DMAMUX1_Channel0) + (stream_number * 4U)));
10001c4e:	68fb      	ldr	r3, [r7, #12]
10001c50:	f103 5390 	add.w	r3, r3, #301989888	; 0x12000000
10001c54:	f503 6300 	add.w	r3, r3, #2048	; 0x800
10001c58:	009b      	lsls	r3, r3, #2
10001c5a:	461a      	mov	r2, r3
10001c5c:	687b      	ldr	r3, [r7, #4]
10001c5e:	661a      	str	r2, [r3, #96]	; 0x60
  hdma->DMAmuxChannelStatus = DMAMUX1_ChannelStatus;
10001c60:	687b      	ldr	r3, [r7, #4]
10001c62:	4a09      	ldr	r2, [pc, #36]	; (10001c88 <DMA_CalcDMAMUXChannelBaseAndMask+0x70>)
10001c64:	665a      	str	r2, [r3, #100]	; 0x64
  hdma->DMAmuxChannelStatusMask = 1UL << stream_number;
10001c66:	2201      	movs	r2, #1
10001c68:	68fb      	ldr	r3, [r7, #12]
10001c6a:	409a      	lsls	r2, r3
10001c6c:	687b      	ldr	r3, [r7, #4]
10001c6e:	669a      	str	r2, [r3, #104]	; 0x68
}
10001c70:	bf00      	nop
10001c72:	3714      	adds	r7, #20
10001c74:	46bd      	mov	sp, r7
10001c76:	f85d 7b04 	ldr.w	r7, [sp], #4
10001c7a:	4770      	bx	lr
10001c7c:	aaaaaaab 	.word	0xaaaaaaab
10001c80:	480010b8 	.word	0x480010b8
10001c84:	4800100f 	.word	0x4800100f
10001c88:	48002080 	.word	0x48002080

10001c8c <DMA_CalcDMAMUXRequestGenBaseAndMask>:
  * @param  hdma:       pointer to a DMA_HandleTypeDef structure that contains
  *                     the configuration information for the specified DMA Stream.
  * @retval HAL status
  */
static void DMA_CalcDMAMUXRequestGenBaseAndMask(DMA_HandleTypeDef *hdma)
{
10001c8c:	b480      	push	{r7}
10001c8e:	b085      	sub	sp, #20
10001c90:	af00      	add	r7, sp, #0
10001c92:	6078      	str	r0, [r7, #4]
  uint32_t request =  hdma->Init.Request & DMAMUX_CxCR_DMAREQ_ID;
10001c94:	687b      	ldr	r3, [r7, #4]
10001c96:	685b      	ldr	r3, [r3, #4]
10001c98:	b2db      	uxtb	r3, r3
10001c9a:	60fb      	str	r3, [r7, #12]

  if ((request >= DMA_REQUEST_GENERATOR0) && (request <= DMA_REQUEST_GENERATOR7))
10001c9c:	68fb      	ldr	r3, [r7, #12]
10001c9e:	2b00      	cmp	r3, #0
10001ca0:	d014      	beq.n	10001ccc <DMA_CalcDMAMUXRequestGenBaseAndMask+0x40>
10001ca2:	68fb      	ldr	r3, [r7, #12]
10001ca4:	2b08      	cmp	r3, #8
10001ca6:	d811      	bhi.n	10001ccc <DMA_CalcDMAMUXRequestGenBaseAndMask+0x40>
  {

    /*DMA1 and DMA2 Streams use DMAMUX1 request generator blocks*/
    hdma->DMAmuxRequestGen = (DMAMUX_RequestGen_TypeDef *)((uint32_t)(((uint32_t)DMAMUX1_RequestGenerator0) + ((request - 1U) * 4U)));
10001ca8:	68fb      	ldr	r3, [r7, #12]
10001caa:	f103 5390 	add.w	r3, r3, #301989888	; 0x12000000
10001cae:	f603 033f 	addw	r3, r3, #2111	; 0x83f
10001cb2:	009b      	lsls	r3, r3, #2
10001cb4:	461a      	mov	r2, r3
10001cb6:	687b      	ldr	r3, [r7, #4]
10001cb8:	66da      	str	r2, [r3, #108]	; 0x6c
    hdma->DMAmuxRequestGenStatus = DMAMUX1_RequestGenStatus;
10001cba:	687b      	ldr	r3, [r7, #4]
10001cbc:	4a06      	ldr	r2, [pc, #24]	; (10001cd8 <DMA_CalcDMAMUXRequestGenBaseAndMask+0x4c>)
10001cbe:	671a      	str	r2, [r3, #112]	; 0x70
    hdma->DMAmuxRequestGenStatusMask = 1UL << (request - 1U);
10001cc0:	68fb      	ldr	r3, [r7, #12]
10001cc2:	3b01      	subs	r3, #1
10001cc4:	2201      	movs	r2, #1
10001cc6:	409a      	lsls	r2, r3
10001cc8:	687b      	ldr	r3, [r7, #4]
10001cca:	675a      	str	r2, [r3, #116]	; 0x74
  }
}
10001ccc:	bf00      	nop
10001cce:	3714      	adds	r7, #20
10001cd0:	46bd      	mov	sp, r7
10001cd2:	f85d 7b04 	ldr.w	r7, [sp], #4
10001cd6:	4770      	bx	lr
10001cd8:	48002140 	.word	0x48002140

10001cdc <HAL_GPIO_Init>:
  * @param  GPIO_Init: pointer to a GPIO_InitTypeDef structure that contains
  *         the configuration information for the specified GPIO peripheral.
  * @retval None
  */
void HAL_GPIO_Init(GPIO_TypeDef  *GPIOx, GPIO_InitTypeDef *GPIO_Init)
{
10001cdc:	b480      	push	{r7}
10001cde:	b089      	sub	sp, #36	; 0x24
10001ce0:	af00      	add	r7, sp, #0
10001ce2:	6078      	str	r0, [r7, #4]
10001ce4:	6039      	str	r1, [r7, #0]
  uint32_t iocurrent;
  uint32_t temp;
  EXTI_Core_TypeDef * EXTI_CurrentCPU;

#if defined(CORE_CM4)
  EXTI_CurrentCPU = EXTI_C2; /* EXTI for CM4 CPU */
10001ce6:	4b8a      	ldr	r3, [pc, #552]	; (10001f10 <HAL_GPIO_Init+0x234>)
10001ce8:	617b      	str	r3, [r7, #20]
  assert_param(IS_GPIO_PIN(GPIO_Init->Pin));
  assert_param(IS_GPIO_MODE(GPIO_Init->Mode));
  assert_param(IS_GPIO_PULL(GPIO_Init->Pull));

  /* Configure the port pins */
  for(position = 0; position < GPIO_NUMBER; position++)
10001cea:	2300      	movs	r3, #0
10001cec:	61fb      	str	r3, [r7, #28]
10001cee:	e191      	b.n	10002014 <HAL_GPIO_Init+0x338>
  {
    /* Get the IO position */
    ioposition = ((uint32_t)0x01) << position;
10001cf0:	2201      	movs	r2, #1
10001cf2:	69fb      	ldr	r3, [r7, #28]
10001cf4:	fa02 f303 	lsl.w	r3, r2, r3
10001cf8:	613b      	str	r3, [r7, #16]
    /* Get the current IO position */
    iocurrent = (uint32_t)(GPIO_Init->Pin) & ioposition;
10001cfa:	683b      	ldr	r3, [r7, #0]
10001cfc:	681b      	ldr	r3, [r3, #0]
10001cfe:	693a      	ldr	r2, [r7, #16]
10001d00:	4013      	ands	r3, r2
10001d02:	60fb      	str	r3, [r7, #12]

    if(iocurrent == ioposition)
10001d04:	68fa      	ldr	r2, [r7, #12]
10001d06:	693b      	ldr	r3, [r7, #16]
10001d08:	429a      	cmp	r2, r3
10001d0a:	f040 8180 	bne.w	1000200e <HAL_GPIO_Init+0x332>
    {
      /*--------------------- GPIO Mode Configuration ------------------------*/
      /* In case of Alternate function mode selection */
      if((GPIO_Init->Mode == GPIO_MODE_AF_PP) || (GPIO_Init->Mode == GPIO_MODE_AF_OD))
10001d0e:	683b      	ldr	r3, [r7, #0]
10001d10:	685b      	ldr	r3, [r3, #4]
10001d12:	2b02      	cmp	r3, #2
10001d14:	d003      	beq.n	10001d1e <HAL_GPIO_Init+0x42>
10001d16:	683b      	ldr	r3, [r7, #0]
10001d18:	685b      	ldr	r3, [r3, #4]
10001d1a:	2b12      	cmp	r3, #18
10001d1c:	d123      	bne.n	10001d66 <HAL_GPIO_Init+0x8a>
      {
        /* Check the Alternate function parameter */
        assert_param(IS_GPIO_AF(GPIO_Init->Alternate));

        /* Configure Alternate function mapped with the current IO */
        temp = GPIOx->AFR[position >> 3];
10001d1e:	69fb      	ldr	r3, [r7, #28]
10001d20:	08da      	lsrs	r2, r3, #3
10001d22:	687b      	ldr	r3, [r7, #4]
10001d24:	3208      	adds	r2, #8
10001d26:	f853 3022 	ldr.w	r3, [r3, r2, lsl #2]
10001d2a:	61bb      	str	r3, [r7, #24]
        temp &= ~((uint32_t)0xF << ((uint32_t)(position & (uint32_t)0x07) * 4)) ;
10001d2c:	69fb      	ldr	r3, [r7, #28]
10001d2e:	f003 0307 	and.w	r3, r3, #7
10001d32:	009b      	lsls	r3, r3, #2
10001d34:	220f      	movs	r2, #15
10001d36:	fa02 f303 	lsl.w	r3, r2, r3
10001d3a:	43db      	mvns	r3, r3
10001d3c:	69ba      	ldr	r2, [r7, #24]
10001d3e:	4013      	ands	r3, r2
10001d40:	61bb      	str	r3, [r7, #24]
        temp |= ((uint32_t)(GPIO_Init->Alternate) << (((uint32_t)position & (uint32_t)0x07) * 4));
10001d42:	683b      	ldr	r3, [r7, #0]
10001d44:	691a      	ldr	r2, [r3, #16]
10001d46:	69fb      	ldr	r3, [r7, #28]
10001d48:	f003 0307 	and.w	r3, r3, #7
10001d4c:	009b      	lsls	r3, r3, #2
10001d4e:	fa02 f303 	lsl.w	r3, r2, r3
10001d52:	69ba      	ldr	r2, [r7, #24]
10001d54:	4313      	orrs	r3, r2
10001d56:	61bb      	str	r3, [r7, #24]
        GPIOx->AFR[position >> 3] = temp;
10001d58:	69fb      	ldr	r3, [r7, #28]
10001d5a:	08da      	lsrs	r2, r3, #3
10001d5c:	687b      	ldr	r3, [r7, #4]
10001d5e:	3208      	adds	r2, #8
10001d60:	69b9      	ldr	r1, [r7, #24]
10001d62:	f843 1022 	str.w	r1, [r3, r2, lsl #2]
      }

      /* Configure IO Direction mode (Input, Output, Alternate or Analog) */
      temp = GPIOx->MODER;
10001d66:	687b      	ldr	r3, [r7, #4]
10001d68:	681b      	ldr	r3, [r3, #0]
10001d6a:	61bb      	str	r3, [r7, #24]
      temp &= ~(GPIO_MODER_MODER0 << (position * 2));
10001d6c:	69fb      	ldr	r3, [r7, #28]
10001d6e:	005b      	lsls	r3, r3, #1
10001d70:	2203      	movs	r2, #3
10001d72:	fa02 f303 	lsl.w	r3, r2, r3
10001d76:	43db      	mvns	r3, r3
10001d78:	69ba      	ldr	r2, [r7, #24]
10001d7a:	4013      	ands	r3, r2
10001d7c:	61bb      	str	r3, [r7, #24]
      temp |= ((GPIO_Init->Mode & GPIO_MODE) << (position * 2));
10001d7e:	683b      	ldr	r3, [r7, #0]
10001d80:	685b      	ldr	r3, [r3, #4]
10001d82:	f003 0203 	and.w	r2, r3, #3
10001d86:	69fb      	ldr	r3, [r7, #28]
10001d88:	005b      	lsls	r3, r3, #1
10001d8a:	fa02 f303 	lsl.w	r3, r2, r3
10001d8e:	69ba      	ldr	r2, [r7, #24]
10001d90:	4313      	orrs	r3, r2
10001d92:	61bb      	str	r3, [r7, #24]
      GPIOx->MODER = temp;
10001d94:	687b      	ldr	r3, [r7, #4]
10001d96:	69ba      	ldr	r2, [r7, #24]
10001d98:	601a      	str	r2, [r3, #0]

      /* In case of Output or Alternate function mode selection */
      if((GPIO_Init->Mode == GPIO_MODE_OUTPUT_PP) || (GPIO_Init->Mode == GPIO_MODE_AF_PP) ||
10001d9a:	683b      	ldr	r3, [r7, #0]
10001d9c:	685b      	ldr	r3, [r3, #4]
10001d9e:	2b01      	cmp	r3, #1
10001da0:	d00b      	beq.n	10001dba <HAL_GPIO_Init+0xde>
10001da2:	683b      	ldr	r3, [r7, #0]
10001da4:	685b      	ldr	r3, [r3, #4]
10001da6:	2b02      	cmp	r3, #2
10001da8:	d007      	beq.n	10001dba <HAL_GPIO_Init+0xde>
         (GPIO_Init->Mode == GPIO_MODE_OUTPUT_OD) || (GPIO_Init->Mode == GPIO_MODE_AF_OD))
10001daa:	683b      	ldr	r3, [r7, #0]
10001dac:	685b      	ldr	r3, [r3, #4]
      if((GPIO_Init->Mode == GPIO_MODE_OUTPUT_PP) || (GPIO_Init->Mode == GPIO_MODE_AF_PP) ||
10001dae:	2b11      	cmp	r3, #17
10001db0:	d003      	beq.n	10001dba <HAL_GPIO_Init+0xde>
         (GPIO_Init->Mode == GPIO_MODE_OUTPUT_OD) || (GPIO_Init->Mode == GPIO_MODE_AF_OD))
10001db2:	683b      	ldr	r3, [r7, #0]
10001db4:	685b      	ldr	r3, [r3, #4]
10001db6:	2b12      	cmp	r3, #18
10001db8:	d130      	bne.n	10001e1c <HAL_GPIO_Init+0x140>
      {
        /* Check the Speed parameter */
        assert_param(IS_GPIO_SPEED(GPIO_Init->Speed));
        /* Configure the IO Speed */
        temp = GPIOx->OSPEEDR;
10001dba:	687b      	ldr	r3, [r7, #4]
10001dbc:	689b      	ldr	r3, [r3, #8]
10001dbe:	61bb      	str	r3, [r7, #24]
        temp &= ~(GPIO_OSPEEDR_OSPEEDR0 << (position * 2));
10001dc0:	69fb      	ldr	r3, [r7, #28]
10001dc2:	005b      	lsls	r3, r3, #1
10001dc4:	2203      	movs	r2, #3
10001dc6:	fa02 f303 	lsl.w	r3, r2, r3
10001dca:	43db      	mvns	r3, r3
10001dcc:	69ba      	ldr	r2, [r7, #24]
10001dce:	4013      	ands	r3, r2
10001dd0:	61bb      	str	r3, [r7, #24]
